{
	"contract/vault.sol": {
		"Vault": {
			"abi": [
				{
					"inputs": [
						{
							"internalType": "address",
							"name": "shitAddress",
							"type": "address"
						}
					],
					"stateMutability": "nonpayable",
					"type": "constructor"
				},
				{
					"inputs": [
						{
							"internalType": "address",
							"name": "account",
							"type": "address"
						}
					],
					"name": "balance",
					"outputs": [
						{
							"internalType": "uint256",
							"name": "",
							"type": "uint256"
						}
					],
					"stateMutability": "view",
					"type": "function"
				},
				{
					"inputs": [
						{
							"internalType": "uint256",
							"name": "amount",
							"type": "uint256"
						}
					],
					"name": "deposite",
					"outputs": [],
					"stateMutability": "nonpayable",
					"type": "function"
				},
				{
					"inputs": [
						{
							"internalType": "uint256",
							"name": "amount",
							"type": "uint256"
						}
					],
					"name": "withdraw",
					"outputs": [],
					"stateMutability": "nonpayable",
					"type": "function"
				}
			],
			"devdoc": {
				"kind": "dev",
				"methods": {},
				"version": 1
			},
			"evm": {
				"assembly": "    /* \"contract/vault.sol\":186:1018  contract Vault is ReentrancyGuard {... */\n  mstore(0x40, 0x80)\n    /* \"contract/vault.sol\":316:391  constructor(address shitAddress){... */\n  callvalue\n  dup1\n  iszero\n  tag_1\n  jumpi\n  0x00\n  dup1\n  revert\ntag_1:\n  pop\n  mload(0x40)\n  sub(codesize, bytecodeSize)\n  dup1\n  bytecodeSize\n  dup4\n  codecopy\n  dup2\n  dup2\n  add\n  0x40\n  mstore\n  dup2\n  add\n  swap1\n  tag_2\n  swap2\n  swap1\n  tag_3\n  jump\t// in\ntag_2:\n    /* \"@openzeppelin/contracts/security/ReentrancyGuard.sol\":1701:1702  1 */\n  0x01\n    /* \"@openzeppelin/contracts/security/ReentrancyGuard.sol\":1806:1813  _status */\n  0x00\n    /* \"@openzeppelin/contracts/security/ReentrancyGuard.sol\":1806:1828  _status = _NOT_ENTERED */\n  dup2\n  swap1\n  sstore\n  pop\n    /* \"contract/vault.sol\":373:384  shitAddress */\n  dup1\n    /* \"contract/vault.sol\":358:370  _shitAddress */\n  0x01\n  0x00\n    /* \"contract/vault.sol\":358:384  _shitAddress = shitAddress */\n  0x0100\n  exp\n  dup2\n  sload\n  dup2\n  0xffffffffffffffffffffffffffffffffffffffff\n  mul\n  not\n  and\n  swap1\n  dup4\n  0xffffffffffffffffffffffffffffffffffffffff\n  and\n  mul\n  or\n  swap1\n  sstore\n  pop\n    /* \"contract/vault.sol\":316:391  constructor(address shitAddress){... */\n  pop\n    /* \"contract/vault.sol\":186:1018  contract Vault is ReentrancyGuard {... */\n  jump(tag_8)\n    /* \"#utility.yul\":7:150   */\ntag_10:\n    /* \"#utility.yul\":64:69   */\n  0x00\n    /* \"#utility.yul\":95:101   */\n  dup2\n    /* \"#utility.yul\":89:102   */\n  mload\n    /* \"#utility.yul\":80:102   */\n  swap1\n  pop\n    /* \"#utility.yul\":111:144   */\n  tag_12\n    /* \"#utility.yul\":138:143   */\n  dup2\n    /* \"#utility.yul\":111:144   */\n  tag_13\n  jump\t// in\ntag_12:\n    /* \"#utility.yul\":7:150   */\n  swap3\n  swap2\n  pop\n  pop\n  jump\t// out\n    /* \"#utility.yul\":156:507   */\ntag_3:\n    /* \"#utility.yul\":226:232   */\n  0x00\n    /* \"#utility.yul\":275:277   */\n  0x20\n    /* \"#utility.yul\":263:272   */\n  dup3\n    /* \"#utility.yul\":254:261   */\n  dup5\n    /* \"#utility.yul\":250:273   */\n  sub\n    /* \"#utility.yul\":246:278   */\n  slt\n    /* \"#utility.yul\":243:362   */\n  iszero\n  tag_15\n  jumpi\n    /* \"#utility.yul\":281:360   */\n  tag_16\n  tag_17\n  jump\t// in\ntag_16:\n    /* \"#utility.yul\":243:362   */\ntag_15:\n    /* \"#utility.yul\":401:402   */\n  0x00\n    /* \"#utility.yul\":426:490   */\n  tag_18\n    /* \"#utility.yul\":482:489   */\n  dup5\n    /* \"#utility.yul\":473:479   */\n  dup3\n    /* \"#utility.yul\":462:471   */\n  dup6\n    /* \"#utility.yul\":458:480   */\n  add\n    /* \"#utility.yul\":426:490   */\n  tag_10\n  jump\t// in\ntag_18:\n    /* \"#utility.yul\":416:490   */\n  swap2\n  pop\n    /* \"#utility.yul\":372:500   */\n  pop\n    /* \"#utility.yul\":156:507   */\n  swap3\n  swap2\n  pop\n  pop\n  jump\t// out\n    /* \"#utility.yul\":594:690   */\ntag_21:\n    /* \"#utility.yul\":631:638   */\n  0x00\n    /* \"#utility.yul\":660:684   */\n  tag_23\n    /* \"#utility.yul\":678:683   */\n  dup3\n    /* \"#utility.yul\":660:684   */\n  tag_24\n  jump\t// in\ntag_23:\n    /* \"#utility.yul\":649:684   */\n  swap1\n  pop\n    /* \"#utility.yul\":594:690   */\n  swap2\n  swap1\n  pop\n  jump\t// out\n    /* \"#utility.yul\":696:822   */\ntag_24:\n    /* \"#utility.yul\":733:740   */\n  0x00\n    /* \"#utility.yul\":773:815   */\n  0xffffffffffffffffffffffffffffffffffffffff\n    /* \"#utility.yul\":766:771   */\n  dup3\n    /* \"#utility.yul\":762:816   */\n  and\n    /* \"#utility.yul\":751:816   */\n  swap1\n  pop\n    /* \"#utility.yul\":696:822   */\n  swap2\n  swap1\n  pop\n  jump\t// out\n    /* \"#utility.yul\":951:1068   */\ntag_17:\n    /* \"#utility.yul\":1060:1061   */\n  0x00\n    /* \"#utility.yul\":1057:1058   */\n  dup1\n    /* \"#utility.yul\":1050:1062   */\n  revert\n    /* \"#utility.yul\":1074:1196   */\ntag_13:\n    /* \"#utility.yul\":1147:1171   */\n  tag_30\n    /* \"#utility.yul\":1165:1170   */\n  dup2\n    /* \"#utility.yul\":1147:1171   */\n  tag_21\n  jump\t// in\ntag_30:\n    /* \"#utility.yul\":1140:1145   */\n  dup2\n    /* \"#utility.yul\":1137:1172   */\n  eq\n    /* \"#utility.yul\":1127:1190   */\n  tag_31\n  jumpi\n    /* \"#utility.yul\":1186:1187   */\n  0x00\n    /* \"#utility.yul\":1183:1184   */\n  dup1\n    /* \"#utility.yul\":1176:1188   */\n  revert\n    /* \"#utility.yul\":1127:1190   */\ntag_31:\n    /* \"#utility.yul\":1074:1196   */\n  pop\n  jump\t// out\n    /* \"contract/vault.sol\":186:1018  contract Vault is ReentrancyGuard {... */\ntag_8:\n  dataSize(sub_0)\n  dup1\n  dataOffset(sub_0)\n  0x00\n  codecopy\n  0x00\n  return\nstop\n\nsub_0: assembly {\n        /* \"contract/vault.sol\":186:1018  contract Vault is ReentrancyGuard {... */\n      mstore(0x40, 0x80)\n      callvalue\n      dup1\n      iszero\n      tag_1\n      jumpi\n      0x00\n      dup1\n      revert\n    tag_1:\n      pop\n      jumpi(tag_2, lt(calldatasize, 0x04))\n      shr(0xe0, calldataload(0x00))\n      dup1\n      0x2e1a7d4d\n      eq\n      tag_3\n      jumpi\n      dup1\n      0x3104562b\n      eq\n      tag_4\n      jumpi\n      dup1\n      0xe3d670d7\n      eq\n      tag_5\n      jumpi\n    tag_2:\n      0x00\n      dup1\n      revert\n        /* \"contract/vault.sol\":567:904  function withdraw(uint amount) public nonReentrant {... */\n    tag_3:\n      tag_6\n      0x04\n      dup1\n      calldatasize\n      sub\n      dup2\n      add\n      swap1\n      tag_7\n      swap2\n      swap1\n      tag_8\n      jump\t// in\n    tag_7:\n      tag_9\n      jump\t// in\n    tag_6:\n      stop\n        /* \"contract/vault.sol\":397:561  function deposite(uint amount) public {... */\n    tag_4:\n      tag_10\n      0x04\n      dup1\n      calldatasize\n      sub\n      dup2\n      add\n      swap1\n      tag_11\n      swap2\n      swap1\n      tag_8\n      jump\t// in\n    tag_11:\n      tag_12\n      jump\t// in\n    tag_10:\n      stop\n        /* \"contract/vault.sol\":910:1016  function balance(address account) public view returns (uint256) {... */\n    tag_5:\n      tag_13\n      0x04\n      dup1\n      calldatasize\n      sub\n      dup2\n      add\n      swap1\n      tag_14\n      swap2\n      swap1\n      tag_15\n      jump\t// in\n    tag_14:\n      tag_16\n      jump\t// in\n    tag_13:\n      mload(0x40)\n      tag_17\n      swap2\n      swap1\n      tag_18\n      jump\t// in\n    tag_17:\n      mload(0x40)\n      dup1\n      swap2\n      sub\n      swap1\n      return\n        /* \"contract/vault.sol\":567:904  function withdraw(uint amount) public nonReentrant {... */\n    tag_9:\n        /* \"@openzeppelin/contracts/security/ReentrancyGuard.sol\":1744:1745  2 */\n      0x02\n        /* \"@openzeppelin/contracts/security/ReentrancyGuard.sol\":2325:2332  _status */\n      sload(0x00)\n        /* \"@openzeppelin/contracts/security/ReentrancyGuard.sol\":2325:2344  _status != _ENTERED */\n      eq\n      iszero\n        /* \"@openzeppelin/contracts/security/ReentrancyGuard.sol\":2317:2380  require(_status != _ENTERED, \"ReentrancyGuard: reentrant call\") */\n      tag_20\n      jumpi\n      mload(0x40)\n      0x08c379a000000000000000000000000000000000000000000000000000000000\n      dup2\n      mstore\n      0x04\n      add\n      tag_21\n      swap1\n      tag_22\n      jump\t// in\n    tag_21:\n      mload(0x40)\n      dup1\n      swap2\n      sub\n      swap1\n      revert\n    tag_20:\n        /* \"@openzeppelin/contracts/security/ReentrancyGuard.sol\":1744:1745  2 */\n      0x02\n        /* \"@openzeppelin/contracts/security/ReentrancyGuard.sol\":2455:2462  _status */\n      0x00\n        /* \"@openzeppelin/contracts/security/ReentrancyGuard.sol\":2455:2473  _status = _ENTERED */\n      dup2\n      swap1\n      sstore\n      pop\n        /* \"contract/vault.sol\":660:661  0 */\n      0x00\n        /* \"contract/vault.sol\":636:645  _balances */\n      0x02\n        /* \"contract/vault.sol\":636:657  _balances[msg.sender] */\n      0x00\n        /* \"contract/vault.sol\":646:656  msg.sender */\n      caller\n        /* \"contract/vault.sol\":636:657  _balances[msg.sender] */\n      0xffffffffffffffffffffffffffffffffffffffff\n      and\n      0xffffffffffffffffffffffffffffffffffffffff\n      and\n      dup2\n      mstore\n      0x20\n      add\n      swap1\n      dup2\n      mstore\n      0x20\n      add\n      0x00\n      keccak256\n      sload\n        /* \"contract/vault.sol\":636:661  _balances[msg.sender] > 0 */\n      gt\n        /* \"contract/vault.sol\":628:682  require(_balances[msg.sender] > 0, \"balance must > 0\") */\n      tag_24\n      jumpi\n      mload(0x40)\n      0x08c379a000000000000000000000000000000000000000000000000000000000\n      dup2\n      mstore\n      0x04\n      add\n      tag_25\n      swap1\n      tag_26\n      jump\t// in\n    tag_25:\n      mload(0x40)\n      dup1\n      swap2\n      sub\n      swap1\n      revert\n    tag_24:\n        /* \"contract/vault.sol\":709:710  0 */\n      0x00\n        /* \"contract/vault.sol\":700:706  amount */\n      dup2\n        /* \"contract/vault.sol\":700:710  amount > 0 */\n      gt\n        /* \"contract/vault.sol\":692:730  require(amount > 0, \"amount must > 0\") */\n      tag_27\n      jumpi\n      mload(0x40)\n      0x08c379a000000000000000000000000000000000000000000000000000000000\n      dup2\n      mstore\n      0x04\n      add\n      tag_28\n      swap1\n      tag_29\n      jump\t// in\n    tag_28:\n      mload(0x40)\n      dup1\n      swap2\n      sub\n      swap1\n      revert\n    tag_27:\n        /* \"contract/vault.sol\":782:783  0 */\n      0x00\n        /* \"contract/vault.sol\":772:778  amount */\n      dup2\n        /* \"contract/vault.sol\":748:757  _balances */\n      0x02\n        /* \"contract/vault.sol\":748:769  _balances[msg.sender] */\n      0x00\n        /* \"contract/vault.sol\":758:768  msg.sender */\n      caller\n        /* \"contract/vault.sol\":748:769  _balances[msg.sender] */\n      0xffffffffffffffffffffffffffffffffffffffff\n      and\n      0xffffffffffffffffffffffffffffffffffffffff\n      and\n      dup2\n      mstore\n      0x20\n      add\n      swap1\n      dup2\n      mstore\n      0x20\n      add\n      0x00\n      keccak256\n      sload\n        /* \"contract/vault.sol\":748:778  _balances[msg.sender] - amount */\n      tag_30\n      swap2\n      swap1\n      tag_31\n      jump\t// in\n    tag_30:\n        /* \"contract/vault.sol\":748:783  _balances[msg.sender] - amount >= 0 */\n      lt\n      iszero\n        /* \"contract/vault.sol\":740:797  require(_balances[msg.sender] - amount >= 0, \"must >= 0\") */\n      tag_32\n      jumpi\n      mload(0x40)\n      0x08c379a000000000000000000000000000000000000000000000000000000000\n      dup2\n      mstore\n      0x04\n      add\n      tag_33\n      swap1\n      tag_34\n      jump\t// in\n    tag_33:\n      mload(0x40)\n      dup1\n      swap2\n      sub\n      swap1\n      revert\n    tag_32:\n        /* \"contract/vault.sol\":814:826  _shitAddress */\n      0x01\n      0x00\n      swap1\n      sload\n      swap1\n      0x0100\n      exp\n      swap1\n      div\n      0xffffffffffffffffffffffffffffffffffffffff\n      and\n        /* \"contract/vault.sol\":807:836  IERC20(_shitAddress).transfer */\n      0xffffffffffffffffffffffffffffffffffffffff\n      and\n      0xa9059cbb\n        /* \"contract/vault.sol\":837:847  msg.sender */\n      caller\n        /* \"contract/vault.sol\":849:855  amount */\n      dup4\n        /* \"contract/vault.sol\":807:856  IERC20(_shitAddress).transfer(msg.sender, amount) */\n      mload(0x40)\n      dup4\n      0xffffffff\n      and\n      0xe0\n      shl\n      dup2\n      mstore\n      0x04\n      add\n      tag_35\n      swap3\n      swap2\n      swap1\n      tag_36\n      jump\t// in\n    tag_35:\n      0x20\n      mload(0x40)\n      dup1\n      dup4\n      sub\n      dup2\n      0x00\n      dup8\n      dup1\n      extcodesize\n      iszero\n      dup1\n      iszero\n      tag_37\n      jumpi\n      0x00\n      dup1\n      revert\n    tag_37:\n      pop\n      gas\n      call\n      iszero\n      dup1\n      iszero\n      tag_39\n      jumpi\n      returndatasize\n      0x00\n      dup1\n      returndatacopy\n      revert(0x00, returndatasize)\n    tag_39:\n      pop\n      pop\n      pop\n      pop\n      mload(0x40)\n      returndatasize\n      not(0x1f)\n      0x1f\n      dup3\n      add\n      and\n      dup3\n      add\n      dup1\n      0x40\n      mstore\n      pop\n      dup2\n      add\n      swap1\n      tag_40\n      swap2\n      swap1\n      tag_41\n      jump\t// in\n    tag_40:\n      pop\n        /* \"contract/vault.sol\":891:897  amount */\n      dup1\n        /* \"contract/vault.sol\":866:875  _balances */\n      0x02\n        /* \"contract/vault.sol\":866:887  _balances[msg.sender] */\n      0x00\n        /* \"contract/vault.sol\":876:886  msg.sender */\n      caller\n        /* \"contract/vault.sol\":866:887  _balances[msg.sender] */\n      0xffffffffffffffffffffffffffffffffffffffff\n      and\n      0xffffffffffffffffffffffffffffffffffffffff\n      and\n      dup2\n      mstore\n      0x20\n      add\n      swap1\n      dup2\n      mstore\n      0x20\n      add\n      0x00\n      keccak256\n      0x00\n        /* \"contract/vault.sol\":866:897  _balances[msg.sender] -= amount */\n      dup3\n      dup3\n      sload\n      tag_42\n      swap2\n      swap1\n      tag_31\n      jump\t// in\n    tag_42:\n      swap3\n      pop\n      pop\n      dup2\n      swap1\n      sstore\n      pop\n        /* \"@openzeppelin/contracts/security/ReentrancyGuard.sol\":1701:1702  1 */\n      0x01\n        /* \"@openzeppelin/contracts/security/ReentrancyGuard.sol\":2628:2635  _status */\n      0x00\n        /* \"@openzeppelin/contracts/security/ReentrancyGuard.sol\":2628:2650  _status = _NOT_ENTERED */\n      dup2\n      swap1\n      sstore\n      pop\n        /* \"contract/vault.sol\":567:904  function withdraw(uint amount) public nonReentrant {... */\n      pop\n      jump\t// out\n        /* \"contract/vault.sol\":397:561  function deposite(uint amount) public {... */\n    tag_12:\n        /* \"contract/vault.sol\":452:464  _shitAddress */\n      0x01\n      0x00\n      swap1\n      sload\n      swap1\n      0x0100\n      exp\n      swap1\n      div\n      0xffffffffffffffffffffffffffffffffffffffff\n      and\n        /* \"contract/vault.sol\":445:478  IERC20(_shitAddress).transferFrom */\n      0xffffffffffffffffffffffffffffffffffffffff\n      and\n      0x23b872dd\n        /* \"contract/vault.sol\":479:489  msg.sender */\n      caller\n        /* \"contract/vault.sol\":499:503  this */\n      address\n        /* \"contract/vault.sol\":506:512  amount */\n      dup5\n        /* \"contract/vault.sol\":445:513  IERC20(_shitAddress).transferFrom(msg.sender, address(this), amount) */\n      mload(0x40)\n      dup5\n      0xffffffff\n      and\n      0xe0\n      shl\n      dup2\n      mstore\n      0x04\n      add\n      tag_44\n      swap4\n      swap3\n      swap2\n      swap1\n      tag_45\n      jump\t// in\n    tag_44:\n      0x20\n      mload(0x40)\n      dup1\n      dup4\n      sub\n      dup2\n      0x00\n      dup8\n      dup1\n      extcodesize\n      iszero\n      dup1\n      iszero\n      tag_46\n      jumpi\n      0x00\n      dup1\n      revert\n    tag_46:\n      pop\n      gas\n      call\n      iszero\n      dup1\n      iszero\n      tag_48\n      jumpi\n      returndatasize\n      0x00\n      dup1\n      returndatacopy\n      revert(0x00, returndatasize)\n    tag_48:\n      pop\n      pop\n      pop\n      pop\n      mload(0x40)\n      returndatasize\n      not(0x1f)\n      0x1f\n      dup3\n      add\n      and\n      dup3\n      add\n      dup1\n      0x40\n      mstore\n      pop\n      dup2\n      add\n      swap1\n      tag_49\n      swap2\n      swap1\n      tag_41\n      jump\t// in\n    tag_49:\n      pop\n        /* \"contract/vault.sol\":548:554  amount */\n      dup1\n        /* \"contract/vault.sol\":523:532  _balances */\n      0x02\n        /* \"contract/vault.sol\":523:544  _balances[msg.sender] */\n      0x00\n        /* \"contract/vault.sol\":533:543  msg.sender */\n      caller\n        /* \"contract/vault.sol\":523:544  _balances[msg.sender] */\n      0xffffffffffffffffffffffffffffffffffffffff\n      and\n      0xffffffffffffffffffffffffffffffffffffffff\n      and\n      dup2\n      mstore\n      0x20\n      add\n      swap1\n      dup2\n      mstore\n      0x20\n      add\n      0x00\n      keccak256\n      0x00\n        /* \"contract/vault.sol\":523:554  _balances[msg.sender] += amount */\n      dup3\n      dup3\n      sload\n      tag_50\n      swap2\n      swap1\n      tag_51\n      jump\t// in\n    tag_50:\n      swap3\n      pop\n      pop\n      dup2\n      swap1\n      sstore\n      pop\n        /* \"contract/vault.sol\":397:561  function deposite(uint amount) public {... */\n      pop\n      jump\t// out\n        /* \"contract/vault.sol\":910:1016  function balance(address account) public view returns (uint256) {... */\n    tag_16:\n        /* \"contract/vault.sol\":965:972  uint256 */\n      0x00\n        /* \"contract/vault.sol\":991:1000  _balances */\n      0x02\n        /* \"contract/vault.sol\":991:1009  _balances[account] */\n      0x00\n        /* \"contract/vault.sol\":1001:1008  account */\n      dup4\n        /* \"contract/vault.sol\":991:1009  _balances[account] */\n      0xffffffffffffffffffffffffffffffffffffffff\n      and\n      0xffffffffffffffffffffffffffffffffffffffff\n      and\n      dup2\n      mstore\n      0x20\n      add\n      swap1\n      dup2\n      mstore\n      0x20\n      add\n      0x00\n      keccak256\n      sload\n        /* \"contract/vault.sol\":984:1009  return _balances[account] */\n      swap1\n      pop\n        /* \"contract/vault.sol\":910:1016  function balance(address account) public view returns (uint256) {... */\n      swap2\n      swap1\n      pop\n      jump\t// out\n        /* \"#utility.yul\":7:146   */\n    tag_54:\n        /* \"#utility.yul\":53:58   */\n      0x00\n        /* \"#utility.yul\":91:97   */\n      dup2\n        /* \"#utility.yul\":78:98   */\n      calldataload\n        /* \"#utility.yul\":69:98   */\n      swap1\n      pop\n        /* \"#utility.yul\":107:140   */\n      tag_56\n        /* \"#utility.yul\":134:139   */\n      dup2\n        /* \"#utility.yul\":107:140   */\n      tag_57\n      jump\t// in\n    tag_56:\n        /* \"#utility.yul\":7:146   */\n      swap3\n      swap2\n      pop\n      pop\n      jump\t// out\n        /* \"#utility.yul\":152:289   */\n    tag_58:\n        /* \"#utility.yul\":206:211   */\n      0x00\n        /* \"#utility.yul\":237:243   */\n      dup2\n        /* \"#utility.yul\":231:244   */\n      mload\n        /* \"#utility.yul\":222:244   */\n      swap1\n      pop\n        /* \"#utility.yul\":253:283   */\n      tag_60\n        /* \"#utility.yul\":277:282   */\n      dup2\n        /* \"#utility.yul\":253:283   */\n      tag_61\n      jump\t// in\n    tag_60:\n        /* \"#utility.yul\":152:289   */\n      swap3\n      swap2\n      pop\n      pop\n      jump\t// out\n        /* \"#utility.yul\":295:434   */\n    tag_62:\n        /* \"#utility.yul\":341:346   */\n      0x00\n        /* \"#utility.yul\":379:385   */\n      dup2\n        /* \"#utility.yul\":366:386   */\n      calldataload\n        /* \"#utility.yul\":357:386   */\n      swap1\n      pop\n        /* \"#utility.yul\":395:428   */\n      tag_64\n        /* \"#utility.yul\":422:427   */\n      dup2\n        /* \"#utility.yul\":395:428   */\n      tag_65\n      jump\t// in\n    tag_64:\n        /* \"#utility.yul\":295:434   */\n      swap3\n      swap2\n      pop\n      pop\n      jump\t// out\n        /* \"#utility.yul\":440:769   */\n    tag_15:\n        /* \"#utility.yul\":499:505   */\n      0x00\n        /* \"#utility.yul\":548:550   */\n      0x20\n        /* \"#utility.yul\":536:545   */\n      dup3\n        /* \"#utility.yul\":527:534   */\n      dup5\n        /* \"#utility.yul\":523:546   */\n      sub\n        /* \"#utility.yul\":519:551   */\n      slt\n        /* \"#utility.yul\":516:635   */\n      iszero\n      tag_67\n      jumpi\n        /* \"#utility.yul\":554:633   */\n      tag_68\n      tag_69\n      jump\t// in\n    tag_68:\n        /* \"#utility.yul\":516:635   */\n    tag_67:\n        /* \"#utility.yul\":674:675   */\n      0x00\n        /* \"#utility.yul\":699:752   */\n      tag_70\n        /* \"#utility.yul\":744:751   */\n      dup5\n        /* \"#utility.yul\":735:741   */\n      dup3\n        /* \"#utility.yul\":724:733   */\n      dup6\n        /* \"#utility.yul\":720:742   */\n      add\n        /* \"#utility.yul\":699:752   */\n      tag_54\n      jump\t// in\n    tag_70:\n        /* \"#utility.yul\":689:752   */\n      swap2\n      pop\n        /* \"#utility.yul\":645:762   */\n      pop\n        /* \"#utility.yul\":440:769   */\n      swap3\n      swap2\n      pop\n      pop\n      jump\t// out\n        /* \"#utility.yul\":775:1120   */\n    tag_41:\n        /* \"#utility.yul\":842:848   */\n      0x00\n        /* \"#utility.yul\":891:893   */\n      0x20\n        /* \"#utility.yul\":879:888   */\n      dup3\n        /* \"#utility.yul\":870:877   */\n      dup5\n        /* \"#utility.yul\":866:889   */\n      sub\n        /* \"#utility.yul\":862:894   */\n      slt\n        /* \"#utility.yul\":859:978   */\n      iszero\n      tag_72\n      jumpi\n        /* \"#utility.yul\":897:976   */\n      tag_73\n      tag_69\n      jump\t// in\n    tag_73:\n        /* \"#utility.yul\":859:978   */\n    tag_72:\n        /* \"#utility.yul\":1017:1018   */\n      0x00\n        /* \"#utility.yul\":1042:1103   */\n      tag_74\n        /* \"#utility.yul\":1095:1102   */\n      dup5\n        /* \"#utility.yul\":1086:1092   */\n      dup3\n        /* \"#utility.yul\":1075:1084   */\n      dup6\n        /* \"#utility.yul\":1071:1093   */\n      add\n        /* \"#utility.yul\":1042:1103   */\n      tag_58\n      jump\t// in\n    tag_74:\n        /* \"#utility.yul\":1032:1103   */\n      swap2\n      pop\n        /* \"#utility.yul\":988:1113   */\n      pop\n        /* \"#utility.yul\":775:1120   */\n      swap3\n      swap2\n      pop\n      pop\n      jump\t// out\n        /* \"#utility.yul\":1126:1455   */\n    tag_8:\n        /* \"#utility.yul\":1185:1191   */\n      0x00\n        /* \"#utility.yul\":1234:1236   */\n      0x20\n        /* \"#utility.yul\":1222:1231   */\n      dup3\n        /* \"#utility.yul\":1213:1220   */\n      dup5\n        /* \"#utility.yul\":1209:1232   */\n      sub\n        /* \"#utility.yul\":1205:1237   */\n      slt\n        /* \"#utility.yul\":1202:1321   */\n      iszero\n      tag_76\n      jumpi\n        /* \"#utility.yul\":1240:1319   */\n      tag_77\n      tag_69\n      jump\t// in\n    tag_77:\n        /* \"#utility.yul\":1202:1321   */\n    tag_76:\n        /* \"#utility.yul\":1360:1361   */\n      0x00\n        /* \"#utility.yul\":1385:1438   */\n      tag_78\n        /* \"#utility.yul\":1430:1437   */\n      dup5\n        /* \"#utility.yul\":1421:1427   */\n      dup3\n        /* \"#utility.yul\":1410:1419   */\n      dup6\n        /* \"#utility.yul\":1406:1428   */\n      add\n        /* \"#utility.yul\":1385:1438   */\n      tag_62\n      jump\t// in\n    tag_78:\n        /* \"#utility.yul\":1375:1438   */\n      swap2\n      pop\n        /* \"#utility.yul\":1331:1448   */\n      pop\n        /* \"#utility.yul\":1126:1455   */\n      swap3\n      swap2\n      pop\n      pop\n      jump\t// out\n        /* \"#utility.yul\":1461:1579   */\n    tag_79:\n        /* \"#utility.yul\":1548:1572   */\n      tag_81\n        /* \"#utility.yul\":1566:1571   */\n      dup2\n        /* \"#utility.yul\":1548:1572   */\n      tag_82\n      jump\t// in\n    tag_81:\n        /* \"#utility.yul\":1543:1546   */\n      dup3\n        /* \"#utility.yul\":1536:1573   */\n      mstore\n        /* \"#utility.yul\":1461:1579   */\n      pop\n      pop\n      jump\t// out\n        /* \"#utility.yul\":1585:1951   */\n    tag_83:\n        /* \"#utility.yul\":1727:1730   */\n      0x00\n        /* \"#utility.yul\":1748:1815   */\n      tag_85\n        /* \"#utility.yul\":1812:1814   */\n      0x10\n        /* \"#utility.yul\":1807:1810   */\n      dup4\n        /* \"#utility.yul\":1748:1815   */\n      tag_86\n      jump\t// in\n    tag_85:\n        /* \"#utility.yul\":1741:1815   */\n      swap2\n      pop\n        /* \"#utility.yul\":1824:1917   */\n      tag_87\n        /* \"#utility.yul\":1913:1916   */\n      dup3\n        /* \"#utility.yul\":1824:1917   */\n      tag_88\n      jump\t// in\n    tag_87:\n        /* \"#utility.yul\":1942:1944   */\n      0x20\n        /* \"#utility.yul\":1937:1940   */\n      dup3\n        /* \"#utility.yul\":1933:1945   */\n      add\n        /* \"#utility.yul\":1926:1945   */\n      swap1\n      pop\n        /* \"#utility.yul\":1585:1951   */\n      swap2\n      swap1\n      pop\n      jump\t// out\n        /* \"#utility.yul\":1957:2323   */\n    tag_89:\n        /* \"#utility.yul\":2099:2102   */\n      0x00\n        /* \"#utility.yul\":2120:2187   */\n      tag_91\n        /* \"#utility.yul\":2184:2186   */\n      0x0f\n        /* \"#utility.yul\":2179:2182   */\n      dup4\n        /* \"#utility.yul\":2120:2187   */\n      tag_86\n      jump\t// in\n    tag_91:\n        /* \"#utility.yul\":2113:2187   */\n      swap2\n      pop\n        /* \"#utility.yul\":2196:2289   */\n      tag_92\n        /* \"#utility.yul\":2285:2288   */\n      dup3\n        /* \"#utility.yul\":2196:2289   */\n      tag_93\n      jump\t// in\n    tag_92:\n        /* \"#utility.yul\":2314:2316   */\n      0x20\n        /* \"#utility.yul\":2309:2312   */\n      dup3\n        /* \"#utility.yul\":2305:2317   */\n      add\n        /* \"#utility.yul\":2298:2317   */\n      swap1\n      pop\n        /* \"#utility.yul\":1957:2323   */\n      swap2\n      swap1\n      pop\n      jump\t// out\n        /* \"#utility.yul\":2329:2694   */\n    tag_94:\n        /* \"#utility.yul\":2471:2474   */\n      0x00\n        /* \"#utility.yul\":2492:2558   */\n      tag_96\n        /* \"#utility.yul\":2556:2557   */\n      0x09\n        /* \"#utility.yul\":2551:2554   */\n      dup4\n        /* \"#utility.yul\":2492:2558   */\n      tag_86\n      jump\t// in\n    tag_96:\n        /* \"#utility.yul\":2485:2558   */\n      swap2\n      pop\n        /* \"#utility.yul\":2567:2660   */\n      tag_97\n        /* \"#utility.yul\":2656:2659   */\n      dup3\n        /* \"#utility.yul\":2567:2660   */\n      tag_98\n      jump\t// in\n    tag_97:\n        /* \"#utility.yul\":2685:2687   */\n      0x20\n        /* \"#utility.yul\":2680:2683   */\n      dup3\n        /* \"#utility.yul\":2676:2688   */\n      add\n        /* \"#utility.yul\":2669:2688   */\n      swap1\n      pop\n        /* \"#utility.yul\":2329:2694   */\n      swap2\n      swap1\n      pop\n      jump\t// out\n        /* \"#utility.yul\":2700:3066   */\n    tag_99:\n        /* \"#utility.yul\":2842:2845   */\n      0x00\n        /* \"#utility.yul\":2863:2930   */\n      tag_101\n        /* \"#utility.yul\":2927:2929   */\n      0x1f\n        /* \"#utility.yul\":2922:2925   */\n      dup4\n        /* \"#utility.yul\":2863:2930   */\n      tag_86\n      jump\t// in\n    tag_101:\n        /* \"#utility.yul\":2856:2930   */\n      swap2\n      pop\n        /* \"#utility.yul\":2939:3032   */\n      tag_102\n        /* \"#utility.yul\":3028:3031   */\n      dup3\n        /* \"#utility.yul\":2939:3032   */\n      tag_103\n      jump\t// in\n    tag_102:\n        /* \"#utility.yul\":3057:3059   */\n      0x20\n        /* \"#utility.yul\":3052:3055   */\n      dup3\n        /* \"#utility.yul\":3048:3060   */\n      add\n        /* \"#utility.yul\":3041:3060   */\n      swap1\n      pop\n        /* \"#utility.yul\":2700:3066   */\n      swap2\n      swap1\n      pop\n      jump\t// out\n        /* \"#utility.yul\":3072:3190   */\n    tag_104:\n        /* \"#utility.yul\":3159:3183   */\n      tag_106\n        /* \"#utility.yul\":3177:3182   */\n      dup2\n        /* \"#utility.yul\":3159:3183   */\n      tag_107\n      jump\t// in\n    tag_106:\n        /* \"#utility.yul\":3154:3157   */\n      dup3\n        /* \"#utility.yul\":3147:3184   */\n      mstore\n        /* \"#utility.yul\":3072:3190   */\n      pop\n      pop\n      jump\t// out\n        /* \"#utility.yul\":3196:3638   */\n    tag_45:\n        /* \"#utility.yul\":3345:3349   */\n      0x00\n        /* \"#utility.yul\":3383:3385   */\n      0x60\n        /* \"#utility.yul\":3372:3381   */\n      dup3\n        /* \"#utility.yul\":3368:3386   */\n      add\n        /* \"#utility.yul\":3360:3386   */\n      swap1\n      pop\n        /* \"#utility.yul\":3396:3467   */\n      tag_109\n        /* \"#utility.yul\":3464:3465   */\n      0x00\n        /* \"#utility.yul\":3453:3462   */\n      dup4\n        /* \"#utility.yul\":3449:3466   */\n      add\n        /* \"#utility.yul\":3440:3446   */\n      dup7\n        /* \"#utility.yul\":3396:3467   */\n      tag_79\n      jump\t// in\n    tag_109:\n        /* \"#utility.yul\":3477:3549   */\n      tag_110\n        /* \"#utility.yul\":3545:3547   */\n      0x20\n        /* \"#utility.yul\":3534:3543   */\n      dup4\n        /* \"#utility.yul\":3530:3548   */\n      add\n        /* \"#utility.yul\":3521:3527   */\n      dup6\n        /* \"#utility.yul\":3477:3549   */\n      tag_79\n      jump\t// in\n    tag_110:\n        /* \"#utility.yul\":3559:3631   */\n      tag_111\n        /* \"#utility.yul\":3627:3629   */\n      0x40\n        /* \"#utility.yul\":3616:3625   */\n      dup4\n        /* \"#utility.yul\":3612:3630   */\n      add\n        /* \"#utility.yul\":3603:3609   */\n      dup5\n        /* \"#utility.yul\":3559:3631   */\n      tag_104\n      jump\t// in\n    tag_111:\n        /* \"#utility.yul\":3196:3638   */\n      swap5\n      swap4\n      pop\n      pop\n      pop\n      pop\n      jump\t// out\n        /* \"#utility.yul\":3644:3976   */\n    tag_36:\n        /* \"#utility.yul\":3765:3769   */\n      0x00\n        /* \"#utility.yul\":3803:3805   */\n      0x40\n        /* \"#utility.yul\":3792:3801   */\n      dup3\n        /* \"#utility.yul\":3788:3806   */\n      add\n        /* \"#utility.yul\":3780:3806   */\n      swap1\n      pop\n        /* \"#utility.yul\":3816:3887   */\n      tag_113\n        /* \"#utility.yul\":3884:3885   */\n      0x00\n        /* \"#utility.yul\":3873:3882   */\n      dup4\n        /* \"#utility.yul\":3869:3886   */\n      add\n        /* \"#utility.yul\":3860:3866   */\n      dup6\n        /* \"#utility.yul\":3816:3887   */\n      tag_79\n      jump\t// in\n    tag_113:\n        /* \"#utility.yul\":3897:3969   */\n      tag_114\n        /* \"#utility.yul\":3965:3967   */\n      0x20\n        /* \"#utility.yul\":3954:3963   */\n      dup4\n        /* \"#utility.yul\":3950:3968   */\n      add\n        /* \"#utility.yul\":3941:3947   */\n      dup5\n        /* \"#utility.yul\":3897:3969   */\n      tag_104\n      jump\t// in\n    tag_114:\n        /* \"#utility.yul\":3644:3976   */\n      swap4\n      swap3\n      pop\n      pop\n      pop\n      jump\t// out\n        /* \"#utility.yul\":3982:4401   */\n    tag_26:\n        /* \"#utility.yul\":4148:4152   */\n      0x00\n        /* \"#utility.yul\":4186:4188   */\n      0x20\n        /* \"#utility.yul\":4175:4184   */\n      dup3\n        /* \"#utility.yul\":4171:4189   */\n      add\n        /* \"#utility.yul\":4163:4189   */\n      swap1\n      pop\n        /* \"#utility.yul\":4235:4244   */\n      dup2\n        /* \"#utility.yul\":4229:4233   */\n      dup2\n        /* \"#utility.yul\":4225:4245   */\n      sub\n        /* \"#utility.yul\":4221:4222   */\n      0x00\n        /* \"#utility.yul\":4210:4219   */\n      dup4\n        /* \"#utility.yul\":4206:4223   */\n      add\n        /* \"#utility.yul\":4199:4246   */\n      mstore\n        /* \"#utility.yul\":4263:4394   */\n      tag_116\n        /* \"#utility.yul\":4389:4393   */\n      dup2\n        /* \"#utility.yul\":4263:4394   */\n      tag_83\n      jump\t// in\n    tag_116:\n        /* \"#utility.yul\":4255:4394   */\n      swap1\n      pop\n        /* \"#utility.yul\":3982:4401   */\n      swap2\n      swap1\n      pop\n      jump\t// out\n        /* \"#utility.yul\":4407:4826   */\n    tag_29:\n        /* \"#utility.yul\":4573:4577   */\n      0x00\n        /* \"#utility.yul\":4611:4613   */\n      0x20\n        /* \"#utility.yul\":4600:4609   */\n      dup3\n        /* \"#utility.yul\":4596:4614   */\n      add\n        /* \"#utility.yul\":4588:4614   */\n      swap1\n      pop\n        /* \"#utility.yul\":4660:4669   */\n      dup2\n        /* \"#utility.yul\":4654:4658   */\n      dup2\n        /* \"#utility.yul\":4650:4670   */\n      sub\n        /* \"#utility.yul\":4646:4647   */\n      0x00\n        /* \"#utility.yul\":4635:4644   */\n      dup4\n        /* \"#utility.yul\":4631:4648   */\n      add\n        /* \"#utility.yul\":4624:4671   */\n      mstore\n        /* \"#utility.yul\":4688:4819   */\n      tag_118\n        /* \"#utility.yul\":4814:4818   */\n      dup2\n        /* \"#utility.yul\":4688:4819   */\n      tag_89\n      jump\t// in\n    tag_118:\n        /* \"#utility.yul\":4680:4819   */\n      swap1\n      pop\n        /* \"#utility.yul\":4407:4826   */\n      swap2\n      swap1\n      pop\n      jump\t// out\n        /* \"#utility.yul\":4832:5251   */\n    tag_34:\n        /* \"#utility.yul\":4998:5002   */\n      0x00\n        /* \"#utility.yul\":5036:5038   */\n      0x20\n        /* \"#utility.yul\":5025:5034   */\n      dup3\n        /* \"#utility.yul\":5021:5039   */\n      add\n        /* \"#utility.yul\":5013:5039   */\n      swap1\n      pop\n        /* \"#utility.yul\":5085:5094   */\n      dup2\n        /* \"#utility.yul\":5079:5083   */\n      dup2\n        /* \"#utility.yul\":5075:5095   */\n      sub\n        /* \"#utility.yul\":5071:5072   */\n      0x00\n        /* \"#utility.yul\":5060:5069   */\n      dup4\n        /* \"#utility.yul\":5056:5073   */\n      add\n        /* \"#utility.yul\":5049:5096   */\n      mstore\n        /* \"#utility.yul\":5113:5244   */\n      tag_120\n        /* \"#utility.yul\":5239:5243   */\n      dup2\n        /* \"#utility.yul\":5113:5244   */\n      tag_94\n      jump\t// in\n    tag_120:\n        /* \"#utility.yul\":5105:5244   */\n      swap1\n      pop\n        /* \"#utility.yul\":4832:5251   */\n      swap2\n      swap1\n      pop\n      jump\t// out\n        /* \"#utility.yul\":5257:5676   */\n    tag_22:\n        /* \"#utility.yul\":5423:5427   */\n      0x00\n        /* \"#utility.yul\":5461:5463   */\n      0x20\n        /* \"#utility.yul\":5450:5459   */\n      dup3\n        /* \"#utility.yul\":5446:5464   */\n      add\n        /* \"#utility.yul\":5438:5464   */\n      swap1\n      pop\n        /* \"#utility.yul\":5510:5519   */\n      dup2\n        /* \"#utility.yul\":5504:5508   */\n      dup2\n        /* \"#utility.yul\":5500:5520   */\n      sub\n        /* \"#utility.yul\":5496:5497   */\n      0x00\n        /* \"#utility.yul\":5485:5494   */\n      dup4\n        /* \"#utility.yul\":5481:5498   */\n      add\n        /* \"#utility.yul\":5474:5521   */\n      mstore\n        /* \"#utility.yul\":5538:5669   */\n      tag_122\n        /* \"#utility.yul\":5664:5668   */\n      dup2\n        /* \"#utility.yul\":5538:5669   */\n      tag_99\n      jump\t// in\n    tag_122:\n        /* \"#utility.yul\":5530:5669   */\n      swap1\n      pop\n        /* \"#utility.yul\":5257:5676   */\n      swap2\n      swap1\n      pop\n      jump\t// out\n        /* \"#utility.yul\":5682:5904   */\n    tag_18:\n        /* \"#utility.yul\":5775:5779   */\n      0x00\n        /* \"#utility.yul\":5813:5815   */\n      0x20\n        /* \"#utility.yul\":5802:5811   */\n      dup3\n        /* \"#utility.yul\":5798:5816   */\n      add\n        /* \"#utility.yul\":5790:5816   */\n      swap1\n      pop\n        /* \"#utility.yul\":5826:5897   */\n      tag_124\n        /* \"#utility.yul\":5894:5895   */\n      0x00\n        /* \"#utility.yul\":5883:5892   */\n      dup4\n        /* \"#utility.yul\":5879:5896   */\n      add\n        /* \"#utility.yul\":5870:5876   */\n      dup5\n        /* \"#utility.yul\":5826:5897   */\n      tag_104\n      jump\t// in\n    tag_124:\n        /* \"#utility.yul\":5682:5904   */\n      swap3\n      swap2\n      pop\n      pop\n      jump\t// out\n        /* \"#utility.yul\":5991:6160   */\n    tag_86:\n        /* \"#utility.yul\":6075:6086   */\n      0x00\n        /* \"#utility.yul\":6109:6115   */\n      dup3\n        /* \"#utility.yul\":6104:6107   */\n      dup3\n        /* \"#utility.yul\":6097:6116   */\n      mstore\n        /* \"#utility.yul\":6149:6153   */\n      0x20\n        /* \"#utility.yul\":6144:6147   */\n      dup3\n        /* \"#utility.yul\":6140:6154   */\n      add\n        /* \"#utility.yul\":6125:6154   */\n      swap1\n      pop\n        /* \"#utility.yul\":5991:6160   */\n      swap3\n      swap2\n      pop\n      pop\n      jump\t// out\n        /* \"#utility.yul\":6166:6471   */\n    tag_51:\n        /* \"#utility.yul\":6206:6209   */\n      0x00\n        /* \"#utility.yul\":6225:6245   */\n      tag_129\n        /* \"#utility.yul\":6243:6244   */\n      dup3\n        /* \"#utility.yul\":6225:6245   */\n      tag_107\n      jump\t// in\n    tag_129:\n        /* \"#utility.yul\":6220:6245   */\n      swap2\n      pop\n        /* \"#utility.yul\":6259:6279   */\n      tag_130\n        /* \"#utility.yul\":6277:6278   */\n      dup4\n        /* \"#utility.yul\":6259:6279   */\n      tag_107\n      jump\t// in\n    tag_130:\n        /* \"#utility.yul\":6254:6279   */\n      swap3\n      pop\n        /* \"#utility.yul\":6413:6414   */\n      dup3\n        /* \"#utility.yul\":6345:6411   */\n      0xffffffffffffffffffffffffffffffffffffffffffffffffffffffffffffffff\n        /* \"#utility.yul\":6341:6415   */\n      sub\n        /* \"#utility.yul\":6338:6339   */\n      dup3\n        /* \"#utility.yul\":6335:6416   */\n      gt\n        /* \"#utility.yul\":6332:6439   */\n      iszero\n      tag_131\n      jumpi\n        /* \"#utility.yul\":6419:6437   */\n      tag_132\n      tag_133\n      jump\t// in\n    tag_132:\n        /* \"#utility.yul\":6332:6439   */\n    tag_131:\n        /* \"#utility.yul\":6463:6464   */\n      dup3\n        /* \"#utility.yul\":6460:6461   */\n      dup3\n        /* \"#utility.yul\":6456:6465   */\n      add\n        /* \"#utility.yul\":6449:6465   */\n      swap1\n      pop\n        /* \"#utility.yul\":6166:6471   */\n      swap3\n      swap2\n      pop\n      pop\n      jump\t// out\n        /* \"#utility.yul\":6477:6668   */\n    tag_31:\n        /* \"#utility.yul\":6517:6521   */\n      0x00\n        /* \"#utility.yul\":6537:6557   */\n      tag_135\n        /* \"#utility.yul\":6555:6556   */\n      dup3\n        /* \"#utility.yul\":6537:6557   */\n      tag_107\n      jump\t// in\n    tag_135:\n        /* \"#utility.yul\":6532:6557   */\n      swap2\n      pop\n        /* \"#utility.yul\":6571:6591   */\n      tag_136\n        /* \"#utility.yul\":6589:6590   */\n      dup4\n        /* \"#utility.yul\":6571:6591   */\n      tag_107\n      jump\t// in\n    tag_136:\n        /* \"#utility.yul\":6566:6591   */\n      swap3\n      pop\n        /* \"#utility.yul\":6610:6611   */\n      dup3\n        /* \"#utility.yul\":6607:6608   */\n      dup3\n        /* \"#utility.yul\":6604:6612   */\n      lt\n        /* \"#utility.yul\":6601:6635   */\n      iszero\n      tag_137\n      jumpi\n        /* \"#utility.yul\":6615:6633   */\n      tag_138\n      tag_133\n      jump\t// in\n    tag_138:\n        /* \"#utility.yul\":6601:6635   */\n    tag_137:\n        /* \"#utility.yul\":6660:6661   */\n      dup3\n        /* \"#utility.yul\":6657:6658   */\n      dup3\n        /* \"#utility.yul\":6653:6662   */\n      sub\n        /* \"#utility.yul\":6645:6662   */\n      swap1\n      pop\n        /* \"#utility.yul\":6477:6668   */\n      swap3\n      swap2\n      pop\n      pop\n      jump\t// out\n        /* \"#utility.yul\":6674:6770   */\n    tag_82:\n        /* \"#utility.yul\":6711:6718   */\n      0x00\n        /* \"#utility.yul\":6740:6764   */\n      tag_140\n        /* \"#utility.yul\":6758:6763   */\n      dup3\n        /* \"#utility.yul\":6740:6764   */\n      tag_141\n      jump\t// in\n    tag_140:\n        /* \"#utility.yul\":6729:6764   */\n      swap1\n      pop\n        /* \"#utility.yul\":6674:6770   */\n      swap2\n      swap1\n      pop\n      jump\t// out\n        /* \"#utility.yul\":6776:6866   */\n    tag_142:\n        /* \"#utility.yul\":6810:6817   */\n      0x00\n        /* \"#utility.yul\":6853:6858   */\n      dup2\n        /* \"#utility.yul\":6846:6859   */\n      iszero\n        /* \"#utility.yul\":6839:6860   */\n      iszero\n        /* \"#utility.yul\":6828:6860   */\n      swap1\n      pop\n        /* \"#utility.yul\":6776:6866   */\n      swap2\n      swap1\n      pop\n      jump\t// out\n        /* \"#utility.yul\":6872:6998   */\n    tag_141:\n        /* \"#utility.yul\":6909:6916   */\n      0x00\n        /* \"#utility.yul\":6949:6991   */\n      0xffffffffffffffffffffffffffffffffffffffff\n        /* \"#utility.yul\":6942:6947   */\n      dup3\n        /* \"#utility.yul\":6938:6992   */\n      and\n        /* \"#utility.yul\":6927:6992   */\n      swap1\n      pop\n        /* \"#utility.yul\":6872:6998   */\n      swap2\n      swap1\n      pop\n      jump\t// out\n        /* \"#utility.yul\":7004:7081   */\n    tag_107:\n        /* \"#utility.yul\":7041:7048   */\n      0x00\n        /* \"#utility.yul\":7070:7075   */\n      dup2\n        /* \"#utility.yul\":7059:7075   */\n      swap1\n      pop\n        /* \"#utility.yul\":7004:7081   */\n      swap2\n      swap1\n      pop\n      jump\t// out\n        /* \"#utility.yul\":7087:7267   */\n    tag_133:\n        /* \"#utility.yul\":7135:7212   */\n      0x4e487b7100000000000000000000000000000000000000000000000000000000\n        /* \"#utility.yul\":7132:7133   */\n      0x00\n        /* \"#utility.yul\":7125:7213   */\n      mstore\n        /* \"#utility.yul\":7232:7236   */\n      0x11\n        /* \"#utility.yul\":7229:7230   */\n      0x04\n        /* \"#utility.yul\":7222:7237   */\n      mstore\n        /* \"#utility.yul\":7256:7260   */\n      0x24\n        /* \"#utility.yul\":7253:7254   */\n      0x00\n        /* \"#utility.yul\":7246:7261   */\n      revert\n        /* \"#utility.yul\":7396:7513   */\n    tag_69:\n        /* \"#utility.yul\":7505:7506   */\n      0x00\n        /* \"#utility.yul\":7502:7503   */\n      dup1\n        /* \"#utility.yul\":7495:7507   */\n      revert\n        /* \"#utility.yul\":7519:7685   */\n    tag_88:\n        /* \"#utility.yul\":7659:7677   */\n      0x62616c616e6365206d757374203e203000000000000000000000000000000000\n        /* \"#utility.yul\":7655:7656   */\n      0x00\n        /* \"#utility.yul\":7647:7653   */\n      dup3\n        /* \"#utility.yul\":7643:7657   */\n      add\n        /* \"#utility.yul\":7636:7678   */\n      mstore\n        /* \"#utility.yul\":7519:7685   */\n      pop\n      jump\t// out\n        /* \"#utility.yul\":7691:7856   */\n    tag_93:\n        /* \"#utility.yul\":7831:7848   */\n      0x616d6f756e74206d757374203e20300000000000000000000000000000000000\n        /* \"#utility.yul\":7827:7828   */\n      0x00\n        /* \"#utility.yul\":7819:7825   */\n      dup3\n        /* \"#utility.yul\":7815:7829   */\n      add\n        /* \"#utility.yul\":7808:7849   */\n      mstore\n        /* \"#utility.yul\":7691:7856   */\n      pop\n      jump\t// out\n        /* \"#utility.yul\":7862:8021   */\n    tag_98:\n        /* \"#utility.yul\":8002:8013   */\n      0x6d757374203e3d20300000000000000000000000000000000000000000000000\n        /* \"#utility.yul\":7998:7999   */\n      0x00\n        /* \"#utility.yul\":7990:7996   */\n      dup3\n        /* \"#utility.yul\":7986:8000   */\n      add\n        /* \"#utility.yul\":7979:8014   */\n      mstore\n        /* \"#utility.yul\":7862:8021   */\n      pop\n      jump\t// out\n        /* \"#utility.yul\":8027:8208   */\n    tag_103:\n        /* \"#utility.yul\":8167:8200   */\n      0x5265656e7472616e637947756172643a207265656e7472616e742063616c6c00\n        /* \"#utility.yul\":8163:8164   */\n      0x00\n        /* \"#utility.yul\":8155:8161   */\n      dup3\n        /* \"#utility.yul\":8151:8165   */\n      add\n        /* \"#utility.yul\":8144:8201   */\n      mstore\n        /* \"#utility.yul\":8027:8208   */\n      pop\n      jump\t// out\n        /* \"#utility.yul\":8214:8336   */\n    tag_57:\n        /* \"#utility.yul\":8287:8311   */\n      tag_155\n        /* \"#utility.yul\":8305:8310   */\n      dup2\n        /* \"#utility.yul\":8287:8311   */\n      tag_82\n      jump\t// in\n    tag_155:\n        /* \"#utility.yul\":8280:8285   */\n      dup2\n        /* \"#utility.yul\":8277:8312   */\n      eq\n        /* \"#utility.yul\":8267:8330   */\n      tag_156\n      jumpi\n        /* \"#utility.yul\":8326:8327   */\n      0x00\n        /* \"#utility.yul\":8323:8324   */\n      dup1\n        /* \"#utility.yul\":8316:8328   */\n      revert\n        /* \"#utility.yul\":8267:8330   */\n    tag_156:\n        /* \"#utility.yul\":8214:8336   */\n      pop\n      jump\t// out\n        /* \"#utility.yul\":8342:8458   */\n    tag_61:\n        /* \"#utility.yul\":8412:8433   */\n      tag_158\n        /* \"#utility.yul\":8427:8432   */\n      dup2\n        /* \"#utility.yul\":8412:8433   */\n      tag_142\n      jump\t// in\n    tag_158:\n        /* \"#utility.yul\":8405:8410   */\n      dup2\n        /* \"#utility.yul\":8402:8434   */\n      eq\n        /* \"#utility.yul\":8392:8452   */\n      tag_159\n      jumpi\n        /* \"#utility.yul\":8448:8449   */\n      0x00\n        /* \"#utility.yul\":8445:8446   */\n      dup1\n        /* \"#utility.yul\":8438:8450   */\n      revert\n        /* \"#utility.yul\":8392:8452   */\n    tag_159:\n        /* \"#utility.yul\":8342:8458   */\n      pop\n      jump\t// out\n        /* \"#utility.yul\":8464:8586   */\n    tag_65:\n        /* \"#utility.yul\":8537:8561   */\n      tag_161\n        /* \"#utility.yul\":8555:8560   */\n      dup2\n        /* \"#utility.yul\":8537:8561   */\n      tag_107\n      jump\t// in\n    tag_161:\n        /* \"#utility.yul\":8530:8535   */\n      dup2\n        /* \"#utility.yul\":8527:8562   */\n      eq\n        /* \"#utility.yul\":8517:8580   */\n      tag_162\n      jumpi\n        /* \"#utility.yul\":8576:8577   */\n      0x00\n        /* \"#utility.yul\":8573:8574   */\n      dup1\n        /* \"#utility.yul\":8566:8578   */\n      revert\n        /* \"#utility.yul\":8517:8580   */\n    tag_162:\n        /* \"#utility.yul\":8464:8586   */\n      pop\n      jump\t// out\n\n    auxdata: 0xa26469706673582212202e3f04e1373791565b212b547da4b4cce147841232cfef68a6412412772ae60a64736f6c63430008070033\n}\n",
				"bytecode": {
					"linkReferences": {},
					"object": "608060405234801561001057600080fd5b50604051610a75380380610a7583398181016040528101906100329190610096565b600160008190555080600160006101000a81548173ffffffffffffffffffffffffffffffffffffffff021916908373ffffffffffffffffffffffffffffffffffffffff16021790555050610111565b600081519050610090816100fa565b92915050565b6000602082840312156100ac576100ab6100f5565b5b60006100ba84828501610081565b91505092915050565b60006100ce826100d5565b9050919050565b600073ffffffffffffffffffffffffffffffffffffffff82169050919050565b600080fd5b610103816100c3565b811461010e57600080fd5b50565b610955806101206000396000f3fe608060405234801561001057600080fd5b50600436106100415760003560e01c80632e1a7d4d146100465780633104562b14610062578063e3d670d71461007e575b600080fd5b610060600480360381019061005b919061054d565b6100ae565b005b61007c6004803603810190610077919061054d565b610360565b005b610098600480360381019061009391906104f3565b61046b565b6040516100a59190610704565b60405180910390f35b600260005414156100f4576040517f08c379a00000000000000000000000000000000000000000000000000000000081526004016100eb906106e4565b60405180910390fd5b60026000819055506000600260003373ffffffffffffffffffffffffffffffffffffffff1673ffffffffffffffffffffffffffffffffffffffff168152602001908152602001600020541161017e576040517f08c379a000000000000000000000000000000000000000000000000000000000815260040161017590610684565b60405180910390fd5b600081116101c1576040517f08c379a00000000000000000000000000000000000000000000000000000000081526004016101b8906106a4565b60405180910390fd5b600081600260003373ffffffffffffffffffffffffffffffffffffffff1673ffffffffffffffffffffffffffffffffffffffff1681526020019081526020016000205461020e9190610786565b101561024f576040517f08c379a0000000000000000000000000000000000000000000000000000000008152600401610246906106c4565b60405180910390fd5b600160009054906101000a900473ffffffffffffffffffffffffffffffffffffffff1673ffffffffffffffffffffffffffffffffffffffff1663a9059cbb33836040518363ffffffff1660e01b81526004016102ac92919061065b565b602060405180830381600087803b1580156102c657600080fd5b505af11580156102da573d6000803e3d6000fd5b505050506040513d601f19601f820116820180604052508101906102fe9190610520565b5080600260003373ffffffffffffffffffffffffffffffffffffffff1673ffffffffffffffffffffffffffffffffffffffff168152602001908152602001600020600082825461034e9190610786565b92505081905550600160008190555050565b600160009054906101000a900473ffffffffffffffffffffffffffffffffffffffff1673ffffffffffffffffffffffffffffffffffffffff166323b872dd3330846040518463ffffffff1660e01b81526004016103bf93929190610624565b602060405180830381600087803b1580156103d957600080fd5b505af11580156103ed573d6000803e3d6000fd5b505050506040513d601f19601f820116820180604052508101906104119190610520565b5080600260003373ffffffffffffffffffffffffffffffffffffffff1673ffffffffffffffffffffffffffffffffffffffff16815260200190815260200160002060008282546104619190610730565b9250508190555050565b6000600260008373ffffffffffffffffffffffffffffffffffffffff1673ffffffffffffffffffffffffffffffffffffffff168152602001908152602001600020549050919050565b6000813590506104c3816108da565b92915050565b6000815190506104d8816108f1565b92915050565b6000813590506104ed81610908565b92915050565b60006020828403121561050957610508610831565b5b6000610517848285016104b4565b91505092915050565b60006020828403121561053657610535610831565b5b6000610544848285016104c9565b91505092915050565b60006020828403121561056357610562610831565b5b6000610571848285016104de565b91505092915050565b610583816107ba565b82525050565b600061059660108361071f565b91506105a182610836565b602082019050919050565b60006105b9600f8361071f565b91506105c48261085f565b602082019050919050565b60006105dc60098361071f565b91506105e782610888565b602082019050919050565b60006105ff601f8361071f565b915061060a826108b1565b602082019050919050565b61061e816107f8565b82525050565b6000606082019050610639600083018661057a565b610646602083018561057a565b6106536040830184610615565b949350505050565b6000604082019050610670600083018561057a565b61067d6020830184610615565b9392505050565b6000602082019050818103600083015261069d81610589565b9050919050565b600060208201905081810360008301526106bd816105ac565b9050919050565b600060208201905081810360008301526106dd816105cf565b9050919050565b600060208201905081810360008301526106fd816105f2565b9050919050565b60006020820190506107196000830184610615565b92915050565b600082825260208201905092915050565b600061073b826107f8565b9150610746836107f8565b9250827fffffffffffffffffffffffffffffffffffffffffffffffffffffffffffffffff0382111561077b5761077a610802565b5b828201905092915050565b6000610791826107f8565b915061079c836107f8565b9250828210156107af576107ae610802565b5b828203905092915050565b60006107c5826107d8565b9050919050565b60008115159050919050565b600073ffffffffffffffffffffffffffffffffffffffff82169050919050565b6000819050919050565b7f4e487b7100000000000000000000000000000000000000000000000000000000600052601160045260246000fd5b600080fd5b7f62616c616e6365206d757374203e203000000000000000000000000000000000600082015250565b7f616d6f756e74206d757374203e20300000000000000000000000000000000000600082015250565b7f6d757374203e3d20300000000000000000000000000000000000000000000000600082015250565b7f5265656e7472616e637947756172643a207265656e7472616e742063616c6c00600082015250565b6108e3816107ba565b81146108ee57600080fd5b50565b6108fa816107cc565b811461090557600080fd5b50565b610911816107f8565b811461091c57600080fd5b5056fea26469706673582212202e3f04e1373791565b212b547da4b4cce147841232cfef68a6412412772ae60a64736f6c63430008070033",
					"opcodes": "PUSH1 0x80 PUSH1 0x40 MSTORE CALLVALUE DUP1 ISZERO PUSH2 0x10 JUMPI PUSH1 0x0 DUP1 REVERT JUMPDEST POP PUSH1 0x40 MLOAD PUSH2 0xA75 CODESIZE SUB DUP1 PUSH2 0xA75 DUP4 CODECOPY DUP2 DUP2 ADD PUSH1 0x40 MSTORE DUP2 ADD SWAP1 PUSH2 0x32 SWAP2 SWAP1 PUSH2 0x96 JUMP JUMPDEST PUSH1 0x1 PUSH1 0x0 DUP2 SWAP1 SSTORE POP DUP1 PUSH1 0x1 PUSH1 0x0 PUSH2 0x100 EXP DUP2 SLOAD DUP2 PUSH20 0xFFFFFFFFFFFFFFFFFFFFFFFFFFFFFFFFFFFFFFFF MUL NOT AND SWAP1 DUP4 PUSH20 0xFFFFFFFFFFFFFFFFFFFFFFFFFFFFFFFFFFFFFFFF AND MUL OR SWAP1 SSTORE POP POP PUSH2 0x111 JUMP JUMPDEST PUSH1 0x0 DUP2 MLOAD SWAP1 POP PUSH2 0x90 DUP2 PUSH2 0xFA JUMP JUMPDEST SWAP3 SWAP2 POP POP JUMP JUMPDEST PUSH1 0x0 PUSH1 0x20 DUP3 DUP5 SUB SLT ISZERO PUSH2 0xAC JUMPI PUSH2 0xAB PUSH2 0xF5 JUMP JUMPDEST JUMPDEST PUSH1 0x0 PUSH2 0xBA DUP5 DUP3 DUP6 ADD PUSH2 0x81 JUMP JUMPDEST SWAP2 POP POP SWAP3 SWAP2 POP POP JUMP JUMPDEST PUSH1 0x0 PUSH2 0xCE DUP3 PUSH2 0xD5 JUMP JUMPDEST SWAP1 POP SWAP2 SWAP1 POP JUMP JUMPDEST PUSH1 0x0 PUSH20 0xFFFFFFFFFFFFFFFFFFFFFFFFFFFFFFFFFFFFFFFF DUP3 AND SWAP1 POP SWAP2 SWAP1 POP JUMP JUMPDEST PUSH1 0x0 DUP1 REVERT JUMPDEST PUSH2 0x103 DUP2 PUSH2 0xC3 JUMP JUMPDEST DUP2 EQ PUSH2 0x10E JUMPI PUSH1 0x0 DUP1 REVERT JUMPDEST POP JUMP JUMPDEST PUSH2 0x955 DUP1 PUSH2 0x120 PUSH1 0x0 CODECOPY PUSH1 0x0 RETURN INVALID PUSH1 0x80 PUSH1 0x40 MSTORE CALLVALUE DUP1 ISZERO PUSH2 0x10 JUMPI PUSH1 0x0 DUP1 REVERT JUMPDEST POP PUSH1 0x4 CALLDATASIZE LT PUSH2 0x41 JUMPI PUSH1 0x0 CALLDATALOAD PUSH1 0xE0 SHR DUP1 PUSH4 0x2E1A7D4D EQ PUSH2 0x46 JUMPI DUP1 PUSH4 0x3104562B EQ PUSH2 0x62 JUMPI DUP1 PUSH4 0xE3D670D7 EQ PUSH2 0x7E JUMPI JUMPDEST PUSH1 0x0 DUP1 REVERT JUMPDEST PUSH2 0x60 PUSH1 0x4 DUP1 CALLDATASIZE SUB DUP2 ADD SWAP1 PUSH2 0x5B SWAP2 SWAP1 PUSH2 0x54D JUMP JUMPDEST PUSH2 0xAE JUMP JUMPDEST STOP JUMPDEST PUSH2 0x7C PUSH1 0x4 DUP1 CALLDATASIZE SUB DUP2 ADD SWAP1 PUSH2 0x77 SWAP2 SWAP1 PUSH2 0x54D JUMP JUMPDEST PUSH2 0x360 JUMP JUMPDEST STOP JUMPDEST PUSH2 0x98 PUSH1 0x4 DUP1 CALLDATASIZE SUB DUP2 ADD SWAP1 PUSH2 0x93 SWAP2 SWAP1 PUSH2 0x4F3 JUMP JUMPDEST PUSH2 0x46B JUMP JUMPDEST PUSH1 0x40 MLOAD PUSH2 0xA5 SWAP2 SWAP1 PUSH2 0x704 JUMP JUMPDEST PUSH1 0x40 MLOAD DUP1 SWAP2 SUB SWAP1 RETURN JUMPDEST PUSH1 0x2 PUSH1 0x0 SLOAD EQ ISZERO PUSH2 0xF4 JUMPI PUSH1 0x40 MLOAD PUSH32 0x8C379A000000000000000000000000000000000000000000000000000000000 DUP2 MSTORE PUSH1 0x4 ADD PUSH2 0xEB SWAP1 PUSH2 0x6E4 JUMP JUMPDEST PUSH1 0x40 MLOAD DUP1 SWAP2 SUB SWAP1 REVERT JUMPDEST PUSH1 0x2 PUSH1 0x0 DUP2 SWAP1 SSTORE POP PUSH1 0x0 PUSH1 0x2 PUSH1 0x0 CALLER PUSH20 0xFFFFFFFFFFFFFFFFFFFFFFFFFFFFFFFFFFFFFFFF AND PUSH20 0xFFFFFFFFFFFFFFFFFFFFFFFFFFFFFFFFFFFFFFFF AND DUP2 MSTORE PUSH1 0x20 ADD SWAP1 DUP2 MSTORE PUSH1 0x20 ADD PUSH1 0x0 KECCAK256 SLOAD GT PUSH2 0x17E JUMPI PUSH1 0x40 MLOAD PUSH32 0x8C379A000000000000000000000000000000000000000000000000000000000 DUP2 MSTORE PUSH1 0x4 ADD PUSH2 0x175 SWAP1 PUSH2 0x684 JUMP JUMPDEST PUSH1 0x40 MLOAD DUP1 SWAP2 SUB SWAP1 REVERT JUMPDEST PUSH1 0x0 DUP2 GT PUSH2 0x1C1 JUMPI PUSH1 0x40 MLOAD PUSH32 0x8C379A000000000000000000000000000000000000000000000000000000000 DUP2 MSTORE PUSH1 0x4 ADD PUSH2 0x1B8 SWAP1 PUSH2 0x6A4 JUMP JUMPDEST PUSH1 0x40 MLOAD DUP1 SWAP2 SUB SWAP1 REVERT JUMPDEST PUSH1 0x0 DUP2 PUSH1 0x2 PUSH1 0x0 CALLER PUSH20 0xFFFFFFFFFFFFFFFFFFFFFFFFFFFFFFFFFFFFFFFF AND PUSH20 0xFFFFFFFFFFFFFFFFFFFFFFFFFFFFFFFFFFFFFFFF AND DUP2 MSTORE PUSH1 0x20 ADD SWAP1 DUP2 MSTORE PUSH1 0x20 ADD PUSH1 0x0 KECCAK256 SLOAD PUSH2 0x20E SWAP2 SWAP1 PUSH2 0x786 JUMP JUMPDEST LT ISZERO PUSH2 0x24F JUMPI PUSH1 0x40 MLOAD PUSH32 0x8C379A000000000000000000000000000000000000000000000000000000000 DUP2 MSTORE PUSH1 0x4 ADD PUSH2 0x246 SWAP1 PUSH2 0x6C4 JUMP JUMPDEST PUSH1 0x40 MLOAD DUP1 SWAP2 SUB SWAP1 REVERT JUMPDEST PUSH1 0x1 PUSH1 0x0 SWAP1 SLOAD SWAP1 PUSH2 0x100 EXP SWAP1 DIV PUSH20 0xFFFFFFFFFFFFFFFFFFFFFFFFFFFFFFFFFFFFFFFF AND PUSH20 0xFFFFFFFFFFFFFFFFFFFFFFFFFFFFFFFFFFFFFFFF AND PUSH4 0xA9059CBB CALLER DUP4 PUSH1 0x40 MLOAD DUP4 PUSH4 0xFFFFFFFF AND PUSH1 0xE0 SHL DUP2 MSTORE PUSH1 0x4 ADD PUSH2 0x2AC SWAP3 SWAP2 SWAP1 PUSH2 0x65B JUMP JUMPDEST PUSH1 0x20 PUSH1 0x40 MLOAD DUP1 DUP4 SUB DUP2 PUSH1 0x0 DUP8 DUP1 EXTCODESIZE ISZERO DUP1 ISZERO PUSH2 0x2C6 JUMPI PUSH1 0x0 DUP1 REVERT JUMPDEST POP GAS CALL ISZERO DUP1 ISZERO PUSH2 0x2DA JUMPI RETURNDATASIZE PUSH1 0x0 DUP1 RETURNDATACOPY RETURNDATASIZE PUSH1 0x0 REVERT JUMPDEST POP POP POP POP PUSH1 0x40 MLOAD RETURNDATASIZE PUSH1 0x1F NOT PUSH1 0x1F DUP3 ADD AND DUP3 ADD DUP1 PUSH1 0x40 MSTORE POP DUP2 ADD SWAP1 PUSH2 0x2FE SWAP2 SWAP1 PUSH2 0x520 JUMP JUMPDEST POP DUP1 PUSH1 0x2 PUSH1 0x0 CALLER PUSH20 0xFFFFFFFFFFFFFFFFFFFFFFFFFFFFFFFFFFFFFFFF AND PUSH20 0xFFFFFFFFFFFFFFFFFFFFFFFFFFFFFFFFFFFFFFFF AND DUP2 MSTORE PUSH1 0x20 ADD SWAP1 DUP2 MSTORE PUSH1 0x20 ADD PUSH1 0x0 KECCAK256 PUSH1 0x0 DUP3 DUP3 SLOAD PUSH2 0x34E SWAP2 SWAP1 PUSH2 0x786 JUMP JUMPDEST SWAP3 POP POP DUP2 SWAP1 SSTORE POP PUSH1 0x1 PUSH1 0x0 DUP2 SWAP1 SSTORE POP POP JUMP JUMPDEST PUSH1 0x1 PUSH1 0x0 SWAP1 SLOAD SWAP1 PUSH2 0x100 EXP SWAP1 DIV PUSH20 0xFFFFFFFFFFFFFFFFFFFFFFFFFFFFFFFFFFFFFFFF AND PUSH20 0xFFFFFFFFFFFFFFFFFFFFFFFFFFFFFFFFFFFFFFFF AND PUSH4 0x23B872DD CALLER ADDRESS DUP5 PUSH1 0x40 MLOAD DUP5 PUSH4 0xFFFFFFFF AND PUSH1 0xE0 SHL DUP2 MSTORE PUSH1 0x4 ADD PUSH2 0x3BF SWAP4 SWAP3 SWAP2 SWAP1 PUSH2 0x624 JUMP JUMPDEST PUSH1 0x20 PUSH1 0x40 MLOAD DUP1 DUP4 SUB DUP2 PUSH1 0x0 DUP8 DUP1 EXTCODESIZE ISZERO DUP1 ISZERO PUSH2 0x3D9 JUMPI PUSH1 0x0 DUP1 REVERT JUMPDEST POP GAS CALL ISZERO DUP1 ISZERO PUSH2 0x3ED JUMPI RETURNDATASIZE PUSH1 0x0 DUP1 RETURNDATACOPY RETURNDATASIZE PUSH1 0x0 REVERT JUMPDEST POP POP POP POP PUSH1 0x40 MLOAD RETURNDATASIZE PUSH1 0x1F NOT PUSH1 0x1F DUP3 ADD AND DUP3 ADD DUP1 PUSH1 0x40 MSTORE POP DUP2 ADD SWAP1 PUSH2 0x411 SWAP2 SWAP1 PUSH2 0x520 JUMP JUMPDEST POP DUP1 PUSH1 0x2 PUSH1 0x0 CALLER PUSH20 0xFFFFFFFFFFFFFFFFFFFFFFFFFFFFFFFFFFFFFFFF AND PUSH20 0xFFFFFFFFFFFFFFFFFFFFFFFFFFFFFFFFFFFFFFFF AND DUP2 MSTORE PUSH1 0x20 ADD SWAP1 DUP2 MSTORE PUSH1 0x20 ADD PUSH1 0x0 KECCAK256 PUSH1 0x0 DUP3 DUP3 SLOAD PUSH2 0x461 SWAP2 SWAP1 PUSH2 0x730 JUMP JUMPDEST SWAP3 POP POP DUP2 SWAP1 SSTORE POP POP JUMP JUMPDEST PUSH1 0x0 PUSH1 0x2 PUSH1 0x0 DUP4 PUSH20 0xFFFFFFFFFFFFFFFFFFFFFFFFFFFFFFFFFFFFFFFF AND PUSH20 0xFFFFFFFFFFFFFFFFFFFFFFFFFFFFFFFFFFFFFFFF AND DUP2 MSTORE PUSH1 0x20 ADD SWAP1 DUP2 MSTORE PUSH1 0x20 ADD PUSH1 0x0 KECCAK256 SLOAD SWAP1 POP SWAP2 SWAP1 POP JUMP JUMPDEST PUSH1 0x0 DUP2 CALLDATALOAD SWAP1 POP PUSH2 0x4C3 DUP2 PUSH2 0x8DA JUMP JUMPDEST SWAP3 SWAP2 POP POP JUMP JUMPDEST PUSH1 0x0 DUP2 MLOAD SWAP1 POP PUSH2 0x4D8 DUP2 PUSH2 0x8F1 JUMP JUMPDEST SWAP3 SWAP2 POP POP JUMP JUMPDEST PUSH1 0x0 DUP2 CALLDATALOAD SWAP1 POP PUSH2 0x4ED DUP2 PUSH2 0x908 JUMP JUMPDEST SWAP3 SWAP2 POP POP JUMP JUMPDEST PUSH1 0x0 PUSH1 0x20 DUP3 DUP5 SUB SLT ISZERO PUSH2 0x509 JUMPI PUSH2 0x508 PUSH2 0x831 JUMP JUMPDEST JUMPDEST PUSH1 0x0 PUSH2 0x517 DUP5 DUP3 DUP6 ADD PUSH2 0x4B4 JUMP JUMPDEST SWAP2 POP POP SWAP3 SWAP2 POP POP JUMP JUMPDEST PUSH1 0x0 PUSH1 0x20 DUP3 DUP5 SUB SLT ISZERO PUSH2 0x536 JUMPI PUSH2 0x535 PUSH2 0x831 JUMP JUMPDEST JUMPDEST PUSH1 0x0 PUSH2 0x544 DUP5 DUP3 DUP6 ADD PUSH2 0x4C9 JUMP JUMPDEST SWAP2 POP POP SWAP3 SWAP2 POP POP JUMP JUMPDEST PUSH1 0x0 PUSH1 0x20 DUP3 DUP5 SUB SLT ISZERO PUSH2 0x563 JUMPI PUSH2 0x562 PUSH2 0x831 JUMP JUMPDEST JUMPDEST PUSH1 0x0 PUSH2 0x571 DUP5 DUP3 DUP6 ADD PUSH2 0x4DE JUMP JUMPDEST SWAP2 POP POP SWAP3 SWAP2 POP POP JUMP JUMPDEST PUSH2 0x583 DUP2 PUSH2 0x7BA JUMP JUMPDEST DUP3 MSTORE POP POP JUMP JUMPDEST PUSH1 0x0 PUSH2 0x596 PUSH1 0x10 DUP4 PUSH2 0x71F JUMP JUMPDEST SWAP2 POP PUSH2 0x5A1 DUP3 PUSH2 0x836 JUMP JUMPDEST PUSH1 0x20 DUP3 ADD SWAP1 POP SWAP2 SWAP1 POP JUMP JUMPDEST PUSH1 0x0 PUSH2 0x5B9 PUSH1 0xF DUP4 PUSH2 0x71F JUMP JUMPDEST SWAP2 POP PUSH2 0x5C4 DUP3 PUSH2 0x85F JUMP JUMPDEST PUSH1 0x20 DUP3 ADD SWAP1 POP SWAP2 SWAP1 POP JUMP JUMPDEST PUSH1 0x0 PUSH2 0x5DC PUSH1 0x9 DUP4 PUSH2 0x71F JUMP JUMPDEST SWAP2 POP PUSH2 0x5E7 DUP3 PUSH2 0x888 JUMP JUMPDEST PUSH1 0x20 DUP3 ADD SWAP1 POP SWAP2 SWAP1 POP JUMP JUMPDEST PUSH1 0x0 PUSH2 0x5FF PUSH1 0x1F DUP4 PUSH2 0x71F JUMP JUMPDEST SWAP2 POP PUSH2 0x60A DUP3 PUSH2 0x8B1 JUMP JUMPDEST PUSH1 0x20 DUP3 ADD SWAP1 POP SWAP2 SWAP1 POP JUMP JUMPDEST PUSH2 0x61E DUP2 PUSH2 0x7F8 JUMP JUMPDEST DUP3 MSTORE POP POP JUMP JUMPDEST PUSH1 0x0 PUSH1 0x60 DUP3 ADD SWAP1 POP PUSH2 0x639 PUSH1 0x0 DUP4 ADD DUP7 PUSH2 0x57A JUMP JUMPDEST PUSH2 0x646 PUSH1 0x20 DUP4 ADD DUP6 PUSH2 0x57A JUMP JUMPDEST PUSH2 0x653 PUSH1 0x40 DUP4 ADD DUP5 PUSH2 0x615 JUMP JUMPDEST SWAP5 SWAP4 POP POP POP POP JUMP JUMPDEST PUSH1 0x0 PUSH1 0x40 DUP3 ADD SWAP1 POP PUSH2 0x670 PUSH1 0x0 DUP4 ADD DUP6 PUSH2 0x57A JUMP JUMPDEST PUSH2 0x67D PUSH1 0x20 DUP4 ADD DUP5 PUSH2 0x615 JUMP JUMPDEST SWAP4 SWAP3 POP POP POP JUMP JUMPDEST PUSH1 0x0 PUSH1 0x20 DUP3 ADD SWAP1 POP DUP2 DUP2 SUB PUSH1 0x0 DUP4 ADD MSTORE PUSH2 0x69D DUP2 PUSH2 0x589 JUMP JUMPDEST SWAP1 POP SWAP2 SWAP1 POP JUMP JUMPDEST PUSH1 0x0 PUSH1 0x20 DUP3 ADD SWAP1 POP DUP2 DUP2 SUB PUSH1 0x0 DUP4 ADD MSTORE PUSH2 0x6BD DUP2 PUSH2 0x5AC JUMP JUMPDEST SWAP1 POP SWAP2 SWAP1 POP JUMP JUMPDEST PUSH1 0x0 PUSH1 0x20 DUP3 ADD SWAP1 POP DUP2 DUP2 SUB PUSH1 0x0 DUP4 ADD MSTORE PUSH2 0x6DD DUP2 PUSH2 0x5CF JUMP JUMPDEST SWAP1 POP SWAP2 SWAP1 POP JUMP JUMPDEST PUSH1 0x0 PUSH1 0x20 DUP3 ADD SWAP1 POP DUP2 DUP2 SUB PUSH1 0x0 DUP4 ADD MSTORE PUSH2 0x6FD DUP2 PUSH2 0x5F2 JUMP JUMPDEST SWAP1 POP SWAP2 SWAP1 POP JUMP JUMPDEST PUSH1 0x0 PUSH1 0x20 DUP3 ADD SWAP1 POP PUSH2 0x719 PUSH1 0x0 DUP4 ADD DUP5 PUSH2 0x615 JUMP JUMPDEST SWAP3 SWAP2 POP POP JUMP JUMPDEST PUSH1 0x0 DUP3 DUP3 MSTORE PUSH1 0x20 DUP3 ADD SWAP1 POP SWAP3 SWAP2 POP POP JUMP JUMPDEST PUSH1 0x0 PUSH2 0x73B DUP3 PUSH2 0x7F8 JUMP JUMPDEST SWAP2 POP PUSH2 0x746 DUP4 PUSH2 0x7F8 JUMP JUMPDEST SWAP3 POP DUP3 PUSH32 0xFFFFFFFFFFFFFFFFFFFFFFFFFFFFFFFFFFFFFFFFFFFFFFFFFFFFFFFFFFFFFFFF SUB DUP3 GT ISZERO PUSH2 0x77B JUMPI PUSH2 0x77A PUSH2 0x802 JUMP JUMPDEST JUMPDEST DUP3 DUP3 ADD SWAP1 POP SWAP3 SWAP2 POP POP JUMP JUMPDEST PUSH1 0x0 PUSH2 0x791 DUP3 PUSH2 0x7F8 JUMP JUMPDEST SWAP2 POP PUSH2 0x79C DUP4 PUSH2 0x7F8 JUMP JUMPDEST SWAP3 POP DUP3 DUP3 LT ISZERO PUSH2 0x7AF JUMPI PUSH2 0x7AE PUSH2 0x802 JUMP JUMPDEST JUMPDEST DUP3 DUP3 SUB SWAP1 POP SWAP3 SWAP2 POP POP JUMP JUMPDEST PUSH1 0x0 PUSH2 0x7C5 DUP3 PUSH2 0x7D8 JUMP JUMPDEST SWAP1 POP SWAP2 SWAP1 POP JUMP JUMPDEST PUSH1 0x0 DUP2 ISZERO ISZERO SWAP1 POP SWAP2 SWAP1 POP JUMP JUMPDEST PUSH1 0x0 PUSH20 0xFFFFFFFFFFFFFFFFFFFFFFFFFFFFFFFFFFFFFFFF DUP3 AND SWAP1 POP SWAP2 SWAP1 POP JUMP JUMPDEST PUSH1 0x0 DUP2 SWAP1 POP SWAP2 SWAP1 POP JUMP JUMPDEST PUSH32 0x4E487B7100000000000000000000000000000000000000000000000000000000 PUSH1 0x0 MSTORE PUSH1 0x11 PUSH1 0x4 MSTORE PUSH1 0x24 PUSH1 0x0 REVERT JUMPDEST PUSH1 0x0 DUP1 REVERT JUMPDEST PUSH32 0x62616C616E6365206D757374203E203000000000000000000000000000000000 PUSH1 0x0 DUP3 ADD MSTORE POP JUMP JUMPDEST PUSH32 0x616D6F756E74206D757374203E20300000000000000000000000000000000000 PUSH1 0x0 DUP3 ADD MSTORE POP JUMP JUMPDEST PUSH32 0x6D757374203E3D20300000000000000000000000000000000000000000000000 PUSH1 0x0 DUP3 ADD MSTORE POP JUMP JUMPDEST PUSH32 0x5265656E7472616E637947756172643A207265656E7472616E742063616C6C00 PUSH1 0x0 DUP3 ADD MSTORE POP JUMP JUMPDEST PUSH2 0x8E3 DUP2 PUSH2 0x7BA JUMP JUMPDEST DUP2 EQ PUSH2 0x8EE JUMPI PUSH1 0x0 DUP1 REVERT JUMPDEST POP JUMP JUMPDEST PUSH2 0x8FA DUP2 PUSH2 0x7CC JUMP JUMPDEST DUP2 EQ PUSH2 0x905 JUMPI PUSH1 0x0 DUP1 REVERT JUMPDEST POP JUMP JUMPDEST PUSH2 0x911 DUP2 PUSH2 0x7F8 JUMP JUMPDEST DUP2 EQ PUSH2 0x91C JUMPI PUSH1 0x0 DUP1 REVERT JUMPDEST POP JUMP INVALID LOG2 PUSH5 0x6970667358 0x22 SLT KECCAK256 0x2E EXTCODEHASH DIV 0xE1 CALLDATACOPY CALLDATACOPY SWAP2 JUMP JUMPDEST 0x21 0x2B SLOAD PUSH30 0xA4B4CCE147841232CFEF68A6412412772AE60A64736F6C63430008070033 "
				},
				"gasEstimates": {
					"creation": {
						"codeDepositCost": "477800",
						"executionCost": "infinite",
						"totalCost": "infinite"
					},
					"external": {
						"balance(address)": "2863",
						"deposite(uint256)": "infinite",
						"withdraw(uint256)": "infinite"
					}
				},
				"methodIdentifiers": {
					"balance(address)": "e3d670d7",
					"deposite(uint256)": "3104562b",
					"withdraw(uint256)": "2e1a7d4d"
				}
			},
			"userdoc": {
				"kind": "user",
				"methods": {},
				"version": 1
			}
		}
	}
}