{
	"contract/shit.sol": {
		"Shit": {
			"abi": [
				{
					"inputs": [],
					"stateMutability": "nonpayable",
					"type": "constructor"
				},
				{
					"anonymous": false,
					"inputs": [
						{
							"indexed": true,
							"internalType": "address",
							"name": "owner",
							"type": "address"
						},
						{
							"indexed": true,
							"internalType": "address",
							"name": "spender",
							"type": "address"
						},
						{
							"indexed": false,
							"internalType": "uint256",
							"name": "value",
							"type": "uint256"
						}
					],
					"name": "Approval",
					"type": "event"
				},
				{
					"anonymous": false,
					"inputs": [
						{
							"indexed": false,
							"internalType": "uint256",
							"name": "amount",
							"type": "uint256"
						}
					],
					"name": "Issue",
					"type": "event"
				},
				{
					"anonymous": false,
					"inputs": [
						{
							"indexed": true,
							"internalType": "address",
							"name": "from",
							"type": "address"
						},
						{
							"indexed": true,
							"internalType": "address",
							"name": "to",
							"type": "address"
						},
						{
							"indexed": false,
							"internalType": "uint256",
							"name": "value",
							"type": "uint256"
						}
					],
					"name": "Transfer",
					"type": "event"
				},
				{
					"inputs": [],
					"name": "_owner",
					"outputs": [
						{
							"internalType": "address",
							"name": "",
							"type": "address"
						}
					],
					"stateMutability": "view",
					"type": "function"
				},
				{
					"inputs": [
						{
							"internalType": "address",
							"name": "owner",
							"type": "address"
						},
						{
							"internalType": "address",
							"name": "spender",
							"type": "address"
						}
					],
					"name": "allowance",
					"outputs": [
						{
							"internalType": "uint256",
							"name": "",
							"type": "uint256"
						}
					],
					"stateMutability": "view",
					"type": "function"
				},
				{
					"inputs": [
						{
							"internalType": "address",
							"name": "spender",
							"type": "address"
						},
						{
							"internalType": "uint256",
							"name": "amount",
							"type": "uint256"
						}
					],
					"name": "approve",
					"outputs": [
						{
							"internalType": "bool",
							"name": "",
							"type": "bool"
						}
					],
					"stateMutability": "nonpayable",
					"type": "function"
				},
				{
					"inputs": [
						{
							"internalType": "address",
							"name": "account",
							"type": "address"
						}
					],
					"name": "balanceOf",
					"outputs": [
						{
							"internalType": "uint256",
							"name": "",
							"type": "uint256"
						}
					],
					"stateMutability": "view",
					"type": "function"
				},
				{
					"inputs": [],
					"name": "decimals",
					"outputs": [
						{
							"internalType": "uint8",
							"name": "",
							"type": "uint8"
						}
					],
					"stateMutability": "view",
					"type": "function"
				},
				{
					"inputs": [
						{
							"internalType": "address",
							"name": "spender",
							"type": "address"
						},
						{
							"internalType": "uint256",
							"name": "subtractedValue",
							"type": "uint256"
						}
					],
					"name": "decreaseAllowance",
					"outputs": [
						{
							"internalType": "bool",
							"name": "",
							"type": "bool"
						}
					],
					"stateMutability": "nonpayable",
					"type": "function"
				},
				{
					"inputs": [
						{
							"internalType": "address",
							"name": "spender",
							"type": "address"
						},
						{
							"internalType": "uint256",
							"name": "addedValue",
							"type": "uint256"
						}
					],
					"name": "increaseAllowance",
					"outputs": [
						{
							"internalType": "bool",
							"name": "",
							"type": "bool"
						}
					],
					"stateMutability": "nonpayable",
					"type": "function"
				},
				{
					"inputs": [
						{
							"internalType": "uint256",
							"name": "amount",
							"type": "uint256"
						}
					],
					"name": "issue",
					"outputs": [],
					"stateMutability": "nonpayable",
					"type": "function"
				},
				{
					"inputs": [],
					"name": "name",
					"outputs": [
						{
							"internalType": "string",
							"name": "",
							"type": "string"
						}
					],
					"stateMutability": "view",
					"type": "function"
				},
				{
					"inputs": [],
					"name": "symbol",
					"outputs": [
						{
							"internalType": "string",
							"name": "",
							"type": "string"
						}
					],
					"stateMutability": "view",
					"type": "function"
				},
				{
					"inputs": [],
					"name": "totalSupply",
					"outputs": [
						{
							"internalType": "uint256",
							"name": "",
							"type": "uint256"
						}
					],
					"stateMutability": "view",
					"type": "function"
				},
				{
					"inputs": [
						{
							"internalType": "address",
							"name": "to",
							"type": "address"
						},
						{
							"internalType": "uint256",
							"name": "amount",
							"type": "uint256"
						}
					],
					"name": "transfer",
					"outputs": [
						{
							"internalType": "bool",
							"name": "",
							"type": "bool"
						}
					],
					"stateMutability": "nonpayable",
					"type": "function"
				},
				{
					"inputs": [
						{
							"internalType": "address",
							"name": "from",
							"type": "address"
						},
						{
							"internalType": "address",
							"name": "to",
							"type": "address"
						},
						{
							"internalType": "uint256",
							"name": "amount",
							"type": "uint256"
						}
					],
					"name": "transferFrom",
					"outputs": [
						{
							"internalType": "bool",
							"name": "",
							"type": "bool"
						}
					],
					"stateMutability": "nonpayable",
					"type": "function"
				}
			],
			"devdoc": {
				"kind": "dev",
				"methods": {
					"allowance(address,address)": {
						"details": "Returns the remaining number of tokens that `spender` will be allowed to spend on behalf of `owner` through {transferFrom}. This is zero by default. This value changes when {approve} or {transferFrom} are called."
					},
					"approve(address,uint256)": {
						"details": "Sets `amount` as the allowance of `spender` over the caller's tokens. Returns a boolean value indicating whether the operation succeeded. IMPORTANT: Beware that changing an allowance with this method brings the risk that someone may use both the old and the new allowance by unfortunate transaction ordering. One possible solution to mitigate this race condition is to first reduce the spender's allowance to 0 and set the desired value afterwards: https://github.com/ethereum/EIPs/issues/20#issuecomment-263524729 Emits an {Approval} event."
					},
					"balanceOf(address)": {
						"details": "Returns the amount of tokens owned by `account`."
					},
					"decimals()": {
						"details": "Returns the decimals places of the token."
					},
					"name()": {
						"details": "Returns the name of the token."
					},
					"symbol()": {
						"details": "Returns the symbol of the token."
					},
					"totalSupply()": {
						"details": "See {IERC20-totalSupply}."
					},
					"transfer(address,uint256)": {
						"details": "Moves `amount` tokens from the caller's account to `to`. Returns a boolean value indicating whether the operation succeeded. Emits a {Transfer} event."
					},
					"transferFrom(address,address,uint256)": {
						"details": "Moves `amount` tokens from `from` to `to` using the allowance mechanism. `amount` is then deducted from the caller's allowance. Returns a boolean value indicating whether the operation succeeded. Emits a {Transfer} event."
					}
				},
				"version": 1
			},
			"evm": {
				"assembly": "    /* \"contract/shit.sol\":251:5868  contract Shit is Context, IERC20, IERC20Metadata {... */\n  mstore(0x40, 0x80)\n    /* \"contract/shit.sol\":467:502  string private _name = 'shit token' */\n  mload(0x40)\n  dup1\n  0x40\n  add\n  0x40\n  mstore\n  dup1\n  0x0a\n  dup2\n  mstore\n  0x20\n  add\n  0x7368697420746f6b656e00000000000000000000000000000000000000000000\n  dup2\n  mstore\n  pop\n  0x03\n  swap1\n  dup1\n  mload\n  swap1\n  0x20\n  add\n  swap1\n  tag_1\n  swap3\n  swap2\n  swap1\n  tag_2\n  jump\t// in\ntag_1:\n  pop\n    /* \"contract/shit.sol\":508:539  string private _symbol = 'shit' */\n  mload(0x40)\n  dup1\n  0x40\n  add\n  0x40\n  mstore\n  dup1\n  0x04\n  dup2\n  mstore\n  0x20\n  add\n  0x7368697400000000000000000000000000000000000000000000000000000000\n  dup2\n  mstore\n  pop\n  0x04\n  swap1\n  dup1\n  mload\n  swap1\n  0x20\n  add\n  swap1\n  tag_3\n  swap3\n  swap2\n  swap1\n  tag_2\n  jump\t// in\ntag_3:\n  pop\n    /* \"contract/shit.sol\":573:623  constructor() {... */\n  callvalue\n  dup1\n  iszero\n  tag_4\n  jumpi\n  0x00\n  dup1\n  revert\ntag_4:\n  pop\n    /* \"contract/shit.sol\":606:616  msg.sender */\n  caller\n    /* \"contract/shit.sol\":597:603  _owner */\n  0x05\n  0x00\n    /* \"contract/shit.sol\":597:616  _owner = msg.sender */\n  0x0100\n  exp\n  dup2\n  sload\n  dup2\n  0xffffffffffffffffffffffffffffffffffffffff\n  mul\n  not\n  and\n  swap1\n  dup4\n  0xffffffffffffffffffffffffffffffffffffffff\n  and\n  mul\n  or\n  swap1\n  sstore\n  pop\n    /* \"contract/shit.sol\":251:5868  contract Shit is Context, IERC20, IERC20Metadata {... */\n  jump(tag_7)\ntag_2:\n  dup3\n  dup1\n  sload\n  tag_8\n  swap1\n  tag_9\n  jump\t// in\ntag_8:\n  swap1\n  0x00\n  mstore\n  keccak256(0x00, 0x20)\n  swap1\n  0x1f\n  add\n  0x20\n  swap1\n  div\n  dup2\n  add\n  swap3\n  dup3\n  tag_11\n  jumpi\n  0x00\n  dup6\n  sstore\n  jump(tag_10)\ntag_11:\n  dup3\n  0x1f\n  lt\n  tag_12\n  jumpi\n  dup1\n  mload\n  not(0xff)\n  and\n  dup4\n  dup1\n  add\n  or\n  dup6\n  sstore\n  jump(tag_10)\ntag_12:\n  dup3\n  dup1\n  add\n  0x01\n  add\n  dup6\n  sstore\n  dup3\n  iszero\n  tag_10\n  jumpi\n  swap2\n  dup3\n  add\ntag_13:\n  dup3\n  dup2\n  gt\n  iszero\n  tag_14\n  jumpi\n  dup3\n  mload\n  dup3\n  sstore\n  swap2\n  0x20\n  add\n  swap2\n  swap1\n  0x01\n  add\n  swap1\n  jump(tag_13)\ntag_14:\ntag_10:\n  pop\n  swap1\n  pop\n  tag_15\n  swap2\n  swap1\n  tag_16\n  jump\t// in\ntag_15:\n  pop\n  swap1\n  jump\t// out\ntag_16:\ntag_17:\n  dup1\n  dup3\n  gt\n  iszero\n  tag_18\n  jumpi\n  0x00\n  dup2\n  0x00\n  swap1\n  sstore\n  pop\n  0x01\n  add\n  jump(tag_17)\ntag_18:\n  pop\n  swap1\n  jump\t// out\n    /* \"#utility.yul\":7:327   */\ntag_9:\n    /* \"#utility.yul\":51:57   */\n  0x00\n    /* \"#utility.yul\":88:89   */\n  0x02\n    /* \"#utility.yul\":82:86   */\n  dup3\n    /* \"#utility.yul\":78:90   */\n  div\n    /* \"#utility.yul\":68:90   */\n  swap1\n  pop\n    /* \"#utility.yul\":135:136   */\n  0x01\n    /* \"#utility.yul\":129:133   */\n  dup3\n    /* \"#utility.yul\":125:137   */\n  and\n    /* \"#utility.yul\":156:174   */\n  dup1\n    /* \"#utility.yul\":146:227   */\n  tag_21\n  jumpi\n    /* \"#utility.yul\":212:216   */\n  0x7f\n    /* \"#utility.yul\":204:210   */\n  dup3\n    /* \"#utility.yul\":200:217   */\n  and\n    /* \"#utility.yul\":190:217   */\n  swap2\n  pop\n    /* \"#utility.yul\":146:227   */\ntag_21:\n    /* \"#utility.yul\":274:276   */\n  0x20\n    /* \"#utility.yul\":266:272   */\n  dup3\n    /* \"#utility.yul\":263:277   */\n  lt\n    /* \"#utility.yul\":243:261   */\n  dup2\n    /* \"#utility.yul\":240:278   */\n  eq\n    /* \"#utility.yul\":237:321   */\n  iszero\n  tag_22\n  jumpi\n    /* \"#utility.yul\":293:311   */\n  tag_23\n  tag_24\n  jump\t// in\ntag_23:\n    /* \"#utility.yul\":237:321   */\ntag_22:\n    /* \"#utility.yul\":58:327   */\n  pop\n    /* \"#utility.yul\":7:327   */\n  swap2\n  swap1\n  pop\n  jump\t// out\n    /* \"#utility.yul\":333:513   */\ntag_24:\n    /* \"#utility.yul\":381:458   */\n  0x4e487b7100000000000000000000000000000000000000000000000000000000\n    /* \"#utility.yul\":378:379   */\n  0x00\n    /* \"#utility.yul\":371:459   */\n  mstore\n    /* \"#utility.yul\":478:482   */\n  0x22\n    /* \"#utility.yul\":475:476   */\n  0x04\n    /* \"#utility.yul\":468:483   */\n  mstore\n    /* \"#utility.yul\":502:506   */\n  0x24\n    /* \"#utility.yul\":499:500   */\n  0x00\n    /* \"#utility.yul\":492:507   */\n  revert\n    /* \"contract/shit.sol\":251:5868  contract Shit is Context, IERC20, IERC20Metadata {... */\ntag_7:\n  dataSize(sub_0)\n  dup1\n  dataOffset(sub_0)\n  0x00\n  codecopy\n  0x00\n  return\nstop\n\nsub_0: assembly {\n        /* \"contract/shit.sol\":251:5868  contract Shit is Context, IERC20, IERC20Metadata {... */\n      mstore(0x40, 0x80)\n      callvalue\n      dup1\n      iszero\n      tag_1\n      jumpi\n      0x00\n      dup1\n      revert\n    tag_1:\n      pop\n      jumpi(tag_2, lt(calldatasize, 0x04))\n      shr(0xe0, calldataload(0x00))\n      dup1\n      0x70a08231\n      gt\n      tag_16\n      jumpi\n      dup1\n      0xa9059cbb\n      gt\n      tag_17\n      jumpi\n      dup1\n      0xa9059cbb\n      eq\n      tag_12\n      jumpi\n      dup1\n      0xb2bdfa7b\n      eq\n      tag_13\n      jumpi\n      dup1\n      0xcc872b66\n      eq\n      tag_14\n      jumpi\n      dup1\n      0xdd62ed3e\n      eq\n      tag_15\n      jumpi\n      jump(tag_2)\n    tag_17:\n      dup1\n      0x70a08231\n      eq\n      tag_9\n      jumpi\n      dup1\n      0x95d89b41\n      eq\n      tag_10\n      jumpi\n      dup1\n      0xa457c2d7\n      eq\n      tag_11\n      jumpi\n      jump(tag_2)\n    tag_16:\n      dup1\n      0x06fdde03\n      eq\n      tag_3\n      jumpi\n      dup1\n      0x095ea7b3\n      eq\n      tag_4\n      jumpi\n      dup1\n      0x18160ddd\n      eq\n      tag_5\n      jumpi\n      dup1\n      0x23b872dd\n      eq\n      tag_6\n      jumpi\n      dup1\n      0x313ce567\n      eq\n      tag_7\n      jumpi\n      dup1\n      0x39509351\n      eq\n      tag_8\n      jumpi\n    tag_2:\n      0x00\n      dup1\n      revert\n        /* \"contract/shit.sol\":629:727  function name() public view virtual override returns (string memory) {... */\n    tag_3:\n      tag_18\n      tag_19\n      jump\t// in\n    tag_18:\n      mload(0x40)\n      tag_20\n      swap2\n      swap1\n      tag_21\n      jump\t// in\n    tag_20:\n      mload(0x40)\n      dup1\n      swap2\n      sub\n      swap1\n      return\n        /* \"contract/shit.sol\":1587:1784  function approve(address spender, uint256 amount) public virtual override returns (bool) {... */\n    tag_4:\n      tag_22\n      0x04\n      dup1\n      calldatasize\n      sub\n      dup2\n      add\n      swap1\n      tag_23\n      swap2\n      swap1\n      tag_24\n      jump\t// in\n    tag_23:\n      tag_25\n      jump\t// in\n    tag_22:\n      mload(0x40)\n      tag_26\n      swap2\n      swap1\n      tag_27\n      jump\t// in\n    tag_26:\n      mload(0x40)\n      dup1\n      swap2\n      sub\n      swap1\n      return\n        /* \"contract/shit.sol\":992:1098  function totalSupply() public view virtual override returns (uint256) {... */\n    tag_5:\n      tag_28\n      tag_29\n      jump\t// in\n    tag_28:\n      mload(0x40)\n      tag_30\n      swap2\n      swap1\n      tag_31\n      jump\t// in\n    tag_30:\n      mload(0x40)\n      dup1\n      swap2\n      sub\n      swap1\n      return\n        /* \"contract/shit.sol\":1790:2076  function transferFrom(... */\n    tag_6:\n      tag_32\n      0x04\n      dup1\n      calldatasize\n      sub\n      dup2\n      add\n      swap1\n      tag_33\n      swap2\n      swap1\n      tag_34\n      jump\t// in\n    tag_33:\n      tag_35\n      jump\t// in\n    tag_32:\n      mload(0x40)\n      tag_36\n      swap2\n      swap1\n      tag_27\n      jump\t// in\n    tag_36:\n      mload(0x40)\n      dup1\n      swap2\n      sub\n      swap1\n      return\n        /* \"contract/shit.sol\":841:932  function decimals() public view virtual override returns (uint8) {... */\n    tag_7:\n      tag_37\n      tag_38\n      jump\t// in\n    tag_37:\n      mload(0x40)\n      tag_39\n      swap2\n      swap1\n      tag_40\n      jump\t// in\n    tag_39:\n      mload(0x40)\n      dup1\n      swap2\n      sub\n      swap1\n      return\n        /* \"contract/shit.sol\":2082:2318  function increaseAllowance(address spender, uint256 addedValue) public virtual returns (bool) {... */\n    tag_8:\n      tag_41\n      0x04\n      dup1\n      calldatasize\n      sub\n      dup2\n      add\n      swap1\n      tag_42\n      swap2\n      swap1\n      tag_24\n      jump\t// in\n    tag_42:\n      tag_43\n      jump\t// in\n    tag_41:\n      mload(0x40)\n      tag_44\n      swap2\n      swap1\n      tag_27\n      jump\t// in\n    tag_44:\n      mload(0x40)\n      dup1\n      swap2\n      sub\n      swap1\n      return\n        /* \"contract/shit.sol\":1105:1230  function balanceOf(address account) public view virtual override returns (uint256) {... */\n    tag_9:\n      tag_45\n      0x04\n      dup1\n      calldatasize\n      sub\n      dup2\n      add\n      swap1\n      tag_46\n      swap2\n      swap1\n      tag_47\n      jump\t// in\n    tag_46:\n      tag_48\n      jump\t// in\n    tag_45:\n      mload(0x40)\n      tag_49\n      swap2\n      swap1\n      tag_31\n      jump\t// in\n    tag_49:\n      mload(0x40)\n      dup1\n      swap2\n      sub\n      swap1\n      return\n        /* \"contract/shit.sol\":733:835  function symbol() public view virtual override returns (string memory) {... */\n    tag_10:\n      tag_50\n      tag_51\n      jump\t// in\n    tag_50:\n      mload(0x40)\n      tag_52\n      swap2\n      swap1\n      tag_21\n      jump\t// in\n    tag_52:\n      mload(0x40)\n      dup1\n      swap2\n      sub\n      swap1\n      return\n        /* \"contract/shit.sol\":2324:2753  function decreaseAllowance(address spender, uint256 subtractedValue) public virtual returns (bool) {... */\n    tag_11:\n      tag_53\n      0x04\n      dup1\n      calldatasize\n      sub\n      dup2\n      add\n      swap1\n      tag_54\n      swap2\n      swap1\n      tag_24\n      jump\t// in\n    tag_54:\n      tag_55\n      jump\t// in\n    tag_53:\n      mload(0x40)\n      tag_56\n      swap2\n      swap1\n      tag_27\n      jump\t// in\n    tag_56:\n      mload(0x40)\n      dup1\n      swap2\n      sub\n      swap1\n      return\n        /* \"contract/shit.sol\":1237:1426  function transfer(address to, uint256 amount) public virtual override returns (bool) {... */\n    tag_12:\n      tag_57\n      0x04\n      dup1\n      calldatasize\n      sub\n      dup2\n      add\n      swap1\n      tag_58\n      swap2\n      swap1\n      tag_24\n      jump\t// in\n    tag_58:\n      tag_59\n      jump\t// in\n    tag_57:\n      mload(0x40)\n      tag_60\n      swap2\n      swap1\n      tag_27\n      jump\t// in\n    tag_60:\n      mload(0x40)\n      dup1\n      swap2\n      sub\n      swap1\n      return\n        /* \"contract/shit.sol\":545:566  address public _owner */\n    tag_13:\n      tag_61\n      tag_62\n      jump\t// in\n    tag_61:\n      mload(0x40)\n      tag_63\n      swap2\n      swap1\n      tag_64\n      jump\t// in\n    tag_63:\n      mload(0x40)\n      dup1\n      swap2\n      sub\n      swap1\n      return\n        /* \"contract/shit.sol\":5565:5835  function issue(uint amount) public onlyOwner {... */\n    tag_14:\n      tag_65\n      0x04\n      dup1\n      calldatasize\n      sub\n      dup2\n      add\n      swap1\n      tag_66\n      swap2\n      swap1\n      tag_67\n      jump\t// in\n    tag_66:\n      tag_68\n      jump\t// in\n    tag_65:\n      stop\n        /* \"contract/shit.sol\":1432:1581  function allowance(address owner, address spender) public view virtual override returns (uint256) {... */\n    tag_15:\n      tag_69\n      0x04\n      dup1\n      calldatasize\n      sub\n      dup2\n      add\n      swap1\n      tag_70\n      swap2\n      swap1\n      tag_71\n      jump\t// in\n    tag_70:\n      tag_72\n      jump\t// in\n    tag_69:\n      mload(0x40)\n      tag_73\n      swap2\n      swap1\n      tag_31\n      jump\t// in\n    tag_73:\n      mload(0x40)\n      dup1\n      swap2\n      sub\n      swap1\n      return\n        /* \"contract/shit.sol\":629:727  function name() public view virtual override returns (string memory) {... */\n    tag_19:\n        /* \"contract/shit.sol\":683:696  string memory */\n      0x60\n        /* \"contract/shit.sol\":715:720  _name */\n      0x03\n        /* \"contract/shit.sol\":708:720  return _name */\n      dup1\n      sload\n      tag_75\n      swap1\n      tag_76\n      jump\t// in\n    tag_75:\n      dup1\n      0x1f\n      add\n      0x20\n      dup1\n      swap2\n      div\n      mul\n      0x20\n      add\n      mload(0x40)\n      swap1\n      dup2\n      add\n      0x40\n      mstore\n      dup1\n      swap3\n      swap2\n      swap1\n      dup2\n      dup2\n      mstore\n      0x20\n      add\n      dup3\n      dup1\n      sload\n      tag_77\n      swap1\n      tag_76\n      jump\t// in\n    tag_77:\n      dup1\n      iszero\n      tag_78\n      jumpi\n      dup1\n      0x1f\n      lt\n      tag_79\n      jumpi\n      0x0100\n      dup1\n      dup4\n      sload\n      div\n      mul\n      dup4\n      mstore\n      swap2\n      0x20\n      add\n      swap2\n      jump(tag_78)\n    tag_79:\n      dup3\n      add\n      swap2\n      swap1\n      0x00\n      mstore\n      keccak256(0x00, 0x20)\n      swap1\n    tag_80:\n      dup2\n      sload\n      dup2\n      mstore\n      swap1\n      0x01\n      add\n      swap1\n      0x20\n      add\n      dup1\n      dup4\n      gt\n      tag_80\n      jumpi\n      dup3\n      swap1\n      sub\n      0x1f\n      and\n      dup3\n      add\n      swap2\n    tag_78:\n      pop\n      pop\n      pop\n      pop\n      pop\n      swap1\n      pop\n        /* \"contract/shit.sol\":629:727  function name() public view virtual override returns (string memory) {... */\n      swap1\n      jump\t// out\n        /* \"contract/shit.sol\":1587:1784  function approve(address spender, uint256 amount) public virtual override returns (bool) {... */\n    tag_25:\n        /* \"contract/shit.sol\":1670:1674  bool */\n      0x00\n        /* \"contract/shit.sol\":1686:1699  address owner */\n      dup1\n        /* \"contract/shit.sol\":1702:1714  _msgSender() */\n      tag_82\n        /* \"contract/shit.sol\":1702:1712  _msgSender */\n      tag_83\n        /* \"contract/shit.sol\":1702:1714  _msgSender() */\n      jump\t// in\n    tag_82:\n        /* \"contract/shit.sol\":1686:1714  address owner = _msgSender() */\n      swap1\n      pop\n        /* \"contract/shit.sol\":1724:1756  _approve(owner, spender, amount) */\n      tag_84\n        /* \"contract/shit.sol\":1733:1738  owner */\n      dup2\n        /* \"contract/shit.sol\":1740:1747  spender */\n      dup6\n        /* \"contract/shit.sol\":1749:1755  amount */\n      dup6\n        /* \"contract/shit.sol\":1724:1732  _approve */\n      tag_85\n        /* \"contract/shit.sol\":1724:1756  _approve(owner, spender, amount) */\n      jump\t// in\n    tag_84:\n        /* \"contract/shit.sol\":1773:1777  true */\n      0x01\n        /* \"contract/shit.sol\":1766:1777  return true */\n      swap2\n      pop\n      pop\n        /* \"contract/shit.sol\":1587:1784  function approve(address spender, uint256 amount) public virtual override returns (bool) {... */\n      swap3\n      swap2\n      pop\n      pop\n      jump\t// out\n        /* \"contract/shit.sol\":992:1098  function totalSupply() public view virtual override returns (uint256) {... */\n    tag_29:\n        /* \"contract/shit.sol\":1053:1060  uint256 */\n      0x00\n        /* \"contract/shit.sol\":1079:1091  _totalSupply */\n      sload(0x02)\n        /* \"contract/shit.sol\":1072:1091  return _totalSupply */\n      swap1\n      pop\n        /* \"contract/shit.sol\":992:1098  function totalSupply() public view virtual override returns (uint256) {... */\n      swap1\n      jump\t// out\n        /* \"contract/shit.sol\":1790:2076  function transferFrom(... */\n    tag_35:\n        /* \"contract/shit.sol\":1917:1921  bool */\n      0x00\n        /* \"contract/shit.sol\":1933:1948  address spender */\n      dup1\n        /* \"contract/shit.sol\":1951:1963  _msgSender() */\n      tag_88\n        /* \"contract/shit.sol\":1951:1961  _msgSender */\n      tag_83\n        /* \"contract/shit.sol\":1951:1963  _msgSender() */\n      jump\t// in\n    tag_88:\n        /* \"contract/shit.sol\":1933:1963  address spender = _msgSender() */\n      swap1\n      pop\n        /* \"contract/shit.sol\":1973:2011  _spendAllowance(from, spender, amount) */\n      tag_89\n        /* \"contract/shit.sol\":1989:1993  from */\n      dup6\n        /* \"contract/shit.sol\":1995:2002  spender */\n      dup3\n        /* \"contract/shit.sol\":2004:2010  amount */\n      dup6\n        /* \"contract/shit.sol\":1973:1988  _spendAllowance */\n      tag_90\n        /* \"contract/shit.sol\":1973:2011  _spendAllowance(from, spender, amount) */\n      jump\t// in\n    tag_89:\n        /* \"contract/shit.sol\":2021:2048  _transfer(from, to, amount) */\n      tag_91\n        /* \"contract/shit.sol\":2031:2035  from */\n      dup6\n        /* \"contract/shit.sol\":2037:2039  to */\n      dup6\n        /* \"contract/shit.sol\":2041:2047  amount */\n      dup6\n        /* \"contract/shit.sol\":2021:2030  _transfer */\n      tag_92\n        /* \"contract/shit.sol\":2021:2048  _transfer(from, to, amount) */\n      jump\t// in\n    tag_91:\n        /* \"contract/shit.sol\":2065:2069  true */\n      0x01\n        /* \"contract/shit.sol\":2058:2069  return true */\n      swap2\n      pop\n      pop\n        /* \"contract/shit.sol\":1790:2076  function transferFrom(... */\n      swap4\n      swap3\n      pop\n      pop\n      pop\n      jump\t// out\n        /* \"contract/shit.sol\":841:932  function decimals() public view virtual override returns (uint8) {... */\n    tag_38:\n        /* \"contract/shit.sol\":899:904  uint8 */\n      0x00\n        /* \"contract/shit.sol\":923:925  18 */\n      0x12\n        /* \"contract/shit.sol\":916:925  return 18 */\n      swap1\n      pop\n        /* \"contract/shit.sol\":841:932  function decimals() public view virtual override returns (uint8) {... */\n      swap1\n      jump\t// out\n        /* \"contract/shit.sol\":2082:2318  function increaseAllowance(address spender, uint256 addedValue) public virtual returns (bool) {... */\n    tag_43:\n        /* \"contract/shit.sol\":2170:2174  bool */\n      0x00\n        /* \"contract/shit.sol\":2186:2199  address owner */\n      dup1\n        /* \"contract/shit.sol\":2202:2214  _msgSender() */\n      tag_95\n        /* \"contract/shit.sol\":2202:2212  _msgSender */\n      tag_83\n        /* \"contract/shit.sol\":2202:2214  _msgSender() */\n      jump\t// in\n    tag_95:\n        /* \"contract/shit.sol\":2186:2214  address owner = _msgSender() */\n      swap1\n      pop\n        /* \"contract/shit.sol\":2224:2290  _approve(owner, spender, _allowances[owner][spender] + addedValue) */\n      tag_96\n        /* \"contract/shit.sol\":2233:2238  owner */\n      dup2\n        /* \"contract/shit.sol\":2240:2247  spender */\n      dup6\n        /* \"contract/shit.sol\":2279:2289  addedValue */\n      dup6\n        /* \"contract/shit.sol\":2249:2260  _allowances */\n      0x01\n        /* \"contract/shit.sol\":2249:2267  _allowances[owner] */\n      0x00\n        /* \"contract/shit.sol\":2261:2266  owner */\n      dup7\n        /* \"contract/shit.sol\":2249:2267  _allowances[owner] */\n      0xffffffffffffffffffffffffffffffffffffffff\n      and\n      0xffffffffffffffffffffffffffffffffffffffff\n      and\n      dup2\n      mstore\n      0x20\n      add\n      swap1\n      dup2\n      mstore\n      0x20\n      add\n      0x00\n      keccak256\n        /* \"contract/shit.sol\":2249:2276  _allowances[owner][spender] */\n      0x00\n        /* \"contract/shit.sol\":2268:2275  spender */\n      dup10\n        /* \"contract/shit.sol\":2249:2276  _allowances[owner][spender] */\n      0xffffffffffffffffffffffffffffffffffffffff\n      and\n      0xffffffffffffffffffffffffffffffffffffffff\n      and\n      dup2\n      mstore\n      0x20\n      add\n      swap1\n      dup2\n      mstore\n      0x20\n      add\n      0x00\n      keccak256\n      sload\n        /* \"contract/shit.sol\":2249:2289  _allowances[owner][spender] + addedValue */\n      tag_97\n      swap2\n      swap1\n      tag_98\n      jump\t// in\n    tag_97:\n        /* \"contract/shit.sol\":2224:2232  _approve */\n      tag_85\n        /* \"contract/shit.sol\":2224:2290  _approve(owner, spender, _allowances[owner][spender] + addedValue) */\n      jump\t// in\n    tag_96:\n        /* \"contract/shit.sol\":2307:2311  true */\n      0x01\n        /* \"contract/shit.sol\":2300:2311  return true */\n      swap2\n      pop\n      pop\n        /* \"contract/shit.sol\":2082:2318  function increaseAllowance(address spender, uint256 addedValue) public virtual returns (bool) {... */\n      swap3\n      swap2\n      pop\n      pop\n      jump\t// out\n        /* \"contract/shit.sol\":1105:1230  function balanceOf(address account) public view virtual override returns (uint256) {... */\n    tag_48:\n        /* \"contract/shit.sol\":1179:1186  uint256 */\n      0x00\n        /* \"contract/shit.sol\":1205:1214  _balances */\n      dup1\n        /* \"contract/shit.sol\":1205:1223  _balances[account] */\n      0x00\n        /* \"contract/shit.sol\":1215:1222  account */\n      dup4\n        /* \"contract/shit.sol\":1205:1223  _balances[account] */\n      0xffffffffffffffffffffffffffffffffffffffff\n      and\n      0xffffffffffffffffffffffffffffffffffffffff\n      and\n      dup2\n      mstore\n      0x20\n      add\n      swap1\n      dup2\n      mstore\n      0x20\n      add\n      0x00\n      keccak256\n      sload\n        /* \"contract/shit.sol\":1198:1223  return _balances[account] */\n      swap1\n      pop\n        /* \"contract/shit.sol\":1105:1230  function balanceOf(address account) public view virtual override returns (uint256) {... */\n      swap2\n      swap1\n      pop\n      jump\t// out\n        /* \"contract/shit.sol\":733:835  function symbol() public view virtual override returns (string memory) {... */\n    tag_51:\n        /* \"contract/shit.sol\":789:802  string memory */\n      0x60\n        /* \"contract/shit.sol\":821:828  _symbol */\n      0x04\n        /* \"contract/shit.sol\":814:828  return _symbol */\n      dup1\n      sload\n      tag_101\n      swap1\n      tag_76\n      jump\t// in\n    tag_101:\n      dup1\n      0x1f\n      add\n      0x20\n      dup1\n      swap2\n      div\n      mul\n      0x20\n      add\n      mload(0x40)\n      swap1\n      dup2\n      add\n      0x40\n      mstore\n      dup1\n      swap3\n      swap2\n      swap1\n      dup2\n      dup2\n      mstore\n      0x20\n      add\n      dup3\n      dup1\n      sload\n      tag_102\n      swap1\n      tag_76\n      jump\t// in\n    tag_102:\n      dup1\n      iszero\n      tag_103\n      jumpi\n      dup1\n      0x1f\n      lt\n      tag_104\n      jumpi\n      0x0100\n      dup1\n      dup4\n      sload\n      div\n      mul\n      dup4\n      mstore\n      swap2\n      0x20\n      add\n      swap2\n      jump(tag_103)\n    tag_104:\n      dup3\n      add\n      swap2\n      swap1\n      0x00\n      mstore\n      keccak256(0x00, 0x20)\n      swap1\n    tag_105:\n      dup2\n      sload\n      dup2\n      mstore\n      swap1\n      0x01\n      add\n      swap1\n      0x20\n      add\n      dup1\n      dup4\n      gt\n      tag_105\n      jumpi\n      dup3\n      swap1\n      sub\n      0x1f\n      and\n      dup3\n      add\n      swap2\n    tag_103:\n      pop\n      pop\n      pop\n      pop\n      pop\n      swap1\n      pop\n        /* \"contract/shit.sol\":733:835  function symbol() public view virtual override returns (string memory) {... */\n      swap1\n      jump\t// out\n        /* \"contract/shit.sol\":2324:2753  function decreaseAllowance(address spender, uint256 subtractedValue) public virtual returns (bool) {... */\n    tag_55:\n        /* \"contract/shit.sol\":2417:2421  bool */\n      0x00\n        /* \"contract/shit.sol\":2433:2446  address owner */\n      dup1\n        /* \"contract/shit.sol\":2449:2461  _msgSender() */\n      tag_107\n        /* \"contract/shit.sol\":2449:2459  _msgSender */\n      tag_83\n        /* \"contract/shit.sol\":2449:2461  _msgSender() */\n      jump\t// in\n    tag_107:\n        /* \"contract/shit.sol\":2433:2461  address owner = _msgSender() */\n      swap1\n      pop\n        /* \"contract/shit.sol\":2471:2495  uint256 currentAllowance */\n      0x00\n        /* \"contract/shit.sol\":2498:2509  _allowances */\n      0x01\n        /* \"contract/shit.sol\":2498:2516  _allowances[owner] */\n      0x00\n        /* \"contract/shit.sol\":2510:2515  owner */\n      dup4\n        /* \"contract/shit.sol\":2498:2516  _allowances[owner] */\n      0xffffffffffffffffffffffffffffffffffffffff\n      and\n      0xffffffffffffffffffffffffffffffffffffffff\n      and\n      dup2\n      mstore\n      0x20\n      add\n      swap1\n      dup2\n      mstore\n      0x20\n      add\n      0x00\n      keccak256\n        /* \"contract/shit.sol\":2498:2525  _allowances[owner][spender] */\n      0x00\n        /* \"contract/shit.sol\":2517:2524  spender */\n      dup7\n        /* \"contract/shit.sol\":2498:2525  _allowances[owner][spender] */\n      0xffffffffffffffffffffffffffffffffffffffff\n      and\n      0xffffffffffffffffffffffffffffffffffffffff\n      and\n      dup2\n      mstore\n      0x20\n      add\n      swap1\n      dup2\n      mstore\n      0x20\n      add\n      0x00\n      keccak256\n      sload\n        /* \"contract/shit.sol\":2471:2525  uint256 currentAllowance = _allowances[owner][spender] */\n      swap1\n      pop\n        /* \"contract/shit.sol\":2563:2578  subtractedValue */\n      dup4\n        /* \"contract/shit.sol\":2543:2559  currentAllowance */\n      dup2\n        /* \"contract/shit.sol\":2543:2578  currentAllowance >= subtractedValue */\n      lt\n      iszero\n        /* \"contract/shit.sol\":2535:2620  require(currentAllowance >= subtractedValue, \"ERC20: decreased allowance below zero\") */\n      tag_108\n      jumpi\n      mload(0x40)\n      0x08c379a000000000000000000000000000000000000000000000000000000000\n      dup2\n      mstore\n      0x04\n      add\n      tag_109\n      swap1\n      tag_110\n      jump\t// in\n    tag_109:\n      mload(0x40)\n      dup1\n      swap2\n      sub\n      swap1\n      revert\n    tag_108:\n        /* \"contract/shit.sol\":2654:2714  _approve(owner, spender, currentAllowance - subtractedValue) */\n      tag_111\n        /* \"contract/shit.sol\":2663:2668  owner */\n      dup3\n        /* \"contract/shit.sol\":2670:2677  spender */\n      dup7\n        /* \"contract/shit.sol\":2698:2713  subtractedValue */\n      dup7\n        /* \"contract/shit.sol\":2679:2695  currentAllowance */\n      dup5\n        /* \"contract/shit.sol\":2679:2713  currentAllowance - subtractedValue */\n      sub\n        /* \"contract/shit.sol\":2654:2662  _approve */\n      tag_85\n        /* \"contract/shit.sol\":2654:2714  _approve(owner, spender, currentAllowance - subtractedValue) */\n      jump\t// in\n    tag_111:\n        /* \"contract/shit.sol\":2742:2746  true */\n      0x01\n        /* \"contract/shit.sol\":2735:2746  return true */\n      swap3\n      pop\n      pop\n      pop\n        /* \"contract/shit.sol\":2324:2753  function decreaseAllowance(address spender, uint256 subtractedValue) public virtual returns (bool) {... */\n      swap3\n      swap2\n      pop\n      pop\n      jump\t// out\n        /* \"contract/shit.sol\":1237:1426  function transfer(address to, uint256 amount) public virtual override returns (bool) {... */\n    tag_59:\n        /* \"contract/shit.sol\":1316:1320  bool */\n      0x00\n        /* \"contract/shit.sol\":1332:1345  address owner */\n      dup1\n        /* \"contract/shit.sol\":1348:1360  _msgSender() */\n      tag_113\n        /* \"contract/shit.sol\":1348:1358  _msgSender */\n      tag_83\n        /* \"contract/shit.sol\":1348:1360  _msgSender() */\n      jump\t// in\n    tag_113:\n        /* \"contract/shit.sol\":1332:1360  address owner = _msgSender() */\n      swap1\n      pop\n        /* \"contract/shit.sol\":1370:1398  _transfer(owner, to, amount) */\n      tag_114\n        /* \"contract/shit.sol\":1380:1385  owner */\n      dup2\n        /* \"contract/shit.sol\":1387:1389  to */\n      dup6\n        /* \"contract/shit.sol\":1391:1397  amount */\n      dup6\n        /* \"contract/shit.sol\":1370:1379  _transfer */\n      tag_92\n        /* \"contract/shit.sol\":1370:1398  _transfer(owner, to, amount) */\n      jump\t// in\n    tag_114:\n        /* \"contract/shit.sol\":1415:1419  true */\n      0x01\n        /* \"contract/shit.sol\":1408:1419  return true */\n      swap2\n      pop\n      pop\n        /* \"contract/shit.sol\":1237:1426  function transfer(address to, uint256 amount) public virtual override returns (bool) {... */\n      swap3\n      swap2\n      pop\n      pop\n      jump\t// out\n        /* \"contract/shit.sol\":545:566  address public _owner */\n    tag_62:\n      0x05\n      0x00\n      swap1\n      sload\n      swap1\n      0x0100\n      exp\n      swap1\n      div\n      0xffffffffffffffffffffffffffffffffffffffff\n      and\n      dup2\n      jump\t// out\n        /* \"contract/shit.sol\":5565:5835  function issue(uint amount) public onlyOwner {... */\n    tag_68:\n        /* \"contract/shit.sol\":5516:5526  msg.sender */\n      caller\n        /* \"contract/shit.sol\":5506:5526  _owner == msg.sender */\n      0xffffffffffffffffffffffffffffffffffffffff\n      and\n        /* \"contract/shit.sol\":5506:5512  _owner */\n      0x05\n      0x00\n      swap1\n      sload\n      swap1\n      0x0100\n      exp\n      swap1\n      div\n      0xffffffffffffffffffffffffffffffffffffffff\n      and\n        /* \"contract/shit.sol\":5506:5526  _owner == msg.sender */\n      0xffffffffffffffffffffffffffffffffffffffff\n      and\n      eq\n        /* \"contract/shit.sol\":5498:5541  require(_owner == msg.sender, \"need owner\") */\n      tag_116\n      jumpi\n      mload(0x40)\n      0x08c379a000000000000000000000000000000000000000000000000000000000\n      dup2\n      mstore\n      0x04\n      add\n      tag_117\n      swap1\n      tag_118\n      jump\t// in\n    tag_117:\n      mload(0x40)\n      dup1\n      swap2\n      sub\n      swap1\n      revert\n    tag_116:\n        /* \"contract/shit.sol\":5652:5664  _totalSupply */\n      sload(0x02)\n        /* \"contract/shit.sol\":5643:5649  amount */\n      dup2\n        /* \"contract/shit.sol\":5628:5640  _totalSupply */\n      sload(0x02)\n        /* \"contract/shit.sol\":5628:5649  _totalSupply + amount */\n      tag_120\n      swap2\n      swap1\n      tag_98\n      jump\t// in\n    tag_120:\n        /* \"contract/shit.sol\":5628:5664  _totalSupply + amount > _totalSupply */\n      gt\n        /* \"contract/shit.sol\":5620:5665  require(_totalSupply + amount > _totalSupply) */\n      tag_121\n      jumpi\n      0x00\n      dup1\n      revert\n    tag_121:\n        /* \"contract/shit.sol\":5712:5721  _balances */\n      0x00\n        /* \"contract/shit.sol\":5712:5729  _balances[_owner] */\n      dup1\n        /* \"contract/shit.sol\":5722:5728  _owner */\n      0x05\n      0x00\n      swap1\n      sload\n      swap1\n      0x0100\n      exp\n      swap1\n      div\n      0xffffffffffffffffffffffffffffffffffffffff\n      and\n        /* \"contract/shit.sol\":5712:5729  _balances[_owner] */\n      0xffffffffffffffffffffffffffffffffffffffff\n      and\n      0xffffffffffffffffffffffffffffffffffffffff\n      and\n      dup2\n      mstore\n      0x20\n      add\n      swap1\n      dup2\n      mstore\n      0x20\n      add\n      0x00\n      keccak256\n      sload\n        /* \"contract/shit.sol\":5703:5709  amount */\n      dup2\n        /* \"contract/shit.sol\":5683:5692  _balances */\n      0x00\n        /* \"contract/shit.sol\":5683:5700  _balances[_owner] */\n      dup1\n        /* \"contract/shit.sol\":5693:5699  _owner */\n      0x05\n      0x00\n      swap1\n      sload\n      swap1\n      0x0100\n      exp\n      swap1\n      div\n      0xffffffffffffffffffffffffffffffffffffffff\n      and\n        /* \"contract/shit.sol\":5683:5700  _balances[_owner] */\n      0xffffffffffffffffffffffffffffffffffffffff\n      and\n      0xffffffffffffffffffffffffffffffffffffffff\n      and\n      dup2\n      mstore\n      0x20\n      add\n      swap1\n      dup2\n      mstore\n      0x20\n      add\n      0x00\n      keccak256\n      sload\n        /* \"contract/shit.sol\":5683:5709  _balances[_owner] + amount */\n      tag_122\n      swap2\n      swap1\n      tag_98\n      jump\t// in\n    tag_122:\n        /* \"contract/shit.sol\":5683:5729  _balances[_owner] + amount > _balances[_owner] */\n      gt\n        /* \"contract/shit.sol\":5675:5730  require(_balances[_owner] + amount > _balances[_owner]) */\n      tag_123\n      jumpi\n      0x00\n      dup1\n      revert\n    tag_123:\n        /* \"contract/shit.sol\":5762:5768  amount */\n      dup1\n        /* \"contract/shit.sol\":5741:5750  _balances */\n      0x00\n        /* \"contract/shit.sol\":5741:5758  _balances[_owner] */\n      dup1\n        /* \"contract/shit.sol\":5751:5757  _owner */\n      0x05\n      0x00\n      swap1\n      sload\n      swap1\n      0x0100\n      exp\n      swap1\n      div\n      0xffffffffffffffffffffffffffffffffffffffff\n      and\n        /* \"contract/shit.sol\":5741:5758  _balances[_owner] */\n      0xffffffffffffffffffffffffffffffffffffffff\n      and\n      0xffffffffffffffffffffffffffffffffffffffff\n      and\n      dup2\n      mstore\n      0x20\n      add\n      swap1\n      dup2\n      mstore\n      0x20\n      add\n      0x00\n      keccak256\n      0x00\n        /* \"contract/shit.sol\":5741:5768  _balances[_owner] += amount */\n      dup3\n      dup3\n      sload\n      tag_124\n      swap2\n      swap1\n      tag_98\n      jump\t// in\n    tag_124:\n      swap3\n      pop\n      pop\n      dup2\n      swap1\n      sstore\n      pop\n        /* \"contract/shit.sol\":5794:5800  amount */\n      dup1\n        /* \"contract/shit.sol\":5778:5790  _totalSupply */\n      0x02\n      0x00\n        /* \"contract/shit.sol\":5778:5800  _totalSupply += amount */\n      dup3\n      dup3\n      sload\n      tag_125\n      swap2\n      swap1\n      tag_98\n      jump\t// in\n    tag_125:\n      swap3\n      pop\n      pop\n      dup2\n      swap1\n      sstore\n      pop\n        /* \"contract/shit.sol\":5815:5828  Issue(amount) */\n      0xcb8241adb0c3fdb35b70c24ce35c5eb0c17af7431c99f827d44a445ca624176a\n        /* \"contract/shit.sol\":5821:5827  amount */\n      dup2\n        /* \"contract/shit.sol\":5815:5828  Issue(amount) */\n      mload(0x40)\n      tag_126\n      swap2\n      swap1\n      tag_31\n      jump\t// in\n    tag_126:\n      mload(0x40)\n      dup1\n      swap2\n      sub\n      swap1\n      log1\n        /* \"contract/shit.sol\":5565:5835  function issue(uint amount) public onlyOwner {... */\n      pop\n      jump\t// out\n        /* \"contract/shit.sol\":1432:1581  function allowance(address owner, address spender) public view virtual override returns (uint256) {... */\n    tag_72:\n        /* \"contract/shit.sol\":1521:1528  uint256 */\n      0x00\n        /* \"contract/shit.sol\":1547:1558  _allowances */\n      0x01\n        /* \"contract/shit.sol\":1547:1565  _allowances[owner] */\n      0x00\n        /* \"contract/shit.sol\":1559:1564  owner */\n      dup5\n        /* \"contract/shit.sol\":1547:1565  _allowances[owner] */\n      0xffffffffffffffffffffffffffffffffffffffff\n      and\n      0xffffffffffffffffffffffffffffffffffffffff\n      and\n      dup2\n      mstore\n      0x20\n      add\n      swap1\n      dup2\n      mstore\n      0x20\n      add\n      0x00\n      keccak256\n        /* \"contract/shit.sol\":1547:1574  _allowances[owner][spender] */\n      0x00\n        /* \"contract/shit.sol\":1566:1573  spender */\n      dup4\n        /* \"contract/shit.sol\":1547:1574  _allowances[owner][spender] */\n      0xffffffffffffffffffffffffffffffffffffffff\n      and\n      0xffffffffffffffffffffffffffffffffffffffff\n      and\n      dup2\n      mstore\n      0x20\n      add\n      swap1\n      dup2\n      mstore\n      0x20\n      add\n      0x00\n      keccak256\n      sload\n        /* \"contract/shit.sol\":1540:1574  return _allowances[owner][spender] */\n      swap1\n      pop\n        /* \"contract/shit.sol\":1432:1581  function allowance(address owner, address spender) public view virtual override returns (uint256) {... */\n      swap3\n      swap2\n      pop\n      pop\n      jump\t// out\n        /* \"@openzeppelin/contracts/utils/Context.sol\":640:736  function _msgSender() internal view virtual returns (address) {... */\n    tag_83:\n        /* \"@openzeppelin/contracts/utils/Context.sol\":693:700  address */\n      0x00\n        /* \"@openzeppelin/contracts/utils/Context.sol\":719:729  msg.sender */\n      caller\n        /* \"@openzeppelin/contracts/utils/Context.sol\":712:729  return msg.sender */\n      swap1\n      pop\n        /* \"@openzeppelin/contracts/utils/Context.sol\":640:736  function _msgSender() internal view virtual returns (address) {... */\n      swap1\n      jump\t// out\n        /* \"contract/shit.sol\":4393:4763  function _approve(... */\n    tag_85:\n        /* \"contract/shit.sol\":4541:4542  0 */\n      0x00\n        /* \"contract/shit.sol\":4524:4543  owner != address(0) */\n      0xffffffffffffffffffffffffffffffffffffffff\n      and\n        /* \"contract/shit.sol\":4524:4529  owner */\n      dup4\n        /* \"contract/shit.sol\":4524:4543  owner != address(0) */\n      0xffffffffffffffffffffffffffffffffffffffff\n      and\n      eq\n      iszero\n        /* \"contract/shit.sol\":4516:4584  require(owner != address(0), \"ERC20: approve from the zero address\") */\n      tag_130\n      jumpi\n      mload(0x40)\n      0x08c379a000000000000000000000000000000000000000000000000000000000\n      dup2\n      mstore\n      0x04\n      add\n      tag_131\n      swap1\n      tag_132\n      jump\t// in\n    tag_131:\n      mload(0x40)\n      dup1\n      swap2\n      sub\n      swap1\n      revert\n    tag_130:\n        /* \"contract/shit.sol\":4621:4622  0 */\n      0x00\n        /* \"contract/shit.sol\":4602:4623  spender != address(0) */\n      0xffffffffffffffffffffffffffffffffffffffff\n      and\n        /* \"contract/shit.sol\":4602:4609  spender */\n      dup3\n        /* \"contract/shit.sol\":4602:4623  spender != address(0) */\n      0xffffffffffffffffffffffffffffffffffffffff\n      and\n      eq\n      iszero\n        /* \"contract/shit.sol\":4594:4662  require(spender != address(0), \"ERC20: approve to the zero address\") */\n      tag_133\n      jumpi\n      mload(0x40)\n      0x08c379a000000000000000000000000000000000000000000000000000000000\n      dup2\n      mstore\n      0x04\n      add\n      tag_134\n      swap1\n      tag_135\n      jump\t// in\n    tag_134:\n      mload(0x40)\n      dup1\n      swap2\n      sub\n      swap1\n      revert\n    tag_133:\n        /* \"contract/shit.sol\":4703:4709  amount */\n      dup1\n        /* \"contract/shit.sol\":4673:4684  _allowances */\n      0x01\n        /* \"contract/shit.sol\":4673:4691  _allowances[owner] */\n      0x00\n        /* \"contract/shit.sol\":4685:4690  owner */\n      dup6\n        /* \"contract/shit.sol\":4673:4691  _allowances[owner] */\n      0xffffffffffffffffffffffffffffffffffffffff\n      and\n      0xffffffffffffffffffffffffffffffffffffffff\n      and\n      dup2\n      mstore\n      0x20\n      add\n      swap1\n      dup2\n      mstore\n      0x20\n      add\n      0x00\n      keccak256\n        /* \"contract/shit.sol\":4673:4700  _allowances[owner][spender] */\n      0x00\n        /* \"contract/shit.sol\":4692:4699  spender */\n      dup5\n        /* \"contract/shit.sol\":4673:4700  _allowances[owner][spender] */\n      0xffffffffffffffffffffffffffffffffffffffff\n      and\n      0xffffffffffffffffffffffffffffffffffffffff\n      and\n      dup2\n      mstore\n      0x20\n      add\n      swap1\n      dup2\n      mstore\n      0x20\n      add\n      0x00\n      keccak256\n        /* \"contract/shit.sol\":4673:4709  _allowances[owner][spender] = amount */\n      dup2\n      swap1\n      sstore\n      pop\n        /* \"contract/shit.sol\":4740:4747  spender */\n      dup2\n        /* \"contract/shit.sol\":4724:4756  Approval(owner, spender, amount) */\n      0xffffffffffffffffffffffffffffffffffffffff\n      and\n        /* \"contract/shit.sol\":4733:4738  owner */\n      dup4\n        /* \"contract/shit.sol\":4724:4756  Approval(owner, spender, amount) */\n      0xffffffffffffffffffffffffffffffffffffffff\n      and\n      0x8c5be1e5ebec7d5bd14f71427d1e84f3dd0314c0f7b2291e5b200ac8c7c3b925\n        /* \"contract/shit.sol\":4749:4755  amount */\n      dup4\n        /* \"contract/shit.sol\":4724:4756  Approval(owner, spender, amount) */\n      mload(0x40)\n      tag_136\n      swap2\n      swap1\n      tag_31\n      jump\t// in\n    tag_136:\n      mload(0x40)\n      dup1\n      swap2\n      sub\n      swap1\n      log3\n        /* \"contract/shit.sol\":4393:4763  function _approve(... */\n      pop\n      pop\n      pop\n      jump\t// out\n        /* \"contract/shit.sol\":4769:5210  function _spendAllowance(... */\n    tag_90:\n        /* \"contract/shit.sol\":4899:4923  uint256 currentAllowance */\n      0x00\n        /* \"contract/shit.sol\":4926:4951  allowance(owner, spender) */\n      tag_138\n        /* \"contract/shit.sol\":4936:4941  owner */\n      dup5\n        /* \"contract/shit.sol\":4943:4950  spender */\n      dup5\n        /* \"contract/shit.sol\":4926:4935  allowance */\n      tag_72\n        /* \"contract/shit.sol\":4926:4951  allowance(owner, spender) */\n      jump\t// in\n    tag_138:\n        /* \"contract/shit.sol\":4899:4951  uint256 currentAllowance = allowance(owner, spender) */\n      swap1\n      pop\n        /* \"contract/shit.sol\":4985:5002  type(uint256).max */\n      0xffffffffffffffffffffffffffffffffffffffffffffffffffffffffffffffff\n        /* \"contract/shit.sol\":4965:4981  currentAllowance */\n      dup2\n        /* \"contract/shit.sol\":4965:5002  currentAllowance != type(uint256).max */\n      eq\n        /* \"contract/shit.sol\":4961:5204  if (currentAllowance != type(uint256).max) {... */\n      tag_139\n      jumpi\n        /* \"contract/shit.sol\":5046:5052  amount */\n      dup2\n        /* \"contract/shit.sol\":5026:5042  currentAllowance */\n      dup2\n        /* \"contract/shit.sol\":5026:5052  currentAllowance >= amount */\n      lt\n      iszero\n        /* \"contract/shit.sol\":5018:5086  require(currentAllowance >= amount, \"ERC20: insufficient allowance\") */\n      tag_140\n      jumpi\n      mload(0x40)\n      0x08c379a000000000000000000000000000000000000000000000000000000000\n      dup2\n      mstore\n      0x04\n      add\n      tag_141\n      swap1\n      tag_142\n      jump\t// in\n    tag_141:\n      mload(0x40)\n      dup1\n      swap2\n      sub\n      swap1\n      revert\n    tag_140:\n        /* \"contract/shit.sol\":5128:5179  _approve(owner, spender, currentAllowance - amount) */\n      tag_143\n        /* \"contract/shit.sol\":5137:5142  owner */\n      dup5\n        /* \"contract/shit.sol\":5144:5151  spender */\n      dup5\n        /* \"contract/shit.sol\":5172:5178  amount */\n      dup5\n        /* \"contract/shit.sol\":5153:5169  currentAllowance */\n      dup5\n        /* \"contract/shit.sol\":5153:5178  currentAllowance - amount */\n      sub\n        /* \"contract/shit.sol\":5128:5136  _approve */\n      tag_85\n        /* \"contract/shit.sol\":5128:5179  _approve(owner, spender, currentAllowance - amount) */\n      jump\t// in\n    tag_143:\n        /* \"contract/shit.sol\":4961:5204  if (currentAllowance != type(uint256).max) {... */\n    tag_139:\n        /* \"contract/shit.sol\":4889:5210  {... */\n      pop\n        /* \"contract/shit.sol\":4769:5210  function _spendAllowance(... */\n      pop\n      pop\n      pop\n      jump\t// out\n        /* \"contract/shit.sol\":2759:3410  function _transfer(... */\n    tag_92:\n        /* \"contract/shit.sol\":2901:2902  0 */\n      0x00\n        /* \"contract/shit.sol\":2885:2903  from != address(0) */\n      0xffffffffffffffffffffffffffffffffffffffff\n      and\n        /* \"contract/shit.sol\":2885:2889  from */\n      dup4\n        /* \"contract/shit.sol\":2885:2903  from != address(0) */\n      0xffffffffffffffffffffffffffffffffffffffff\n      and\n      eq\n      iszero\n        /* \"contract/shit.sol\":2877:2945  require(from != address(0), \"ERC20: transfer from the zero address\") */\n      tag_145\n      jumpi\n      mload(0x40)\n      0x08c379a000000000000000000000000000000000000000000000000000000000\n      dup2\n      mstore\n      0x04\n      add\n      tag_146\n      swap1\n      tag_147\n      jump\t// in\n    tag_146:\n      mload(0x40)\n      dup1\n      swap2\n      sub\n      swap1\n      revert\n    tag_145:\n        /* \"contract/shit.sol\":2977:2978  0 */\n      0x00\n        /* \"contract/shit.sol\":2963:2979  to != address(0) */\n      0xffffffffffffffffffffffffffffffffffffffff\n      and\n        /* \"contract/shit.sol\":2963:2965  to */\n      dup3\n        /* \"contract/shit.sol\":2963:2979  to != address(0) */\n      0xffffffffffffffffffffffffffffffffffffffff\n      and\n      eq\n      iszero\n        /* \"contract/shit.sol\":2955:3019  require(to != address(0), \"ERC20: transfer to the zero address\") */\n      tag_148\n      jumpi\n      mload(0x40)\n      0x08c379a000000000000000000000000000000000000000000000000000000000\n      dup2\n      mstore\n      0x04\n      add\n      tag_149\n      swap1\n      tag_150\n      jump\t// in\n    tag_149:\n      mload(0x40)\n      dup1\n      swap2\n      sub\n      swap1\n      revert\n    tag_148:\n        /* \"contract/shit.sol\":3030:3068  _beforeTokenTransfer(from, to, amount) */\n      tag_151\n        /* \"contract/shit.sol\":3051:3055  from */\n      dup4\n        /* \"contract/shit.sol\":3057:3059  to */\n      dup4\n        /* \"contract/shit.sol\":3061:3067  amount */\n      dup4\n        /* \"contract/shit.sol\":3030:3050  _beforeTokenTransfer */\n      tag_152\n        /* \"contract/shit.sol\":3030:3068  _beforeTokenTransfer(from, to, amount) */\n      jump\t// in\n    tag_151:\n        /* \"contract/shit.sol\":3079:3098  uint256 fromBalance */\n      0x00\n        /* \"contract/shit.sol\":3101:3110  _balances */\n      dup1\n        /* \"contract/shit.sol\":3101:3116  _balances[from] */\n      0x00\n        /* \"contract/shit.sol\":3111:3115  from */\n      dup6\n        /* \"contract/shit.sol\":3101:3116  _balances[from] */\n      0xffffffffffffffffffffffffffffffffffffffff\n      and\n      0xffffffffffffffffffffffffffffffffffffffff\n      and\n      dup2\n      mstore\n      0x20\n      add\n      swap1\n      dup2\n      mstore\n      0x20\n      add\n      0x00\n      keccak256\n      sload\n        /* \"contract/shit.sol\":3079:3116  uint256 fromBalance = _balances[from] */\n      swap1\n      pop\n        /* \"contract/shit.sol\":3149:3155  amount */\n      dup2\n        /* \"contract/shit.sol\":3134:3145  fromBalance */\n      dup2\n        /* \"contract/shit.sol\":3134:3155  fromBalance >= amount */\n      lt\n      iszero\n        /* \"contract/shit.sol\":3126:3198  require(fromBalance >= amount, \"ERC20: transfer amount exceeds balance\") */\n      tag_153\n      jumpi\n      mload(0x40)\n      0x08c379a000000000000000000000000000000000000000000000000000000000\n      dup2\n      mstore\n      0x04\n      add\n      tag_154\n      swap1\n      tag_155\n      jump\t// in\n    tag_154:\n      mload(0x40)\n      dup1\n      swap2\n      sub\n      swap1\n      revert\n    tag_153:\n        /* \"contract/shit.sol\":3264:3270  amount */\n      dup2\n        /* \"contract/shit.sol\":3250:3261  fromBalance */\n      dup2\n        /* \"contract/shit.sol\":3250:3270  fromBalance - amount */\n      sub\n        /* \"contract/shit.sol\":3232:3241  _balances */\n      0x00\n        /* \"contract/shit.sol\":3232:3247  _balances[from] */\n      dup1\n        /* \"contract/shit.sol\":3242:3246  from */\n      dup7\n        /* \"contract/shit.sol\":3232:3247  _balances[from] */\n      0xffffffffffffffffffffffffffffffffffffffff\n      and\n      0xffffffffffffffffffffffffffffffffffffffff\n      and\n      dup2\n      mstore\n      0x20\n      add\n      swap1\n      dup2\n      mstore\n      0x20\n      add\n      0x00\n      keccak256\n        /* \"contract/shit.sol\":3232:3270  _balances[from] = fromBalance - amount */\n      dup2\n      swap1\n      sstore\n      pop\n        /* \"contract/shit.sol\":3307:3313  amount */\n      dup2\n        /* \"contract/shit.sol\":3290:3299  _balances */\n      0x00\n        /* \"contract/shit.sol\":3290:3303  _balances[to] */\n      dup1\n        /* \"contract/shit.sol\":3300:3302  to */\n      dup6\n        /* \"contract/shit.sol\":3290:3303  _balances[to] */\n      0xffffffffffffffffffffffffffffffffffffffff\n      and\n      0xffffffffffffffffffffffffffffffffffffffff\n      and\n      dup2\n      mstore\n      0x20\n      add\n      swap1\n      dup2\n      mstore\n      0x20\n      add\n      0x00\n      keccak256\n      0x00\n        /* \"contract/shit.sol\":3290:3313  _balances[to] += amount */\n      dup3\n      dup3\n      sload\n      tag_156\n      swap2\n      swap1\n      tag_98\n      jump\t// in\n    tag_156:\n      swap3\n      pop\n      pop\n      dup2\n      swap1\n      sstore\n      pop\n        /* \"contract/shit.sol\":3344:3346  to */\n      dup3\n        /* \"contract/shit.sol\":3329:3355  Transfer(from, to, amount) */\n      0xffffffffffffffffffffffffffffffffffffffff\n      and\n        /* \"contract/shit.sol\":3338:3342  from */\n      dup5\n        /* \"contract/shit.sol\":3329:3355  Transfer(from, to, amount) */\n      0xffffffffffffffffffffffffffffffffffffffff\n      and\n      0xddf252ad1be2c89b69c2b068fc378daa952ba7f163c4a11628f55a4df523b3ef\n        /* \"contract/shit.sol\":3348:3354  amount */\n      dup5\n        /* \"contract/shit.sol\":3329:3355  Transfer(from, to, amount) */\n      mload(0x40)\n      tag_157\n      swap2\n      swap1\n      tag_31\n      jump\t// in\n    tag_157:\n      mload(0x40)\n      dup1\n      swap2\n      sub\n      swap1\n      log3\n        /* \"contract/shit.sol\":3366:3403  _afterTokenTransfer(from, to, amount) */\n      tag_158\n        /* \"contract/shit.sol\":3386:3390  from */\n      dup5\n        /* \"contract/shit.sol\":3392:3394  to */\n      dup5\n        /* \"contract/shit.sol\":3396:3402  amount */\n      dup5\n        /* \"contract/shit.sol\":3366:3385  _afterTokenTransfer */\n      tag_159\n        /* \"contract/shit.sol\":3366:3403  _afterTokenTransfer(from, to, amount) */\n      jump\t// in\n    tag_158:\n        /* \"contract/shit.sol\":2867:3410  {... */\n      pop\n        /* \"contract/shit.sol\":2759:3410  function _transfer(... */\n      pop\n      pop\n      pop\n      jump\t// out\n        /* \"contract/shit.sol\":5216:5337  function _beforeTokenTransfer(... */\n    tag_152:\n      pop\n      pop\n      pop\n      jump\t// out\n        /* \"contract/shit.sol\":5343:5463  function _afterTokenTransfer(... */\n    tag_159:\n      pop\n      pop\n      pop\n      jump\t// out\n        /* \"#utility.yul\":7:146   */\n    tag_163:\n        /* \"#utility.yul\":53:58   */\n      0x00\n        /* \"#utility.yul\":91:97   */\n      dup2\n        /* \"#utility.yul\":78:98   */\n      calldataload\n        /* \"#utility.yul\":69:98   */\n      swap1\n      pop\n        /* \"#utility.yul\":107:140   */\n      tag_165\n        /* \"#utility.yul\":134:139   */\n      dup2\n        /* \"#utility.yul\":107:140   */\n      tag_166\n      jump\t// in\n    tag_165:\n        /* \"#utility.yul\":7:146   */\n      swap3\n      swap2\n      pop\n      pop\n      jump\t// out\n        /* \"#utility.yul\":152:291   */\n    tag_167:\n        /* \"#utility.yul\":198:203   */\n      0x00\n        /* \"#utility.yul\":236:242   */\n      dup2\n        /* \"#utility.yul\":223:243   */\n      calldataload\n        /* \"#utility.yul\":214:243   */\n      swap1\n      pop\n        /* \"#utility.yul\":252:285   */\n      tag_169\n        /* \"#utility.yul\":279:284   */\n      dup2\n        /* \"#utility.yul\":252:285   */\n      tag_170\n      jump\t// in\n    tag_169:\n        /* \"#utility.yul\":152:291   */\n      swap3\n      swap2\n      pop\n      pop\n      jump\t// out\n        /* \"#utility.yul\":297:626   */\n    tag_47:\n        /* \"#utility.yul\":356:362   */\n      0x00\n        /* \"#utility.yul\":405:407   */\n      0x20\n        /* \"#utility.yul\":393:402   */\n      dup3\n        /* \"#utility.yul\":384:391   */\n      dup5\n        /* \"#utility.yul\":380:403   */\n      sub\n        /* \"#utility.yul\":376:408   */\n      slt\n        /* \"#utility.yul\":373:492   */\n      iszero\n      tag_172\n      jumpi\n        /* \"#utility.yul\":411:490   */\n      tag_173\n      tag_174\n      jump\t// in\n    tag_173:\n        /* \"#utility.yul\":373:492   */\n    tag_172:\n        /* \"#utility.yul\":531:532   */\n      0x00\n        /* \"#utility.yul\":556:609   */\n      tag_175\n        /* \"#utility.yul\":601:608   */\n      dup5\n        /* \"#utility.yul\":592:598   */\n      dup3\n        /* \"#utility.yul\":581:590   */\n      dup6\n        /* \"#utility.yul\":577:599   */\n      add\n        /* \"#utility.yul\":556:609   */\n      tag_163\n      jump\t// in\n    tag_175:\n        /* \"#utility.yul\":546:609   */\n      swap2\n      pop\n        /* \"#utility.yul\":502:619   */\n      pop\n        /* \"#utility.yul\":297:626   */\n      swap3\n      swap2\n      pop\n      pop\n      jump\t// out\n        /* \"#utility.yul\":632:1106   */\n    tag_71:\n        /* \"#utility.yul\":700:706   */\n      0x00\n        /* \"#utility.yul\":708:714   */\n      dup1\n        /* \"#utility.yul\":757:759   */\n      0x40\n        /* \"#utility.yul\":745:754   */\n      dup4\n        /* \"#utility.yul\":736:743   */\n      dup6\n        /* \"#utility.yul\":732:755   */\n      sub\n        /* \"#utility.yul\":728:760   */\n      slt\n        /* \"#utility.yul\":725:844   */\n      iszero\n      tag_177\n      jumpi\n        /* \"#utility.yul\":763:842   */\n      tag_178\n      tag_174\n      jump\t// in\n    tag_178:\n        /* \"#utility.yul\":725:844   */\n    tag_177:\n        /* \"#utility.yul\":883:884   */\n      0x00\n        /* \"#utility.yul\":908:961   */\n      tag_179\n        /* \"#utility.yul\":953:960   */\n      dup6\n        /* \"#utility.yul\":944:950   */\n      dup3\n        /* \"#utility.yul\":933:942   */\n      dup7\n        /* \"#utility.yul\":929:951   */\n      add\n        /* \"#utility.yul\":908:961   */\n      tag_163\n      jump\t// in\n    tag_179:\n        /* \"#utility.yul\":898:961   */\n      swap3\n      pop\n        /* \"#utility.yul\":854:971   */\n      pop\n        /* \"#utility.yul\":1010:1012   */\n      0x20\n        /* \"#utility.yul\":1036:1089   */\n      tag_180\n        /* \"#utility.yul\":1081:1088   */\n      dup6\n        /* \"#utility.yul\":1072:1078   */\n      dup3\n        /* \"#utility.yul\":1061:1070   */\n      dup7\n        /* \"#utility.yul\":1057:1079   */\n      add\n        /* \"#utility.yul\":1036:1089   */\n      tag_163\n      jump\t// in\n    tag_180:\n        /* \"#utility.yul\":1026:1089   */\n      swap2\n      pop\n        /* \"#utility.yul\":981:1099   */\n      pop\n        /* \"#utility.yul\":632:1106   */\n      swap3\n      pop\n      swap3\n      swap1\n      pop\n      jump\t// out\n        /* \"#utility.yul\":1112:1731   */\n    tag_34:\n        /* \"#utility.yul\":1189:1195   */\n      0x00\n        /* \"#utility.yul\":1197:1203   */\n      dup1\n        /* \"#utility.yul\":1205:1211   */\n      0x00\n        /* \"#utility.yul\":1254:1256   */\n      0x60\n        /* \"#utility.yul\":1242:1251   */\n      dup5\n        /* \"#utility.yul\":1233:1240   */\n      dup7\n        /* \"#utility.yul\":1229:1252   */\n      sub\n        /* \"#utility.yul\":1225:1257   */\n      slt\n        /* \"#utility.yul\":1222:1341   */\n      iszero\n      tag_182\n      jumpi\n        /* \"#utility.yul\":1260:1339   */\n      tag_183\n      tag_174\n      jump\t// in\n    tag_183:\n        /* \"#utility.yul\":1222:1341   */\n    tag_182:\n        /* \"#utility.yul\":1380:1381   */\n      0x00\n        /* \"#utility.yul\":1405:1458   */\n      tag_184\n        /* \"#utility.yul\":1450:1457   */\n      dup7\n        /* \"#utility.yul\":1441:1447   */\n      dup3\n        /* \"#utility.yul\":1430:1439   */\n      dup8\n        /* \"#utility.yul\":1426:1448   */\n      add\n        /* \"#utility.yul\":1405:1458   */\n      tag_163\n      jump\t// in\n    tag_184:\n        /* \"#utility.yul\":1395:1458   */\n      swap4\n      pop\n        /* \"#utility.yul\":1351:1468   */\n      pop\n        /* \"#utility.yul\":1507:1509   */\n      0x20\n        /* \"#utility.yul\":1533:1586   */\n      tag_185\n        /* \"#utility.yul\":1578:1585   */\n      dup7\n        /* \"#utility.yul\":1569:1575   */\n      dup3\n        /* \"#utility.yul\":1558:1567   */\n      dup8\n        /* \"#utility.yul\":1554:1576   */\n      add\n        /* \"#utility.yul\":1533:1586   */\n      tag_163\n      jump\t// in\n    tag_185:\n        /* \"#utility.yul\":1523:1586   */\n      swap3\n      pop\n        /* \"#utility.yul\":1478:1596   */\n      pop\n        /* \"#utility.yul\":1635:1637   */\n      0x40\n        /* \"#utility.yul\":1661:1714   */\n      tag_186\n        /* \"#utility.yul\":1706:1713   */\n      dup7\n        /* \"#utility.yul\":1697:1703   */\n      dup3\n        /* \"#utility.yul\":1686:1695   */\n      dup8\n        /* \"#utility.yul\":1682:1704   */\n      add\n        /* \"#utility.yul\":1661:1714   */\n      tag_167\n      jump\t// in\n    tag_186:\n        /* \"#utility.yul\":1651:1714   */\n      swap2\n      pop\n        /* \"#utility.yul\":1606:1724   */\n      pop\n        /* \"#utility.yul\":1112:1731   */\n      swap3\n      pop\n      swap3\n      pop\n      swap3\n      jump\t// out\n        /* \"#utility.yul\":1737:2211   */\n    tag_24:\n        /* \"#utility.yul\":1805:1811   */\n      0x00\n        /* \"#utility.yul\":1813:1819   */\n      dup1\n        /* \"#utility.yul\":1862:1864   */\n      0x40\n        /* \"#utility.yul\":1850:1859   */\n      dup4\n        /* \"#utility.yul\":1841:1848   */\n      dup6\n        /* \"#utility.yul\":1837:1860   */\n      sub\n        /* \"#utility.yul\":1833:1865   */\n      slt\n        /* \"#utility.yul\":1830:1949   */\n      iszero\n      tag_188\n      jumpi\n        /* \"#utility.yul\":1868:1947   */\n      tag_189\n      tag_174\n      jump\t// in\n    tag_189:\n        /* \"#utility.yul\":1830:1949   */\n    tag_188:\n        /* \"#utility.yul\":1988:1989   */\n      0x00\n        /* \"#utility.yul\":2013:2066   */\n      tag_190\n        /* \"#utility.yul\":2058:2065   */\n      dup6\n        /* \"#utility.yul\":2049:2055   */\n      dup3\n        /* \"#utility.yul\":2038:2047   */\n      dup7\n        /* \"#utility.yul\":2034:2056   */\n      add\n        /* \"#utility.yul\":2013:2066   */\n      tag_163\n      jump\t// in\n    tag_190:\n        /* \"#utility.yul\":2003:2066   */\n      swap3\n      pop\n        /* \"#utility.yul\":1959:2076   */\n      pop\n        /* \"#utility.yul\":2115:2117   */\n      0x20\n        /* \"#utility.yul\":2141:2194   */\n      tag_191\n        /* \"#utility.yul\":2186:2193   */\n      dup6\n        /* \"#utility.yul\":2177:2183   */\n      dup3\n        /* \"#utility.yul\":2166:2175   */\n      dup7\n        /* \"#utility.yul\":2162:2184   */\n      add\n        /* \"#utility.yul\":2141:2194   */\n      tag_167\n      jump\t// in\n    tag_191:\n        /* \"#utility.yul\":2131:2194   */\n      swap2\n      pop\n        /* \"#utility.yul\":2086:2204   */\n      pop\n        /* \"#utility.yul\":1737:2211   */\n      swap3\n      pop\n      swap3\n      swap1\n      pop\n      jump\t// out\n        /* \"#utility.yul\":2217:2546   */\n    tag_67:\n        /* \"#utility.yul\":2276:2282   */\n      0x00\n        /* \"#utility.yul\":2325:2327   */\n      0x20\n        /* \"#utility.yul\":2313:2322   */\n      dup3\n        /* \"#utility.yul\":2304:2311   */\n      dup5\n        /* \"#utility.yul\":2300:2323   */\n      sub\n        /* \"#utility.yul\":2296:2328   */\n      slt\n        /* \"#utility.yul\":2293:2412   */\n      iszero\n      tag_193\n      jumpi\n        /* \"#utility.yul\":2331:2410   */\n      tag_194\n      tag_174\n      jump\t// in\n    tag_194:\n        /* \"#utility.yul\":2293:2412   */\n    tag_193:\n        /* \"#utility.yul\":2451:2452   */\n      0x00\n        /* \"#utility.yul\":2476:2529   */\n      tag_195\n        /* \"#utility.yul\":2521:2528   */\n      dup5\n        /* \"#utility.yul\":2512:2518   */\n      dup3\n        /* \"#utility.yul\":2501:2510   */\n      dup6\n        /* \"#utility.yul\":2497:2519   */\n      add\n        /* \"#utility.yul\":2476:2529   */\n      tag_167\n      jump\t// in\n    tag_195:\n        /* \"#utility.yul\":2466:2529   */\n      swap2\n      pop\n        /* \"#utility.yul\":2422:2539   */\n      pop\n        /* \"#utility.yul\":2217:2546   */\n      swap3\n      swap2\n      pop\n      pop\n      jump\t// out\n        /* \"#utility.yul\":2552:2670   */\n    tag_196:\n        /* \"#utility.yul\":2639:2663   */\n      tag_198\n        /* \"#utility.yul\":2657:2662   */\n      dup2\n        /* \"#utility.yul\":2639:2663   */\n      tag_199\n      jump\t// in\n    tag_198:\n        /* \"#utility.yul\":2634:2637   */\n      dup3\n        /* \"#utility.yul\":2627:2664   */\n      mstore\n        /* \"#utility.yul\":2552:2670   */\n      pop\n      pop\n      jump\t// out\n        /* \"#utility.yul\":2676:2785   */\n    tag_200:\n        /* \"#utility.yul\":2757:2778   */\n      tag_202\n        /* \"#utility.yul\":2772:2777   */\n      dup2\n        /* \"#utility.yul\":2757:2778   */\n      tag_203\n      jump\t// in\n    tag_202:\n        /* \"#utility.yul\":2752:2755   */\n      dup3\n        /* \"#utility.yul\":2745:2779   */\n      mstore\n        /* \"#utility.yul\":2676:2785   */\n      pop\n      pop\n      jump\t// out\n        /* \"#utility.yul\":2791:3155   */\n    tag_204:\n        /* \"#utility.yul\":2879:2882   */\n      0x00\n        /* \"#utility.yul\":2907:2946   */\n      tag_206\n        /* \"#utility.yul\":2940:2945   */\n      dup3\n        /* \"#utility.yul\":2907:2946   */\n      tag_207\n      jump\t// in\n    tag_206:\n        /* \"#utility.yul\":2962:3033   */\n      tag_208\n        /* \"#utility.yul\":3026:3032   */\n      dup2\n        /* \"#utility.yul\":3021:3024   */\n      dup6\n        /* \"#utility.yul\":2962:3033   */\n      tag_209\n      jump\t// in\n    tag_208:\n        /* \"#utility.yul\":2955:3033   */\n      swap4\n      pop\n        /* \"#utility.yul\":3042:3094   */\n      tag_210\n        /* \"#utility.yul\":3087:3093   */\n      dup2\n        /* \"#utility.yul\":3082:3085   */\n      dup6\n        /* \"#utility.yul\":3075:3079   */\n      0x20\n        /* \"#utility.yul\":3068:3073   */\n      dup7\n        /* \"#utility.yul\":3064:3080   */\n      add\n        /* \"#utility.yul\":3042:3094   */\n      tag_211\n      jump\t// in\n    tag_210:\n        /* \"#utility.yul\":3119:3148   */\n      tag_212\n        /* \"#utility.yul\":3141:3147   */\n      dup2\n        /* \"#utility.yul\":3119:3148   */\n      tag_213\n      jump\t// in\n    tag_212:\n        /* \"#utility.yul\":3114:3117   */\n      dup5\n        /* \"#utility.yul\":3110:3149   */\n      add\n        /* \"#utility.yul\":3103:3149   */\n      swap2\n      pop\n        /* \"#utility.yul\":2883:3155   */\n      pop\n        /* \"#utility.yul\":2791:3155   */\n      swap3\n      swap2\n      pop\n      pop\n      jump\t// out\n        /* \"#utility.yul\":3161:3527   */\n    tag_214:\n        /* \"#utility.yul\":3303:3306   */\n      0x00\n        /* \"#utility.yul\":3324:3391   */\n      tag_216\n        /* \"#utility.yul\":3388:3390   */\n      0x23\n        /* \"#utility.yul\":3383:3386   */\n      dup4\n        /* \"#utility.yul\":3324:3391   */\n      tag_209\n      jump\t// in\n    tag_216:\n        /* \"#utility.yul\":3317:3391   */\n      swap2\n      pop\n        /* \"#utility.yul\":3400:3493   */\n      tag_217\n        /* \"#utility.yul\":3489:3492   */\n      dup3\n        /* \"#utility.yul\":3400:3493   */\n      tag_218\n      jump\t// in\n    tag_217:\n        /* \"#utility.yul\":3518:3520   */\n      0x40\n        /* \"#utility.yul\":3513:3516   */\n      dup3\n        /* \"#utility.yul\":3509:3521   */\n      add\n        /* \"#utility.yul\":3502:3521   */\n      swap1\n      pop\n        /* \"#utility.yul\":3161:3527   */\n      swap2\n      swap1\n      pop\n      jump\t// out\n        /* \"#utility.yul\":3533:3899   */\n    tag_219:\n        /* \"#utility.yul\":3675:3678   */\n      0x00\n        /* \"#utility.yul\":3696:3763   */\n      tag_221\n        /* \"#utility.yul\":3760:3762   */\n      0x22\n        /* \"#utility.yul\":3755:3758   */\n      dup4\n        /* \"#utility.yul\":3696:3763   */\n      tag_209\n      jump\t// in\n    tag_221:\n        /* \"#utility.yul\":3689:3763   */\n      swap2\n      pop\n        /* \"#utility.yul\":3772:3865   */\n      tag_222\n        /* \"#utility.yul\":3861:3864   */\n      dup3\n        /* \"#utility.yul\":3772:3865   */\n      tag_223\n      jump\t// in\n    tag_222:\n        /* \"#utility.yul\":3890:3892   */\n      0x40\n        /* \"#utility.yul\":3885:3888   */\n      dup3\n        /* \"#utility.yul\":3881:3893   */\n      add\n        /* \"#utility.yul\":3874:3893   */\n      swap1\n      pop\n        /* \"#utility.yul\":3533:3899   */\n      swap2\n      swap1\n      pop\n      jump\t// out\n        /* \"#utility.yul\":3905:4271   */\n    tag_224:\n        /* \"#utility.yul\":4047:4050   */\n      0x00\n        /* \"#utility.yul\":4068:4135   */\n      tag_226\n        /* \"#utility.yul\":4132:4134   */\n      0x1d\n        /* \"#utility.yul\":4127:4130   */\n      dup4\n        /* \"#utility.yul\":4068:4135   */\n      tag_209\n      jump\t// in\n    tag_226:\n        /* \"#utility.yul\":4061:4135   */\n      swap2\n      pop\n        /* \"#utility.yul\":4144:4237   */\n      tag_227\n        /* \"#utility.yul\":4233:4236   */\n      dup3\n        /* \"#utility.yul\":4144:4237   */\n      tag_228\n      jump\t// in\n    tag_227:\n        /* \"#utility.yul\":4262:4264   */\n      0x20\n        /* \"#utility.yul\":4257:4260   */\n      dup3\n        /* \"#utility.yul\":4253:4265   */\n      add\n        /* \"#utility.yul\":4246:4265   */\n      swap1\n      pop\n        /* \"#utility.yul\":3905:4271   */\n      swap2\n      swap1\n      pop\n      jump\t// out\n        /* \"#utility.yul\":4277:4643   */\n    tag_229:\n        /* \"#utility.yul\":4419:4422   */\n      0x00\n        /* \"#utility.yul\":4440:4507   */\n      tag_231\n        /* \"#utility.yul\":4504:4506   */\n      0x26\n        /* \"#utility.yul\":4499:4502   */\n      dup4\n        /* \"#utility.yul\":4440:4507   */\n      tag_209\n      jump\t// in\n    tag_231:\n        /* \"#utility.yul\":4433:4507   */\n      swap2\n      pop\n        /* \"#utility.yul\":4516:4609   */\n      tag_232\n        /* \"#utility.yul\":4605:4608   */\n      dup3\n        /* \"#utility.yul\":4516:4609   */\n      tag_233\n      jump\t// in\n    tag_232:\n        /* \"#utility.yul\":4634:4636   */\n      0x40\n        /* \"#utility.yul\":4629:4632   */\n      dup3\n        /* \"#utility.yul\":4625:4637   */\n      add\n        /* \"#utility.yul\":4618:4637   */\n      swap1\n      pop\n        /* \"#utility.yul\":4277:4643   */\n      swap2\n      swap1\n      pop\n      jump\t// out\n        /* \"#utility.yul\":4649:5015   */\n    tag_234:\n        /* \"#utility.yul\":4791:4794   */\n      0x00\n        /* \"#utility.yul\":4812:4879   */\n      tag_236\n        /* \"#utility.yul\":4876:4878   */\n      0x25\n        /* \"#utility.yul\":4871:4874   */\n      dup4\n        /* \"#utility.yul\":4812:4879   */\n      tag_209\n      jump\t// in\n    tag_236:\n        /* \"#utility.yul\":4805:4879   */\n      swap2\n      pop\n        /* \"#utility.yul\":4888:4981   */\n      tag_237\n        /* \"#utility.yul\":4977:4980   */\n      dup3\n        /* \"#utility.yul\":4888:4981   */\n      tag_238\n      jump\t// in\n    tag_237:\n        /* \"#utility.yul\":5006:5008   */\n      0x40\n        /* \"#utility.yul\":5001:5004   */\n      dup3\n        /* \"#utility.yul\":4997:5009   */\n      add\n        /* \"#utility.yul\":4990:5009   */\n      swap1\n      pop\n        /* \"#utility.yul\":4649:5015   */\n      swap2\n      swap1\n      pop\n      jump\t// out\n        /* \"#utility.yul\":5021:5387   */\n    tag_239:\n        /* \"#utility.yul\":5163:5166   */\n      0x00\n        /* \"#utility.yul\":5184:5251   */\n      tag_241\n        /* \"#utility.yul\":5248:5250   */\n      0x24\n        /* \"#utility.yul\":5243:5246   */\n      dup4\n        /* \"#utility.yul\":5184:5251   */\n      tag_209\n      jump\t// in\n    tag_241:\n        /* \"#utility.yul\":5177:5251   */\n      swap2\n      pop\n        /* \"#utility.yul\":5260:5353   */\n      tag_242\n        /* \"#utility.yul\":5349:5352   */\n      dup3\n        /* \"#utility.yul\":5260:5353   */\n      tag_243\n      jump\t// in\n    tag_242:\n        /* \"#utility.yul\":5378:5380   */\n      0x40\n        /* \"#utility.yul\":5373:5376   */\n      dup3\n        /* \"#utility.yul\":5369:5381   */\n      add\n        /* \"#utility.yul\":5362:5381   */\n      swap1\n      pop\n        /* \"#utility.yul\":5021:5387   */\n      swap2\n      swap1\n      pop\n      jump\t// out\n        /* \"#utility.yul\":5393:5759   */\n    tag_244:\n        /* \"#utility.yul\":5535:5538   */\n      0x00\n        /* \"#utility.yul\":5556:5623   */\n      tag_246\n        /* \"#utility.yul\":5620:5622   */\n      0x0a\n        /* \"#utility.yul\":5615:5618   */\n      dup4\n        /* \"#utility.yul\":5556:5623   */\n      tag_209\n      jump\t// in\n    tag_246:\n        /* \"#utility.yul\":5549:5623   */\n      swap2\n      pop\n        /* \"#utility.yul\":5632:5725   */\n      tag_247\n        /* \"#utility.yul\":5721:5724   */\n      dup3\n        /* \"#utility.yul\":5632:5725   */\n      tag_248\n      jump\t// in\n    tag_247:\n        /* \"#utility.yul\":5750:5752   */\n      0x20\n        /* \"#utility.yul\":5745:5748   */\n      dup3\n        /* \"#utility.yul\":5741:5753   */\n      add\n        /* \"#utility.yul\":5734:5753   */\n      swap1\n      pop\n        /* \"#utility.yul\":5393:5759   */\n      swap2\n      swap1\n      pop\n      jump\t// out\n        /* \"#utility.yul\":5765:6131   */\n    tag_249:\n        /* \"#utility.yul\":5907:5910   */\n      0x00\n        /* \"#utility.yul\":5928:5995   */\n      tag_251\n        /* \"#utility.yul\":5992:5994   */\n      0x25\n        /* \"#utility.yul\":5987:5990   */\n      dup4\n        /* \"#utility.yul\":5928:5995   */\n      tag_209\n      jump\t// in\n    tag_251:\n        /* \"#utility.yul\":5921:5995   */\n      swap2\n      pop\n        /* \"#utility.yul\":6004:6097   */\n      tag_252\n        /* \"#utility.yul\":6093:6096   */\n      dup3\n        /* \"#utility.yul\":6004:6097   */\n      tag_253\n      jump\t// in\n    tag_252:\n        /* \"#utility.yul\":6122:6124   */\n      0x40\n        /* \"#utility.yul\":6117:6120   */\n      dup3\n        /* \"#utility.yul\":6113:6125   */\n      add\n        /* \"#utility.yul\":6106:6125   */\n      swap1\n      pop\n        /* \"#utility.yul\":5765:6131   */\n      swap2\n      swap1\n      pop\n      jump\t// out\n        /* \"#utility.yul\":6137:6255   */\n    tag_254:\n        /* \"#utility.yul\":6224:6248   */\n      tag_256\n        /* \"#utility.yul\":6242:6247   */\n      dup2\n        /* \"#utility.yul\":6224:6248   */\n      tag_257\n      jump\t// in\n    tag_256:\n        /* \"#utility.yul\":6219:6222   */\n      dup3\n        /* \"#utility.yul\":6212:6249   */\n      mstore\n        /* \"#utility.yul\":6137:6255   */\n      pop\n      pop\n      jump\t// out\n        /* \"#utility.yul\":6261:6373   */\n    tag_258:\n        /* \"#utility.yul\":6344:6366   */\n      tag_260\n        /* \"#utility.yul\":6360:6365   */\n      dup2\n        /* \"#utility.yul\":6344:6366   */\n      tag_261\n      jump\t// in\n    tag_260:\n        /* \"#utility.yul\":6339:6342   */\n      dup3\n        /* \"#utility.yul\":6332:6367   */\n      mstore\n        /* \"#utility.yul\":6261:6373   */\n      pop\n      pop\n      jump\t// out\n        /* \"#utility.yul\":6379:6601   */\n    tag_64:\n        /* \"#utility.yul\":6472:6476   */\n      0x00\n        /* \"#utility.yul\":6510:6512   */\n      0x20\n        /* \"#utility.yul\":6499:6508   */\n      dup3\n        /* \"#utility.yul\":6495:6513   */\n      add\n        /* \"#utility.yul\":6487:6513   */\n      swap1\n      pop\n        /* \"#utility.yul\":6523:6594   */\n      tag_263\n        /* \"#utility.yul\":6591:6592   */\n      0x00\n        /* \"#utility.yul\":6580:6589   */\n      dup4\n        /* \"#utility.yul\":6576:6593   */\n      add\n        /* \"#utility.yul\":6567:6573   */\n      dup5\n        /* \"#utility.yul\":6523:6594   */\n      tag_196\n      jump\t// in\n    tag_263:\n        /* \"#utility.yul\":6379:6601   */\n      swap3\n      swap2\n      pop\n      pop\n      jump\t// out\n        /* \"#utility.yul\":6607:6817   */\n    tag_27:\n        /* \"#utility.yul\":6694:6698   */\n      0x00\n        /* \"#utility.yul\":6732:6734   */\n      0x20\n        /* \"#utility.yul\":6721:6730   */\n      dup3\n        /* \"#utility.yul\":6717:6735   */\n      add\n        /* \"#utility.yul\":6709:6735   */\n      swap1\n      pop\n        /* \"#utility.yul\":6745:6810   */\n      tag_265\n        /* \"#utility.yul\":6807:6808   */\n      0x00\n        /* \"#utility.yul\":6796:6805   */\n      dup4\n        /* \"#utility.yul\":6792:6809   */\n      add\n        /* \"#utility.yul\":6783:6789   */\n      dup5\n        /* \"#utility.yul\":6745:6810   */\n      tag_200\n      jump\t// in\n    tag_265:\n        /* \"#utility.yul\":6607:6817   */\n      swap3\n      swap2\n      pop\n      pop\n      jump\t// out\n        /* \"#utility.yul\":6823:7136   */\n    tag_21:\n        /* \"#utility.yul\":6936:6940   */\n      0x00\n        /* \"#utility.yul\":6974:6976   */\n      0x20\n        /* \"#utility.yul\":6963:6972   */\n      dup3\n        /* \"#utility.yul\":6959:6977   */\n      add\n        /* \"#utility.yul\":6951:6977   */\n      swap1\n      pop\n        /* \"#utility.yul\":7023:7032   */\n      dup2\n        /* \"#utility.yul\":7017:7021   */\n      dup2\n        /* \"#utility.yul\":7013:7033   */\n      sub\n        /* \"#utility.yul\":7009:7010   */\n      0x00\n        /* \"#utility.yul\":6998:7007   */\n      dup4\n        /* \"#utility.yul\":6994:7011   */\n      add\n        /* \"#utility.yul\":6987:7034   */\n      mstore\n        /* \"#utility.yul\":7051:7129   */\n      tag_267\n        /* \"#utility.yul\":7124:7128   */\n      dup2\n        /* \"#utility.yul\":7115:7121   */\n      dup5\n        /* \"#utility.yul\":7051:7129   */\n      tag_204\n      jump\t// in\n    tag_267:\n        /* \"#utility.yul\":7043:7129   */\n      swap1\n      pop\n        /* \"#utility.yul\":6823:7136   */\n      swap3\n      swap2\n      pop\n      pop\n      jump\t// out\n        /* \"#utility.yul\":7142:7561   */\n    tag_150:\n        /* \"#utility.yul\":7308:7312   */\n      0x00\n        /* \"#utility.yul\":7346:7348   */\n      0x20\n        /* \"#utility.yul\":7335:7344   */\n      dup3\n        /* \"#utility.yul\":7331:7349   */\n      add\n        /* \"#utility.yul\":7323:7349   */\n      swap1\n      pop\n        /* \"#utility.yul\":7395:7404   */\n      dup2\n        /* \"#utility.yul\":7389:7393   */\n      dup2\n        /* \"#utility.yul\":7385:7405   */\n      sub\n        /* \"#utility.yul\":7381:7382   */\n      0x00\n        /* \"#utility.yul\":7370:7379   */\n      dup4\n        /* \"#utility.yul\":7366:7383   */\n      add\n        /* \"#utility.yul\":7359:7406   */\n      mstore\n        /* \"#utility.yul\":7423:7554   */\n      tag_269\n        /* \"#utility.yul\":7549:7553   */\n      dup2\n        /* \"#utility.yul\":7423:7554   */\n      tag_214\n      jump\t// in\n    tag_269:\n        /* \"#utility.yul\":7415:7554   */\n      swap1\n      pop\n        /* \"#utility.yul\":7142:7561   */\n      swap2\n      swap1\n      pop\n      jump\t// out\n        /* \"#utility.yul\":7567:7986   */\n    tag_135:\n        /* \"#utility.yul\":7733:7737   */\n      0x00\n        /* \"#utility.yul\":7771:7773   */\n      0x20\n        /* \"#utility.yul\":7760:7769   */\n      dup3\n        /* \"#utility.yul\":7756:7774   */\n      add\n        /* \"#utility.yul\":7748:7774   */\n      swap1\n      pop\n        /* \"#utility.yul\":7820:7829   */\n      dup2\n        /* \"#utility.yul\":7814:7818   */\n      dup2\n        /* \"#utility.yul\":7810:7830   */\n      sub\n        /* \"#utility.yul\":7806:7807   */\n      0x00\n        /* \"#utility.yul\":7795:7804   */\n      dup4\n        /* \"#utility.yul\":7791:7808   */\n      add\n        /* \"#utility.yul\":7784:7831   */\n      mstore\n        /* \"#utility.yul\":7848:7979   */\n      tag_271\n        /* \"#utility.yul\":7974:7978   */\n      dup2\n        /* \"#utility.yul\":7848:7979   */\n      tag_219\n      jump\t// in\n    tag_271:\n        /* \"#utility.yul\":7840:7979   */\n      swap1\n      pop\n        /* \"#utility.yul\":7567:7986   */\n      swap2\n      swap1\n      pop\n      jump\t// out\n        /* \"#utility.yul\":7992:8411   */\n    tag_142:\n        /* \"#utility.yul\":8158:8162   */\n      0x00\n        /* \"#utility.yul\":8196:8198   */\n      0x20\n        /* \"#utility.yul\":8185:8194   */\n      dup3\n        /* \"#utility.yul\":8181:8199   */\n      add\n        /* \"#utility.yul\":8173:8199   */\n      swap1\n      pop\n        /* \"#utility.yul\":8245:8254   */\n      dup2\n        /* \"#utility.yul\":8239:8243   */\n      dup2\n        /* \"#utility.yul\":8235:8255   */\n      sub\n        /* \"#utility.yul\":8231:8232   */\n      0x00\n        /* \"#utility.yul\":8220:8229   */\n      dup4\n        /* \"#utility.yul\":8216:8233   */\n      add\n        /* \"#utility.yul\":8209:8256   */\n      mstore\n        /* \"#utility.yul\":8273:8404   */\n      tag_273\n        /* \"#utility.yul\":8399:8403   */\n      dup2\n        /* \"#utility.yul\":8273:8404   */\n      tag_224\n      jump\t// in\n    tag_273:\n        /* \"#utility.yul\":8265:8404   */\n      swap1\n      pop\n        /* \"#utility.yul\":7992:8411   */\n      swap2\n      swap1\n      pop\n      jump\t// out\n        /* \"#utility.yul\":8417:8836   */\n    tag_155:\n        /* \"#utility.yul\":8583:8587   */\n      0x00\n        /* \"#utility.yul\":8621:8623   */\n      0x20\n        /* \"#utility.yul\":8610:8619   */\n      dup3\n        /* \"#utility.yul\":8606:8624   */\n      add\n        /* \"#utility.yul\":8598:8624   */\n      swap1\n      pop\n        /* \"#utility.yul\":8670:8679   */\n      dup2\n        /* \"#utility.yul\":8664:8668   */\n      dup2\n        /* \"#utility.yul\":8660:8680   */\n      sub\n        /* \"#utility.yul\":8656:8657   */\n      0x00\n        /* \"#utility.yul\":8645:8654   */\n      dup4\n        /* \"#utility.yul\":8641:8658   */\n      add\n        /* \"#utility.yul\":8634:8681   */\n      mstore\n        /* \"#utility.yul\":8698:8829   */\n      tag_275\n        /* \"#utility.yul\":8824:8828   */\n      dup2\n        /* \"#utility.yul\":8698:8829   */\n      tag_229\n      jump\t// in\n    tag_275:\n        /* \"#utility.yul\":8690:8829   */\n      swap1\n      pop\n        /* \"#utility.yul\":8417:8836   */\n      swap2\n      swap1\n      pop\n      jump\t// out\n        /* \"#utility.yul\":8842:9261   */\n    tag_147:\n        /* \"#utility.yul\":9008:9012   */\n      0x00\n        /* \"#utility.yul\":9046:9048   */\n      0x20\n        /* \"#utility.yul\":9035:9044   */\n      dup3\n        /* \"#utility.yul\":9031:9049   */\n      add\n        /* \"#utility.yul\":9023:9049   */\n      swap1\n      pop\n        /* \"#utility.yul\":9095:9104   */\n      dup2\n        /* \"#utility.yul\":9089:9093   */\n      dup2\n        /* \"#utility.yul\":9085:9105   */\n      sub\n        /* \"#utility.yul\":9081:9082   */\n      0x00\n        /* \"#utility.yul\":9070:9079   */\n      dup4\n        /* \"#utility.yul\":9066:9083   */\n      add\n        /* \"#utility.yul\":9059:9106   */\n      mstore\n        /* \"#utility.yul\":9123:9254   */\n      tag_277\n        /* \"#utility.yul\":9249:9253   */\n      dup2\n        /* \"#utility.yul\":9123:9254   */\n      tag_234\n      jump\t// in\n    tag_277:\n        /* \"#utility.yul\":9115:9254   */\n      swap1\n      pop\n        /* \"#utility.yul\":8842:9261   */\n      swap2\n      swap1\n      pop\n      jump\t// out\n        /* \"#utility.yul\":9267:9686   */\n    tag_132:\n        /* \"#utility.yul\":9433:9437   */\n      0x00\n        /* \"#utility.yul\":9471:9473   */\n      0x20\n        /* \"#utility.yul\":9460:9469   */\n      dup3\n        /* \"#utility.yul\":9456:9474   */\n      add\n        /* \"#utility.yul\":9448:9474   */\n      swap1\n      pop\n        /* \"#utility.yul\":9520:9529   */\n      dup2\n        /* \"#utility.yul\":9514:9518   */\n      dup2\n        /* \"#utility.yul\":9510:9530   */\n      sub\n        /* \"#utility.yul\":9506:9507   */\n      0x00\n        /* \"#utility.yul\":9495:9504   */\n      dup4\n        /* \"#utility.yul\":9491:9508   */\n      add\n        /* \"#utility.yul\":9484:9531   */\n      mstore\n        /* \"#utility.yul\":9548:9679   */\n      tag_279\n        /* \"#utility.yul\":9674:9678   */\n      dup2\n        /* \"#utility.yul\":9548:9679   */\n      tag_239\n      jump\t// in\n    tag_279:\n        /* \"#utility.yul\":9540:9679   */\n      swap1\n      pop\n        /* \"#utility.yul\":9267:9686   */\n      swap2\n      swap1\n      pop\n      jump\t// out\n        /* \"#utility.yul\":9692:10111   */\n    tag_118:\n        /* \"#utility.yul\":9858:9862   */\n      0x00\n        /* \"#utility.yul\":9896:9898   */\n      0x20\n        /* \"#utility.yul\":9885:9894   */\n      dup3\n        /* \"#utility.yul\":9881:9899   */\n      add\n        /* \"#utility.yul\":9873:9899   */\n      swap1\n      pop\n        /* \"#utility.yul\":9945:9954   */\n      dup2\n        /* \"#utility.yul\":9939:9943   */\n      dup2\n        /* \"#utility.yul\":9935:9955   */\n      sub\n        /* \"#utility.yul\":9931:9932   */\n      0x00\n        /* \"#utility.yul\":9920:9929   */\n      dup4\n        /* \"#utility.yul\":9916:9933   */\n      add\n        /* \"#utility.yul\":9909:9956   */\n      mstore\n        /* \"#utility.yul\":9973:10104   */\n      tag_281\n        /* \"#utility.yul\":10099:10103   */\n      dup2\n        /* \"#utility.yul\":9973:10104   */\n      tag_244\n      jump\t// in\n    tag_281:\n        /* \"#utility.yul\":9965:10104   */\n      swap1\n      pop\n        /* \"#utility.yul\":9692:10111   */\n      swap2\n      swap1\n      pop\n      jump\t// out\n        /* \"#utility.yul\":10117:10536   */\n    tag_110:\n        /* \"#utility.yul\":10283:10287   */\n      0x00\n        /* \"#utility.yul\":10321:10323   */\n      0x20\n        /* \"#utility.yul\":10310:10319   */\n      dup3\n        /* \"#utility.yul\":10306:10324   */\n      add\n        /* \"#utility.yul\":10298:10324   */\n      swap1\n      pop\n        /* \"#utility.yul\":10370:10379   */\n      dup2\n        /* \"#utility.yul\":10364:10368   */\n      dup2\n        /* \"#utility.yul\":10360:10380   */\n      sub\n        /* \"#utility.yul\":10356:10357   */\n      0x00\n        /* \"#utility.yul\":10345:10354   */\n      dup4\n        /* \"#utility.yul\":10341:10358   */\n      add\n        /* \"#utility.yul\":10334:10381   */\n      mstore\n        /* \"#utility.yul\":10398:10529   */\n      tag_283\n        /* \"#utility.yul\":10524:10528   */\n      dup2\n        /* \"#utility.yul\":10398:10529   */\n      tag_249\n      jump\t// in\n    tag_283:\n        /* \"#utility.yul\":10390:10529   */\n      swap1\n      pop\n        /* \"#utility.yul\":10117:10536   */\n      swap2\n      swap1\n      pop\n      jump\t// out\n        /* \"#utility.yul\":10542:10764   */\n    tag_31:\n        /* \"#utility.yul\":10635:10639   */\n      0x00\n        /* \"#utility.yul\":10673:10675   */\n      0x20\n        /* \"#utility.yul\":10662:10671   */\n      dup3\n        /* \"#utility.yul\":10658:10676   */\n      add\n        /* \"#utility.yul\":10650:10676   */\n      swap1\n      pop\n        /* \"#utility.yul\":10686:10757   */\n      tag_285\n        /* \"#utility.yul\":10754:10755   */\n      0x00\n        /* \"#utility.yul\":10743:10752   */\n      dup4\n        /* \"#utility.yul\":10739:10756   */\n      add\n        /* \"#utility.yul\":10730:10736   */\n      dup5\n        /* \"#utility.yul\":10686:10757   */\n      tag_254\n      jump\t// in\n    tag_285:\n        /* \"#utility.yul\":10542:10764   */\n      swap3\n      swap2\n      pop\n      pop\n      jump\t// out\n        /* \"#utility.yul\":10770:10984   */\n    tag_40:\n        /* \"#utility.yul\":10859:10863   */\n      0x00\n        /* \"#utility.yul\":10897:10899   */\n      0x20\n        /* \"#utility.yul\":10886:10895   */\n      dup3\n        /* \"#utility.yul\":10882:10900   */\n      add\n        /* \"#utility.yul\":10874:10900   */\n      swap1\n      pop\n        /* \"#utility.yul\":10910:10977   */\n      tag_287\n        /* \"#utility.yul\":10974:10975   */\n      0x00\n        /* \"#utility.yul\":10963:10972   */\n      dup4\n        /* \"#utility.yul\":10959:10976   */\n      add\n        /* \"#utility.yul\":10950:10956   */\n      dup5\n        /* \"#utility.yul\":10910:10977   */\n      tag_258\n      jump\t// in\n    tag_287:\n        /* \"#utility.yul\":10770:10984   */\n      swap3\n      swap2\n      pop\n      pop\n      jump\t// out\n        /* \"#utility.yul\":11071:11170   */\n    tag_207:\n        /* \"#utility.yul\":11123:11129   */\n      0x00\n        /* \"#utility.yul\":11157:11162   */\n      dup2\n        /* \"#utility.yul\":11151:11163   */\n      mload\n        /* \"#utility.yul\":11141:11163   */\n      swap1\n      pop\n        /* \"#utility.yul\":11071:11170   */\n      swap2\n      swap1\n      pop\n      jump\t// out\n        /* \"#utility.yul\":11176:11345   */\n    tag_209:\n        /* \"#utility.yul\":11260:11271   */\n      0x00\n        /* \"#utility.yul\":11294:11300   */\n      dup3\n        /* \"#utility.yul\":11289:11292   */\n      dup3\n        /* \"#utility.yul\":11282:11301   */\n      mstore\n        /* \"#utility.yul\":11334:11338   */\n      0x20\n        /* \"#utility.yul\":11329:11332   */\n      dup3\n        /* \"#utility.yul\":11325:11339   */\n      add\n        /* \"#utility.yul\":11310:11339   */\n      swap1\n      pop\n        /* \"#utility.yul\":11176:11345   */\n      swap3\n      swap2\n      pop\n      pop\n      jump\t// out\n        /* \"#utility.yul\":11351:11656   */\n    tag_98:\n        /* \"#utility.yul\":11391:11394   */\n      0x00\n        /* \"#utility.yul\":11410:11430   */\n      tag_293\n        /* \"#utility.yul\":11428:11429   */\n      dup3\n        /* \"#utility.yul\":11410:11430   */\n      tag_257\n      jump\t// in\n    tag_293:\n        /* \"#utility.yul\":11405:11430   */\n      swap2\n      pop\n        /* \"#utility.yul\":11444:11464   */\n      tag_294\n        /* \"#utility.yul\":11462:11463   */\n      dup4\n        /* \"#utility.yul\":11444:11464   */\n      tag_257\n      jump\t// in\n    tag_294:\n        /* \"#utility.yul\":11439:11464   */\n      swap3\n      pop\n        /* \"#utility.yul\":11598:11599   */\n      dup3\n        /* \"#utility.yul\":11530:11596   */\n      0xffffffffffffffffffffffffffffffffffffffffffffffffffffffffffffffff\n        /* \"#utility.yul\":11526:11600   */\n      sub\n        /* \"#utility.yul\":11523:11524   */\n      dup3\n        /* \"#utility.yul\":11520:11601   */\n      gt\n        /* \"#utility.yul\":11517:11624   */\n      iszero\n      tag_295\n      jumpi\n        /* \"#utility.yul\":11604:11622   */\n      tag_296\n      tag_297\n      jump\t// in\n    tag_296:\n        /* \"#utility.yul\":11517:11624   */\n    tag_295:\n        /* \"#utility.yul\":11648:11649   */\n      dup3\n        /* \"#utility.yul\":11645:11646   */\n      dup3\n        /* \"#utility.yul\":11641:11650   */\n      add\n        /* \"#utility.yul\":11634:11650   */\n      swap1\n      pop\n        /* \"#utility.yul\":11351:11656   */\n      swap3\n      swap2\n      pop\n      pop\n      jump\t// out\n        /* \"#utility.yul\":11662:11758   */\n    tag_199:\n        /* \"#utility.yul\":11699:11706   */\n      0x00\n        /* \"#utility.yul\":11728:11752   */\n      tag_299\n        /* \"#utility.yul\":11746:11751   */\n      dup3\n        /* \"#utility.yul\":11728:11752   */\n      tag_300\n      jump\t// in\n    tag_299:\n        /* \"#utility.yul\":11717:11752   */\n      swap1\n      pop\n        /* \"#utility.yul\":11662:11758   */\n      swap2\n      swap1\n      pop\n      jump\t// out\n        /* \"#utility.yul\":11764:11854   */\n    tag_203:\n        /* \"#utility.yul\":11798:11805   */\n      0x00\n        /* \"#utility.yul\":11841:11846   */\n      dup2\n        /* \"#utility.yul\":11834:11847   */\n      iszero\n        /* \"#utility.yul\":11827:11848   */\n      iszero\n        /* \"#utility.yul\":11816:11848   */\n      swap1\n      pop\n        /* \"#utility.yul\":11764:11854   */\n      swap2\n      swap1\n      pop\n      jump\t// out\n        /* \"#utility.yul\":11860:11986   */\n    tag_300:\n        /* \"#utility.yul\":11897:11904   */\n      0x00\n        /* \"#utility.yul\":11937:11979   */\n      0xffffffffffffffffffffffffffffffffffffffff\n        /* \"#utility.yul\":11930:11935   */\n      dup3\n        /* \"#utility.yul\":11926:11980   */\n      and\n        /* \"#utility.yul\":11915:11980   */\n      swap1\n      pop\n        /* \"#utility.yul\":11860:11986   */\n      swap2\n      swap1\n      pop\n      jump\t// out\n        /* \"#utility.yul\":11992:12069   */\n    tag_257:\n        /* \"#utility.yul\":12029:12036   */\n      0x00\n        /* \"#utility.yul\":12058:12063   */\n      dup2\n        /* \"#utility.yul\":12047:12063   */\n      swap1\n      pop\n        /* \"#utility.yul\":11992:12069   */\n      swap2\n      swap1\n      pop\n      jump\t// out\n        /* \"#utility.yul\":12075:12161   */\n    tag_261:\n        /* \"#utility.yul\":12110:12117   */\n      0x00\n        /* \"#utility.yul\":12150:12154   */\n      0xff\n        /* \"#utility.yul\":12143:12148   */\n      dup3\n        /* \"#utility.yul\":12139:12155   */\n      and\n        /* \"#utility.yul\":12128:12155   */\n      swap1\n      pop\n        /* \"#utility.yul\":12075:12161   */\n      swap2\n      swap1\n      pop\n      jump\t// out\n        /* \"#utility.yul\":12167:12474   */\n    tag_211:\n        /* \"#utility.yul\":12235:12236   */\n      0x00\n        /* \"#utility.yul\":12245:12358   */\n    tag_306:\n        /* \"#utility.yul\":12259:12265   */\n      dup4\n        /* \"#utility.yul\":12256:12257   */\n      dup2\n        /* \"#utility.yul\":12253:12266   */\n      lt\n        /* \"#utility.yul\":12245:12358   */\n      iszero\n      tag_308\n      jumpi\n        /* \"#utility.yul\":12344:12345   */\n      dup1\n        /* \"#utility.yul\":12339:12342   */\n      dup3\n        /* \"#utility.yul\":12335:12346   */\n      add\n        /* \"#utility.yul\":12329:12347   */\n      mload\n        /* \"#utility.yul\":12325:12326   */\n      dup2\n        /* \"#utility.yul\":12320:12323   */\n      dup5\n        /* \"#utility.yul\":12316:12327   */\n      add\n        /* \"#utility.yul\":12309:12348   */\n      mstore\n        /* \"#utility.yul\":12281:12283   */\n      0x20\n        /* \"#utility.yul\":12278:12279   */\n      dup2\n        /* \"#utility.yul\":12274:12284   */\n      add\n        /* \"#utility.yul\":12269:12284   */\n      swap1\n      pop\n        /* \"#utility.yul\":12245:12358   */\n      jump(tag_306)\n    tag_308:\n        /* \"#utility.yul\":12376:12382   */\n      dup4\n        /* \"#utility.yul\":12373:12374   */\n      dup2\n        /* \"#utility.yul\":12370:12383   */\n      gt\n        /* \"#utility.yul\":12367:12468   */\n      iszero\n      tag_309\n      jumpi\n        /* \"#utility.yul\":12456:12457   */\n      0x00\n        /* \"#utility.yul\":12447:12453   */\n      dup5\n        /* \"#utility.yul\":12442:12445   */\n      dup5\n        /* \"#utility.yul\":12438:12454   */\n      add\n        /* \"#utility.yul\":12431:12458   */\n      mstore\n        /* \"#utility.yul\":12367:12468   */\n    tag_309:\n        /* \"#utility.yul\":12216:12474   */\n      pop\n        /* \"#utility.yul\":12167:12474   */\n      pop\n      pop\n      pop\n      jump\t// out\n        /* \"#utility.yul\":12480:12800   */\n    tag_76:\n        /* \"#utility.yul\":12524:12530   */\n      0x00\n        /* \"#utility.yul\":12561:12562   */\n      0x02\n        /* \"#utility.yul\":12555:12559   */\n      dup3\n        /* \"#utility.yul\":12551:12563   */\n      div\n        /* \"#utility.yul\":12541:12563   */\n      swap1\n      pop\n        /* \"#utility.yul\":12608:12609   */\n      0x01\n        /* \"#utility.yul\":12602:12606   */\n      dup3\n        /* \"#utility.yul\":12598:12610   */\n      and\n        /* \"#utility.yul\":12629:12647   */\n      dup1\n        /* \"#utility.yul\":12619:12700   */\n      tag_311\n      jumpi\n        /* \"#utility.yul\":12685:12689   */\n      0x7f\n        /* \"#utility.yul\":12677:12683   */\n      dup3\n        /* \"#utility.yul\":12673:12690   */\n      and\n        /* \"#utility.yul\":12663:12690   */\n      swap2\n      pop\n        /* \"#utility.yul\":12619:12700   */\n    tag_311:\n        /* \"#utility.yul\":12747:12749   */\n      0x20\n        /* \"#utility.yul\":12739:12745   */\n      dup3\n        /* \"#utility.yul\":12736:12750   */\n      lt\n        /* \"#utility.yul\":12716:12734   */\n      dup2\n        /* \"#utility.yul\":12713:12751   */\n      eq\n        /* \"#utility.yul\":12710:12794   */\n      iszero\n      tag_312\n      jumpi\n        /* \"#utility.yul\":12766:12784   */\n      tag_313\n      tag_314\n      jump\t// in\n    tag_313:\n        /* \"#utility.yul\":12710:12794   */\n    tag_312:\n        /* \"#utility.yul\":12531:12800   */\n      pop\n        /* \"#utility.yul\":12480:12800   */\n      swap2\n      swap1\n      pop\n      jump\t// out\n        /* \"#utility.yul\":12806:12986   */\n    tag_297:\n        /* \"#utility.yul\":12854:12931   */\n      0x4e487b7100000000000000000000000000000000000000000000000000000000\n        /* \"#utility.yul\":12851:12852   */\n      0x00\n        /* \"#utility.yul\":12844:12932   */\n      mstore\n        /* \"#utility.yul\":12951:12955   */\n      0x11\n        /* \"#utility.yul\":12948:12949   */\n      0x04\n        /* \"#utility.yul\":12941:12956   */\n      mstore\n        /* \"#utility.yul\":12975:12979   */\n      0x24\n        /* \"#utility.yul\":12972:12973   */\n      0x00\n        /* \"#utility.yul\":12965:12980   */\n      revert\n        /* \"#utility.yul\":12992:13172   */\n    tag_314:\n        /* \"#utility.yul\":13040:13117   */\n      0x4e487b7100000000000000000000000000000000000000000000000000000000\n        /* \"#utility.yul\":13037:13038   */\n      0x00\n        /* \"#utility.yul\":13030:13118   */\n      mstore\n        /* \"#utility.yul\":13137:13141   */\n      0x22\n        /* \"#utility.yul\":13134:13135   */\n      0x04\n        /* \"#utility.yul\":13127:13142   */\n      mstore\n        /* \"#utility.yul\":13161:13165   */\n      0x24\n        /* \"#utility.yul\":13158:13159   */\n      0x00\n        /* \"#utility.yul\":13151:13166   */\n      revert\n        /* \"#utility.yul\":13301:13418   */\n    tag_174:\n        /* \"#utility.yul\":13410:13411   */\n      0x00\n        /* \"#utility.yul\":13407:13408   */\n      dup1\n        /* \"#utility.yul\":13400:13412   */\n      revert\n        /* \"#utility.yul\":13424:13526   */\n    tag_213:\n        /* \"#utility.yul\":13465:13471   */\n      0x00\n        /* \"#utility.yul\":13516:13518   */\n      0x1f\n        /* \"#utility.yul\":13512:13519   */\n      not\n        /* \"#utility.yul\":13507:13509   */\n      0x1f\n        /* \"#utility.yul\":13500:13505   */\n      dup4\n        /* \"#utility.yul\":13496:13510   */\n      add\n        /* \"#utility.yul\":13492:13520   */\n      and\n        /* \"#utility.yul\":13482:13520   */\n      swap1\n      pop\n        /* \"#utility.yul\":13424:13526   */\n      swap2\n      swap1\n      pop\n      jump\t// out\n        /* \"#utility.yul\":13532:13754   */\n    tag_218:\n        /* \"#utility.yul\":13672:13706   */\n      0x45524332303a207472616e7366657220746f20746865207a65726f2061646472\n        /* \"#utility.yul\":13668:13669   */\n      0x00\n        /* \"#utility.yul\":13660:13666   */\n      dup3\n        /* \"#utility.yul\":13656:13670   */\n      add\n        /* \"#utility.yul\":13649:13707   */\n      mstore\n        /* \"#utility.yul\":13741:13746   */\n      0x6573730000000000000000000000000000000000000000000000000000000000\n        /* \"#utility.yul\":13736:13738   */\n      0x20\n        /* \"#utility.yul\":13728:13734   */\n      dup3\n        /* \"#utility.yul\":13724:13739   */\n      add\n        /* \"#utility.yul\":13717:13747   */\n      mstore\n        /* \"#utility.yul\":13532:13754   */\n      pop\n      jump\t// out\n        /* \"#utility.yul\":13760:13981   */\n    tag_223:\n        /* \"#utility.yul\":13900:13934   */\n      0x45524332303a20617070726f766520746f20746865207a65726f206164647265\n        /* \"#utility.yul\":13896:13897   */\n      0x00\n        /* \"#utility.yul\":13888:13894   */\n      dup3\n        /* \"#utility.yul\":13884:13898   */\n      add\n        /* \"#utility.yul\":13877:13935   */\n      mstore\n        /* \"#utility.yul\":13969:13973   */\n      0x7373000000000000000000000000000000000000000000000000000000000000\n        /* \"#utility.yul\":13964:13966   */\n      0x20\n        /* \"#utility.yul\":13956:13962   */\n      dup3\n        /* \"#utility.yul\":13952:13967   */\n      add\n        /* \"#utility.yul\":13945:13974   */\n      mstore\n        /* \"#utility.yul\":13760:13981   */\n      pop\n      jump\t// out\n        /* \"#utility.yul\":13987:14166   */\n    tag_228:\n        /* \"#utility.yul\":14127:14158   */\n      0x45524332303a20696e73756666696369656e7420616c6c6f77616e6365000000\n        /* \"#utility.yul\":14123:14124   */\n      0x00\n        /* \"#utility.yul\":14115:14121   */\n      dup3\n        /* \"#utility.yul\":14111:14125   */\n      add\n        /* \"#utility.yul\":14104:14159   */\n      mstore\n        /* \"#utility.yul\":13987:14166   */\n      pop\n      jump\t// out\n        /* \"#utility.yul\":14172:14397   */\n    tag_233:\n        /* \"#utility.yul\":14312:14346   */\n      0x45524332303a207472616e7366657220616d6f756e7420657863656564732062\n        /* \"#utility.yul\":14308:14309   */\n      0x00\n        /* \"#utility.yul\":14300:14306   */\n      dup3\n        /* \"#utility.yul\":14296:14310   */\n      add\n        /* \"#utility.yul\":14289:14347   */\n      mstore\n        /* \"#utility.yul\":14381:14389   */\n      0x616c616e63650000000000000000000000000000000000000000000000000000\n        /* \"#utility.yul\":14376:14378   */\n      0x20\n        /* \"#utility.yul\":14368:14374   */\n      dup3\n        /* \"#utility.yul\":14364:14379   */\n      add\n        /* \"#utility.yul\":14357:14390   */\n      mstore\n        /* \"#utility.yul\":14172:14397   */\n      pop\n      jump\t// out\n        /* \"#utility.yul\":14403:14627   */\n    tag_238:\n        /* \"#utility.yul\":14543:14577   */\n      0x45524332303a207472616e736665722066726f6d20746865207a65726f206164\n        /* \"#utility.yul\":14539:14540   */\n      0x00\n        /* \"#utility.yul\":14531:14537   */\n      dup3\n        /* \"#utility.yul\":14527:14541   */\n      add\n        /* \"#utility.yul\":14520:14578   */\n      mstore\n        /* \"#utility.yul\":14612:14619   */\n      0x6472657373000000000000000000000000000000000000000000000000000000\n        /* \"#utility.yul\":14607:14609   */\n      0x20\n        /* \"#utility.yul\":14599:14605   */\n      dup3\n        /* \"#utility.yul\":14595:14610   */\n      add\n        /* \"#utility.yul\":14588:14620   */\n      mstore\n        /* \"#utility.yul\":14403:14627   */\n      pop\n      jump\t// out\n        /* \"#utility.yul\":14633:14856   */\n    tag_243:\n        /* \"#utility.yul\":14773:14807   */\n      0x45524332303a20617070726f76652066726f6d20746865207a65726f20616464\n        /* \"#utility.yul\":14769:14770   */\n      0x00\n        /* \"#utility.yul\":14761:14767   */\n      dup3\n        /* \"#utility.yul\":14757:14771   */\n      add\n        /* \"#utility.yul\":14750:14808   */\n      mstore\n        /* \"#utility.yul\":14842:14848   */\n      0x7265737300000000000000000000000000000000000000000000000000000000\n        /* \"#utility.yul\":14837:14839   */\n      0x20\n        /* \"#utility.yul\":14829:14835   */\n      dup3\n        /* \"#utility.yul\":14825:14840   */\n      add\n        /* \"#utility.yul\":14818:14849   */\n      mstore\n        /* \"#utility.yul\":14633:14856   */\n      pop\n      jump\t// out\n        /* \"#utility.yul\":14862:15022   */\n    tag_248:\n        /* \"#utility.yul\":15002:15014   */\n      0x6e656564206f776e657200000000000000000000000000000000000000000000\n        /* \"#utility.yul\":14998:14999   */\n      0x00\n        /* \"#utility.yul\":14990:14996   */\n      dup3\n        /* \"#utility.yul\":14986:15000   */\n      add\n        /* \"#utility.yul\":14979:15015   */\n      mstore\n        /* \"#utility.yul\":14862:15022   */\n      pop\n      jump\t// out\n        /* \"#utility.yul\":15028:15252   */\n    tag_253:\n        /* \"#utility.yul\":15168:15202   */\n      0x45524332303a2064656372656173656420616c6c6f77616e63652062656c6f77\n        /* \"#utility.yul\":15164:15165   */\n      0x00\n        /* \"#utility.yul\":15156:15162   */\n      dup3\n        /* \"#utility.yul\":15152:15166   */\n      add\n        /* \"#utility.yul\":15145:15203   */\n      mstore\n        /* \"#utility.yul\":15237:15244   */\n      0x207a65726f000000000000000000000000000000000000000000000000000000\n        /* \"#utility.yul\":15232:15234   */\n      0x20\n        /* \"#utility.yul\":15224:15230   */\n      dup3\n        /* \"#utility.yul\":15220:15235   */\n      add\n        /* \"#utility.yul\":15213:15245   */\n      mstore\n        /* \"#utility.yul\":15028:15252   */\n      pop\n      jump\t// out\n        /* \"#utility.yul\":15258:15380   */\n    tag_166:\n        /* \"#utility.yul\":15331:15355   */\n      tag_330\n        /* \"#utility.yul\":15349:15354   */\n      dup2\n        /* \"#utility.yul\":15331:15355   */\n      tag_199\n      jump\t// in\n    tag_330:\n        /* \"#utility.yul\":15324:15329   */\n      dup2\n        /* \"#utility.yul\":15321:15356   */\n      eq\n        /* \"#utility.yul\":15311:15374   */\n      tag_331\n      jumpi\n        /* \"#utility.yul\":15370:15371   */\n      0x00\n        /* \"#utility.yul\":15367:15368   */\n      dup1\n        /* \"#utility.yul\":15360:15372   */\n      revert\n        /* \"#utility.yul\":15311:15374   */\n    tag_331:\n        /* \"#utility.yul\":15258:15380   */\n      pop\n      jump\t// out\n        /* \"#utility.yul\":15386:15508   */\n    tag_170:\n        /* \"#utility.yul\":15459:15483   */\n      tag_333\n        /* \"#utility.yul\":15477:15482   */\n      dup2\n        /* \"#utility.yul\":15459:15483   */\n      tag_257\n      jump\t// in\n    tag_333:\n        /* \"#utility.yul\":15452:15457   */\n      dup2\n        /* \"#utility.yul\":15449:15484   */\n      eq\n        /* \"#utility.yul\":15439:15502   */\n      tag_334\n      jumpi\n        /* \"#utility.yul\":15498:15499   */\n      0x00\n        /* \"#utility.yul\":15495:15496   */\n      dup1\n        /* \"#utility.yul\":15488:15500   */\n      revert\n        /* \"#utility.yul\":15439:15502   */\n    tag_334:\n        /* \"#utility.yul\":15386:15508   */\n      pop\n      jump\t// out\n\n    auxdata: 0xa2646970667358221220689f29d6803df3919f4d7cc6f4e725dbaeba98c5e551ab180f3bc99828f4266b64736f6c63430008070033\n}\n",
				"bytecode": {
					"linkReferences": {},
					"object": "60806040526040518060400160405280600a81526020017f7368697420746f6b656e000000000000000000000000000000000000000000008152506003908051906020019062000051929190620000f5565b506040518060400160405280600481526020017f7368697400000000000000000000000000000000000000000000000000000000815250600490805190602001906200009f929190620000f5565b50348015620000ad57600080fd5b5033600560006101000a81548173ffffffffffffffffffffffffffffffffffffffff021916908373ffffffffffffffffffffffffffffffffffffffff1602179055506200020a565b8280546200010390620001a5565b90600052602060002090601f01602090048101928262000127576000855562000173565b82601f106200014257805160ff191683800117855562000173565b8280016001018555821562000173579182015b828111156200017257825182559160200191906001019062000155565b5b50905062000182919062000186565b5090565b5b80821115620001a157600081600090555060010162000187565b5090565b60006002820490506001821680620001be57607f821691505b60208210811415620001d557620001d4620001db565b5b50919050565b7f4e487b7100000000000000000000000000000000000000000000000000000000600052602260045260246000fd5b6116e3806200021a6000396000f3fe608060405234801561001057600080fd5b50600436106100cf5760003560e01c806370a082311161008c578063a9059cbb11610066578063a9059cbb1461023c578063b2bdfa7b1461026c578063cc872b661461028a578063dd62ed3e146102a6576100cf565b806370a08231146101be57806395d89b41146101ee578063a457c2d71461020c576100cf565b806306fdde03146100d4578063095ea7b3146100f257806318160ddd1461012257806323b872dd14610140578063313ce56714610170578063395093511461018e575b600080fd5b6100dc6102d6565b6040516100e9919061115b565b60405180910390f35b61010c60048036038101906101079190610f2b565b610368565b6040516101199190611140565b60405180910390f35b61012a61038b565b604051610137919061127d565b60405180910390f35b61015a60048036038101906101559190610ed8565b610395565b6040516101679190611140565b60405180910390f35b6101786103c4565b6040516101859190611298565b60405180910390f35b6101a860048036038101906101a39190610f2b565b6103cd565b6040516101b59190611140565b60405180910390f35b6101d860048036038101906101d39190610e6b565b610477565b6040516101e5919061127d565b60405180910390f35b6101f66104bf565b604051610203919061115b565b60405180910390f35b61022660048036038101906102219190610f2b565b610551565b6040516102339190611140565b60405180910390f35b61025660048036038101906102519190610f2b565b61063b565b6040516102639190611140565b60405180910390f35b61027461065e565b6040516102819190611125565b60405180910390f35b6102a4600480360381019061029f9190610f6b565b610684565b005b6102c060048036038101906102bb9190610e98565b6108d0565b6040516102cd919061127d565b60405180910390f35b6060600380546102e5906113ad565b80601f0160208091040260200160405190810160405280929190818152602001828054610311906113ad565b801561035e5780601f106103335761010080835404028352916020019161035e565b820191906000526020600020905b81548152906001019060200180831161034157829003601f168201915b5050505050905090565b600080610373610957565b905061038081858561095f565b600191505092915050565b6000600254905090565b6000806103a0610957565b90506103ad858285610b2a565b6103b8858585610bb6565b60019150509392505050565b60006012905090565b6000806103d8610957565b905061046c818585600160008673ffffffffffffffffffffffffffffffffffffffff1673ffffffffffffffffffffffffffffffffffffffff16815260200190815260200160002060008973ffffffffffffffffffffffffffffffffffffffff1673ffffffffffffffffffffffffffffffffffffffff1681526020019081526020016000205461046791906112cf565b61095f565b600191505092915050565b60008060008373ffffffffffffffffffffffffffffffffffffffff1673ffffffffffffffffffffffffffffffffffffffff168152602001908152602001600020549050919050565b6060600480546104ce906113ad565b80601f01602080910402602001604051908101604052809291908181526020018280546104fa906113ad565b80156105475780601f1061051c57610100808354040283529160200191610547565b820191906000526020600020905b81548152906001019060200180831161052a57829003601f168201915b5050505050905090565b60008061055c610957565b90506000600160008373ffffffffffffffffffffffffffffffffffffffff1673ffffffffffffffffffffffffffffffffffffffff16815260200190815260200160002060008673ffffffffffffffffffffffffffffffffffffffff1673ffffffffffffffffffffffffffffffffffffffff16815260200190815260200160002054905083811015610622576040517f08c379a00000000000000000000000000000000000000000000000000000000081526004016106199061125d565b60405180910390fd5b61062f828686840361095f565b60019250505092915050565b600080610646610957565b9050610653818585610bb6565b600191505092915050565b600560009054906101000a900473ffffffffffffffffffffffffffffffffffffffff1681565b3373ffffffffffffffffffffffffffffffffffffffff16600560009054906101000a900473ffffffffffffffffffffffffffffffffffffffff1673ffffffffffffffffffffffffffffffffffffffff1614610714576040517f08c379a000000000000000000000000000000000000000000000000000000000815260040161070b9061123d565b60405180910390fd5b6002548160025461072591906112cf565b1161072f57600080fd5b600080600560009054906101000a900473ffffffffffffffffffffffffffffffffffffffff1673ffffffffffffffffffffffffffffffffffffffff1673ffffffffffffffffffffffffffffffffffffffff1681526020019081526020016000205481600080600560009054906101000a900473ffffffffffffffffffffffffffffffffffffffff1673ffffffffffffffffffffffffffffffffffffffff1673ffffffffffffffffffffffffffffffffffffffff168152602001908152602001600020546107fc91906112cf565b1161080657600080fd5b80600080600560009054906101000a900473ffffffffffffffffffffffffffffffffffffffff1673ffffffffffffffffffffffffffffffffffffffff1673ffffffffffffffffffffffffffffffffffffffff168152602001908152602001600020600082825461087691906112cf565b92505081905550806002600082825461088f91906112cf565b925050819055507fcb8241adb0c3fdb35b70c24ce35c5eb0c17af7431c99f827d44a445ca624176a816040516108c5919061127d565b60405180910390a150565b6000600160008473ffffffffffffffffffffffffffffffffffffffff1673ffffffffffffffffffffffffffffffffffffffff16815260200190815260200160002060008373ffffffffffffffffffffffffffffffffffffffff1673ffffffffffffffffffffffffffffffffffffffff16815260200190815260200160002054905092915050565b600033905090565b600073ffffffffffffffffffffffffffffffffffffffff168373ffffffffffffffffffffffffffffffffffffffff1614156109cf576040517f08c379a00000000000000000000000000000000000000000000000000000000081526004016109c69061121d565b60405180910390fd5b600073ffffffffffffffffffffffffffffffffffffffff168273ffffffffffffffffffffffffffffffffffffffff161415610a3f576040517f08c379a0000000000000000000000000000000000000000000000000000000008152600401610a369061119d565b60405180910390fd5b80600160008573ffffffffffffffffffffffffffffffffffffffff1673ffffffffffffffffffffffffffffffffffffffff16815260200190815260200160002060008473ffffffffffffffffffffffffffffffffffffffff1673ffffffffffffffffffffffffffffffffffffffff168152602001908152602001600020819055508173ffffffffffffffffffffffffffffffffffffffff168373ffffffffffffffffffffffffffffffffffffffff167f8c5be1e5ebec7d5bd14f71427d1e84f3dd0314c0f7b2291e5b200ac8c7c3b92583604051610b1d919061127d565b60405180910390a3505050565b6000610b3684846108d0565b90507fffffffffffffffffffffffffffffffffffffffffffffffffffffffffffffffff8114610bb05781811015610ba2576040517f08c379a0000000000000000000000000000000000000000000000000000000008152600401610b99906111bd565b60405180910390fd5b610baf848484840361095f565b5b50505050565b600073ffffffffffffffffffffffffffffffffffffffff168373ffffffffffffffffffffffffffffffffffffffff161415610c26576040517f08c379a0000000000000000000000000000000000000000000000000000000008152600401610c1d906111fd565b60405180910390fd5b600073ffffffffffffffffffffffffffffffffffffffff168273ffffffffffffffffffffffffffffffffffffffff161415610c96576040517f08c379a0000000000000000000000000000000000000000000000000000000008152600401610c8d9061117d565b60405180910390fd5b610ca1838383610e37565b60008060008573ffffffffffffffffffffffffffffffffffffffff1673ffffffffffffffffffffffffffffffffffffffff16815260200190815260200160002054905081811015610d27576040517f08c379a0000000000000000000000000000000000000000000000000000000008152600401610d1e906111dd565b60405180910390fd5b8181036000808673ffffffffffffffffffffffffffffffffffffffff1673ffffffffffffffffffffffffffffffffffffffff16815260200190815260200160002081905550816000808573ffffffffffffffffffffffffffffffffffffffff1673ffffffffffffffffffffffffffffffffffffffff1681526020019081526020016000206000828254610dba91906112cf565b925050819055508273ffffffffffffffffffffffffffffffffffffffff168473ffffffffffffffffffffffffffffffffffffffff167fddf252ad1be2c89b69c2b068fc378daa952ba7f163c4a11628f55a4df523b3ef84604051610e1e919061127d565b60405180910390a3610e31848484610e3c565b50505050565b505050565b505050565b600081359050610e508161167f565b92915050565b600081359050610e6581611696565b92915050565b600060208284031215610e8157610e8061143d565b5b6000610e8f84828501610e41565b91505092915050565b60008060408385031215610eaf57610eae61143d565b5b6000610ebd85828601610e41565b9250506020610ece85828601610e41565b9150509250929050565b600080600060608486031215610ef157610ef061143d565b5b6000610eff86828701610e41565b9350506020610f1086828701610e41565b9250506040610f2186828701610e56565b9150509250925092565b60008060408385031215610f4257610f4161143d565b5b6000610f5085828601610e41565b9250506020610f6185828601610e56565b9150509250929050565b600060208284031215610f8157610f8061143d565b5b6000610f8f84828501610e56565b91505092915050565b610fa181611325565b82525050565b610fb081611337565b82525050565b6000610fc1826112b3565b610fcb81856112be565b9350610fdb81856020860161137a565b610fe481611442565b840191505092915050565b6000610ffc6023836112be565b915061100782611453565b604082019050919050565b600061101f6022836112be565b915061102a826114a2565b604082019050919050565b6000611042601d836112be565b915061104d826114f1565b602082019050919050565b60006110656026836112be565b91506110708261151a565b604082019050919050565b60006110886025836112be565b915061109382611569565b604082019050919050565b60006110ab6024836112be565b91506110b6826115b8565b604082019050919050565b60006110ce600a836112be565b91506110d982611607565b602082019050919050565b60006110f16025836112be565b91506110fc82611630565b604082019050919050565b61111081611363565b82525050565b61111f8161136d565b82525050565b600060208201905061113a6000830184610f98565b92915050565b60006020820190506111556000830184610fa7565b92915050565b600060208201905081810360008301526111758184610fb6565b905092915050565b6000602082019050818103600083015261119681610fef565b9050919050565b600060208201905081810360008301526111b681611012565b9050919050565b600060208201905081810360008301526111d681611035565b9050919050565b600060208201905081810360008301526111f681611058565b9050919050565b600060208201905081810360008301526112168161107b565b9050919050565b600060208201905081810360008301526112368161109e565b9050919050565b60006020820190508181036000830152611256816110c1565b9050919050565b60006020820190508181036000830152611276816110e4565b9050919050565b60006020820190506112926000830184611107565b92915050565b60006020820190506112ad6000830184611116565b92915050565b600081519050919050565b600082825260208201905092915050565b60006112da82611363565b91506112e583611363565b9250827fffffffffffffffffffffffffffffffffffffffffffffffffffffffffffffffff0382111561131a576113196113df565b5b828201905092915050565b600061133082611343565b9050919050565b60008115159050919050565b600073ffffffffffffffffffffffffffffffffffffffff82169050919050565b6000819050919050565b600060ff82169050919050565b60005b8381101561139857808201518184015260208101905061137d565b838111156113a7576000848401525b50505050565b600060028204905060018216806113c557607f821691505b602082108114156113d9576113d861140e565b5b50919050565b7f4e487b7100000000000000000000000000000000000000000000000000000000600052601160045260246000fd5b7f4e487b7100000000000000000000000000000000000000000000000000000000600052602260045260246000fd5b600080fd5b6000601f19601f8301169050919050565b7f45524332303a207472616e7366657220746f20746865207a65726f206164647260008201527f6573730000000000000000000000000000000000000000000000000000000000602082015250565b7f45524332303a20617070726f766520746f20746865207a65726f20616464726560008201527f7373000000000000000000000000000000000000000000000000000000000000602082015250565b7f45524332303a20696e73756666696369656e7420616c6c6f77616e6365000000600082015250565b7f45524332303a207472616e7366657220616d6f756e742065786365656473206260008201527f616c616e63650000000000000000000000000000000000000000000000000000602082015250565b7f45524332303a207472616e736665722066726f6d20746865207a65726f20616460008201527f6472657373000000000000000000000000000000000000000000000000000000602082015250565b7f45524332303a20617070726f76652066726f6d20746865207a65726f2061646460008201527f7265737300000000000000000000000000000000000000000000000000000000602082015250565b7f6e656564206f776e657200000000000000000000000000000000000000000000600082015250565b7f45524332303a2064656372656173656420616c6c6f77616e63652062656c6f7760008201527f207a65726f000000000000000000000000000000000000000000000000000000602082015250565b61168881611325565b811461169357600080fd5b50565b61169f81611363565b81146116aa57600080fd5b5056fea2646970667358221220689f29d6803df3919f4d7cc6f4e725dbaeba98c5e551ab180f3bc99828f4266b64736f6c63430008070033",
					"opcodes": "PUSH1 0x80 PUSH1 0x40 MSTORE PUSH1 0x40 MLOAD DUP1 PUSH1 0x40 ADD PUSH1 0x40 MSTORE DUP1 PUSH1 0xA DUP2 MSTORE PUSH1 0x20 ADD PUSH32 0x7368697420746F6B656E00000000000000000000000000000000000000000000 DUP2 MSTORE POP PUSH1 0x3 SWAP1 DUP1 MLOAD SWAP1 PUSH1 0x20 ADD SWAP1 PUSH3 0x51 SWAP3 SWAP2 SWAP1 PUSH3 0xF5 JUMP JUMPDEST POP PUSH1 0x40 MLOAD DUP1 PUSH1 0x40 ADD PUSH1 0x40 MSTORE DUP1 PUSH1 0x4 DUP2 MSTORE PUSH1 0x20 ADD PUSH32 0x7368697400000000000000000000000000000000000000000000000000000000 DUP2 MSTORE POP PUSH1 0x4 SWAP1 DUP1 MLOAD SWAP1 PUSH1 0x20 ADD SWAP1 PUSH3 0x9F SWAP3 SWAP2 SWAP1 PUSH3 0xF5 JUMP JUMPDEST POP CALLVALUE DUP1 ISZERO PUSH3 0xAD JUMPI PUSH1 0x0 DUP1 REVERT JUMPDEST POP CALLER PUSH1 0x5 PUSH1 0x0 PUSH2 0x100 EXP DUP2 SLOAD DUP2 PUSH20 0xFFFFFFFFFFFFFFFFFFFFFFFFFFFFFFFFFFFFFFFF MUL NOT AND SWAP1 DUP4 PUSH20 0xFFFFFFFFFFFFFFFFFFFFFFFFFFFFFFFFFFFFFFFF AND MUL OR SWAP1 SSTORE POP PUSH3 0x20A JUMP JUMPDEST DUP3 DUP1 SLOAD PUSH3 0x103 SWAP1 PUSH3 0x1A5 JUMP JUMPDEST SWAP1 PUSH1 0x0 MSTORE PUSH1 0x20 PUSH1 0x0 KECCAK256 SWAP1 PUSH1 0x1F ADD PUSH1 0x20 SWAP1 DIV DUP2 ADD SWAP3 DUP3 PUSH3 0x127 JUMPI PUSH1 0x0 DUP6 SSTORE PUSH3 0x173 JUMP JUMPDEST DUP3 PUSH1 0x1F LT PUSH3 0x142 JUMPI DUP1 MLOAD PUSH1 0xFF NOT AND DUP4 DUP1 ADD OR DUP6 SSTORE PUSH3 0x173 JUMP JUMPDEST DUP3 DUP1 ADD PUSH1 0x1 ADD DUP6 SSTORE DUP3 ISZERO PUSH3 0x173 JUMPI SWAP2 DUP3 ADD JUMPDEST DUP3 DUP2 GT ISZERO PUSH3 0x172 JUMPI DUP3 MLOAD DUP3 SSTORE SWAP2 PUSH1 0x20 ADD SWAP2 SWAP1 PUSH1 0x1 ADD SWAP1 PUSH3 0x155 JUMP JUMPDEST JUMPDEST POP SWAP1 POP PUSH3 0x182 SWAP2 SWAP1 PUSH3 0x186 JUMP JUMPDEST POP SWAP1 JUMP JUMPDEST JUMPDEST DUP1 DUP3 GT ISZERO PUSH3 0x1A1 JUMPI PUSH1 0x0 DUP2 PUSH1 0x0 SWAP1 SSTORE POP PUSH1 0x1 ADD PUSH3 0x187 JUMP JUMPDEST POP SWAP1 JUMP JUMPDEST PUSH1 0x0 PUSH1 0x2 DUP3 DIV SWAP1 POP PUSH1 0x1 DUP3 AND DUP1 PUSH3 0x1BE JUMPI PUSH1 0x7F DUP3 AND SWAP2 POP JUMPDEST PUSH1 0x20 DUP3 LT DUP2 EQ ISZERO PUSH3 0x1D5 JUMPI PUSH3 0x1D4 PUSH3 0x1DB JUMP JUMPDEST JUMPDEST POP SWAP2 SWAP1 POP JUMP JUMPDEST PUSH32 0x4E487B7100000000000000000000000000000000000000000000000000000000 PUSH1 0x0 MSTORE PUSH1 0x22 PUSH1 0x4 MSTORE PUSH1 0x24 PUSH1 0x0 REVERT JUMPDEST PUSH2 0x16E3 DUP1 PUSH3 0x21A PUSH1 0x0 CODECOPY PUSH1 0x0 RETURN INVALID PUSH1 0x80 PUSH1 0x40 MSTORE CALLVALUE DUP1 ISZERO PUSH2 0x10 JUMPI PUSH1 0x0 DUP1 REVERT JUMPDEST POP PUSH1 0x4 CALLDATASIZE LT PUSH2 0xCF JUMPI PUSH1 0x0 CALLDATALOAD PUSH1 0xE0 SHR DUP1 PUSH4 0x70A08231 GT PUSH2 0x8C JUMPI DUP1 PUSH4 0xA9059CBB GT PUSH2 0x66 JUMPI DUP1 PUSH4 0xA9059CBB EQ PUSH2 0x23C JUMPI DUP1 PUSH4 0xB2BDFA7B EQ PUSH2 0x26C JUMPI DUP1 PUSH4 0xCC872B66 EQ PUSH2 0x28A JUMPI DUP1 PUSH4 0xDD62ED3E EQ PUSH2 0x2A6 JUMPI PUSH2 0xCF JUMP JUMPDEST DUP1 PUSH4 0x70A08231 EQ PUSH2 0x1BE JUMPI DUP1 PUSH4 0x95D89B41 EQ PUSH2 0x1EE JUMPI DUP1 PUSH4 0xA457C2D7 EQ PUSH2 0x20C JUMPI PUSH2 0xCF JUMP JUMPDEST DUP1 PUSH4 0x6FDDE03 EQ PUSH2 0xD4 JUMPI DUP1 PUSH4 0x95EA7B3 EQ PUSH2 0xF2 JUMPI DUP1 PUSH4 0x18160DDD EQ PUSH2 0x122 JUMPI DUP1 PUSH4 0x23B872DD EQ PUSH2 0x140 JUMPI DUP1 PUSH4 0x313CE567 EQ PUSH2 0x170 JUMPI DUP1 PUSH4 0x39509351 EQ PUSH2 0x18E JUMPI JUMPDEST PUSH1 0x0 DUP1 REVERT JUMPDEST PUSH2 0xDC PUSH2 0x2D6 JUMP JUMPDEST PUSH1 0x40 MLOAD PUSH2 0xE9 SWAP2 SWAP1 PUSH2 0x115B JUMP JUMPDEST PUSH1 0x40 MLOAD DUP1 SWAP2 SUB SWAP1 RETURN JUMPDEST PUSH2 0x10C PUSH1 0x4 DUP1 CALLDATASIZE SUB DUP2 ADD SWAP1 PUSH2 0x107 SWAP2 SWAP1 PUSH2 0xF2B JUMP JUMPDEST PUSH2 0x368 JUMP JUMPDEST PUSH1 0x40 MLOAD PUSH2 0x119 SWAP2 SWAP1 PUSH2 0x1140 JUMP JUMPDEST PUSH1 0x40 MLOAD DUP1 SWAP2 SUB SWAP1 RETURN JUMPDEST PUSH2 0x12A PUSH2 0x38B JUMP JUMPDEST PUSH1 0x40 MLOAD PUSH2 0x137 SWAP2 SWAP1 PUSH2 0x127D JUMP JUMPDEST PUSH1 0x40 MLOAD DUP1 SWAP2 SUB SWAP1 RETURN JUMPDEST PUSH2 0x15A PUSH1 0x4 DUP1 CALLDATASIZE SUB DUP2 ADD SWAP1 PUSH2 0x155 SWAP2 SWAP1 PUSH2 0xED8 JUMP JUMPDEST PUSH2 0x395 JUMP JUMPDEST PUSH1 0x40 MLOAD PUSH2 0x167 SWAP2 SWAP1 PUSH2 0x1140 JUMP JUMPDEST PUSH1 0x40 MLOAD DUP1 SWAP2 SUB SWAP1 RETURN JUMPDEST PUSH2 0x178 PUSH2 0x3C4 JUMP JUMPDEST PUSH1 0x40 MLOAD PUSH2 0x185 SWAP2 SWAP1 PUSH2 0x1298 JUMP JUMPDEST PUSH1 0x40 MLOAD DUP1 SWAP2 SUB SWAP1 RETURN JUMPDEST PUSH2 0x1A8 PUSH1 0x4 DUP1 CALLDATASIZE SUB DUP2 ADD SWAP1 PUSH2 0x1A3 SWAP2 SWAP1 PUSH2 0xF2B JUMP JUMPDEST PUSH2 0x3CD JUMP JUMPDEST PUSH1 0x40 MLOAD PUSH2 0x1B5 SWAP2 SWAP1 PUSH2 0x1140 JUMP JUMPDEST PUSH1 0x40 MLOAD DUP1 SWAP2 SUB SWAP1 RETURN JUMPDEST PUSH2 0x1D8 PUSH1 0x4 DUP1 CALLDATASIZE SUB DUP2 ADD SWAP1 PUSH2 0x1D3 SWAP2 SWAP1 PUSH2 0xE6B JUMP JUMPDEST PUSH2 0x477 JUMP JUMPDEST PUSH1 0x40 MLOAD PUSH2 0x1E5 SWAP2 SWAP1 PUSH2 0x127D JUMP JUMPDEST PUSH1 0x40 MLOAD DUP1 SWAP2 SUB SWAP1 RETURN JUMPDEST PUSH2 0x1F6 PUSH2 0x4BF JUMP JUMPDEST PUSH1 0x40 MLOAD PUSH2 0x203 SWAP2 SWAP1 PUSH2 0x115B JUMP JUMPDEST PUSH1 0x40 MLOAD DUP1 SWAP2 SUB SWAP1 RETURN JUMPDEST PUSH2 0x226 PUSH1 0x4 DUP1 CALLDATASIZE SUB DUP2 ADD SWAP1 PUSH2 0x221 SWAP2 SWAP1 PUSH2 0xF2B JUMP JUMPDEST PUSH2 0x551 JUMP JUMPDEST PUSH1 0x40 MLOAD PUSH2 0x233 SWAP2 SWAP1 PUSH2 0x1140 JUMP JUMPDEST PUSH1 0x40 MLOAD DUP1 SWAP2 SUB SWAP1 RETURN JUMPDEST PUSH2 0x256 PUSH1 0x4 DUP1 CALLDATASIZE SUB DUP2 ADD SWAP1 PUSH2 0x251 SWAP2 SWAP1 PUSH2 0xF2B JUMP JUMPDEST PUSH2 0x63B JUMP JUMPDEST PUSH1 0x40 MLOAD PUSH2 0x263 SWAP2 SWAP1 PUSH2 0x1140 JUMP JUMPDEST PUSH1 0x40 MLOAD DUP1 SWAP2 SUB SWAP1 RETURN JUMPDEST PUSH2 0x274 PUSH2 0x65E JUMP JUMPDEST PUSH1 0x40 MLOAD PUSH2 0x281 SWAP2 SWAP1 PUSH2 0x1125 JUMP JUMPDEST PUSH1 0x40 MLOAD DUP1 SWAP2 SUB SWAP1 RETURN JUMPDEST PUSH2 0x2A4 PUSH1 0x4 DUP1 CALLDATASIZE SUB DUP2 ADD SWAP1 PUSH2 0x29F SWAP2 SWAP1 PUSH2 0xF6B JUMP JUMPDEST PUSH2 0x684 JUMP JUMPDEST STOP JUMPDEST PUSH2 0x2C0 PUSH1 0x4 DUP1 CALLDATASIZE SUB DUP2 ADD SWAP1 PUSH2 0x2BB SWAP2 SWAP1 PUSH2 0xE98 JUMP JUMPDEST PUSH2 0x8D0 JUMP JUMPDEST PUSH1 0x40 MLOAD PUSH2 0x2CD SWAP2 SWAP1 PUSH2 0x127D JUMP JUMPDEST PUSH1 0x40 MLOAD DUP1 SWAP2 SUB SWAP1 RETURN JUMPDEST PUSH1 0x60 PUSH1 0x3 DUP1 SLOAD PUSH2 0x2E5 SWAP1 PUSH2 0x13AD JUMP JUMPDEST DUP1 PUSH1 0x1F ADD PUSH1 0x20 DUP1 SWAP2 DIV MUL PUSH1 0x20 ADD PUSH1 0x40 MLOAD SWAP1 DUP2 ADD PUSH1 0x40 MSTORE DUP1 SWAP3 SWAP2 SWAP1 DUP2 DUP2 MSTORE PUSH1 0x20 ADD DUP3 DUP1 SLOAD PUSH2 0x311 SWAP1 PUSH2 0x13AD JUMP JUMPDEST DUP1 ISZERO PUSH2 0x35E JUMPI DUP1 PUSH1 0x1F LT PUSH2 0x333 JUMPI PUSH2 0x100 DUP1 DUP4 SLOAD DIV MUL DUP4 MSTORE SWAP2 PUSH1 0x20 ADD SWAP2 PUSH2 0x35E JUMP JUMPDEST DUP3 ADD SWAP2 SWAP1 PUSH1 0x0 MSTORE PUSH1 0x20 PUSH1 0x0 KECCAK256 SWAP1 JUMPDEST DUP2 SLOAD DUP2 MSTORE SWAP1 PUSH1 0x1 ADD SWAP1 PUSH1 0x20 ADD DUP1 DUP4 GT PUSH2 0x341 JUMPI DUP3 SWAP1 SUB PUSH1 0x1F AND DUP3 ADD SWAP2 JUMPDEST POP POP POP POP POP SWAP1 POP SWAP1 JUMP JUMPDEST PUSH1 0x0 DUP1 PUSH2 0x373 PUSH2 0x957 JUMP JUMPDEST SWAP1 POP PUSH2 0x380 DUP2 DUP6 DUP6 PUSH2 0x95F JUMP JUMPDEST PUSH1 0x1 SWAP2 POP POP SWAP3 SWAP2 POP POP JUMP JUMPDEST PUSH1 0x0 PUSH1 0x2 SLOAD SWAP1 POP SWAP1 JUMP JUMPDEST PUSH1 0x0 DUP1 PUSH2 0x3A0 PUSH2 0x957 JUMP JUMPDEST SWAP1 POP PUSH2 0x3AD DUP6 DUP3 DUP6 PUSH2 0xB2A JUMP JUMPDEST PUSH2 0x3B8 DUP6 DUP6 DUP6 PUSH2 0xBB6 JUMP JUMPDEST PUSH1 0x1 SWAP2 POP POP SWAP4 SWAP3 POP POP POP JUMP JUMPDEST PUSH1 0x0 PUSH1 0x12 SWAP1 POP SWAP1 JUMP JUMPDEST PUSH1 0x0 DUP1 PUSH2 0x3D8 PUSH2 0x957 JUMP JUMPDEST SWAP1 POP PUSH2 0x46C DUP2 DUP6 DUP6 PUSH1 0x1 PUSH1 0x0 DUP7 PUSH20 0xFFFFFFFFFFFFFFFFFFFFFFFFFFFFFFFFFFFFFFFF AND PUSH20 0xFFFFFFFFFFFFFFFFFFFFFFFFFFFFFFFFFFFFFFFF AND DUP2 MSTORE PUSH1 0x20 ADD SWAP1 DUP2 MSTORE PUSH1 0x20 ADD PUSH1 0x0 KECCAK256 PUSH1 0x0 DUP10 PUSH20 0xFFFFFFFFFFFFFFFFFFFFFFFFFFFFFFFFFFFFFFFF AND PUSH20 0xFFFFFFFFFFFFFFFFFFFFFFFFFFFFFFFFFFFFFFFF AND DUP2 MSTORE PUSH1 0x20 ADD SWAP1 DUP2 MSTORE PUSH1 0x20 ADD PUSH1 0x0 KECCAK256 SLOAD PUSH2 0x467 SWAP2 SWAP1 PUSH2 0x12CF JUMP JUMPDEST PUSH2 0x95F JUMP JUMPDEST PUSH1 0x1 SWAP2 POP POP SWAP3 SWAP2 POP POP JUMP JUMPDEST PUSH1 0x0 DUP1 PUSH1 0x0 DUP4 PUSH20 0xFFFFFFFFFFFFFFFFFFFFFFFFFFFFFFFFFFFFFFFF AND PUSH20 0xFFFFFFFFFFFFFFFFFFFFFFFFFFFFFFFFFFFFFFFF AND DUP2 MSTORE PUSH1 0x20 ADD SWAP1 DUP2 MSTORE PUSH1 0x20 ADD PUSH1 0x0 KECCAK256 SLOAD SWAP1 POP SWAP2 SWAP1 POP JUMP JUMPDEST PUSH1 0x60 PUSH1 0x4 DUP1 SLOAD PUSH2 0x4CE SWAP1 PUSH2 0x13AD JUMP JUMPDEST DUP1 PUSH1 0x1F ADD PUSH1 0x20 DUP1 SWAP2 DIV MUL PUSH1 0x20 ADD PUSH1 0x40 MLOAD SWAP1 DUP2 ADD PUSH1 0x40 MSTORE DUP1 SWAP3 SWAP2 SWAP1 DUP2 DUP2 MSTORE PUSH1 0x20 ADD DUP3 DUP1 SLOAD PUSH2 0x4FA SWAP1 PUSH2 0x13AD JUMP JUMPDEST DUP1 ISZERO PUSH2 0x547 JUMPI DUP1 PUSH1 0x1F LT PUSH2 0x51C JUMPI PUSH2 0x100 DUP1 DUP4 SLOAD DIV MUL DUP4 MSTORE SWAP2 PUSH1 0x20 ADD SWAP2 PUSH2 0x547 JUMP JUMPDEST DUP3 ADD SWAP2 SWAP1 PUSH1 0x0 MSTORE PUSH1 0x20 PUSH1 0x0 KECCAK256 SWAP1 JUMPDEST DUP2 SLOAD DUP2 MSTORE SWAP1 PUSH1 0x1 ADD SWAP1 PUSH1 0x20 ADD DUP1 DUP4 GT PUSH2 0x52A JUMPI DUP3 SWAP1 SUB PUSH1 0x1F AND DUP3 ADD SWAP2 JUMPDEST POP POP POP POP POP SWAP1 POP SWAP1 JUMP JUMPDEST PUSH1 0x0 DUP1 PUSH2 0x55C PUSH2 0x957 JUMP JUMPDEST SWAP1 POP PUSH1 0x0 PUSH1 0x1 PUSH1 0x0 DUP4 PUSH20 0xFFFFFFFFFFFFFFFFFFFFFFFFFFFFFFFFFFFFFFFF AND PUSH20 0xFFFFFFFFFFFFFFFFFFFFFFFFFFFFFFFFFFFFFFFF AND DUP2 MSTORE PUSH1 0x20 ADD SWAP1 DUP2 MSTORE PUSH1 0x20 ADD PUSH1 0x0 KECCAK256 PUSH1 0x0 DUP7 PUSH20 0xFFFFFFFFFFFFFFFFFFFFFFFFFFFFFFFFFFFFFFFF AND PUSH20 0xFFFFFFFFFFFFFFFFFFFFFFFFFFFFFFFFFFFFFFFF AND DUP2 MSTORE PUSH1 0x20 ADD SWAP1 DUP2 MSTORE PUSH1 0x20 ADD PUSH1 0x0 KECCAK256 SLOAD SWAP1 POP DUP4 DUP2 LT ISZERO PUSH2 0x622 JUMPI PUSH1 0x40 MLOAD PUSH32 0x8C379A000000000000000000000000000000000000000000000000000000000 DUP2 MSTORE PUSH1 0x4 ADD PUSH2 0x619 SWAP1 PUSH2 0x125D JUMP JUMPDEST PUSH1 0x40 MLOAD DUP1 SWAP2 SUB SWAP1 REVERT JUMPDEST PUSH2 0x62F DUP3 DUP7 DUP7 DUP5 SUB PUSH2 0x95F JUMP JUMPDEST PUSH1 0x1 SWAP3 POP POP POP SWAP3 SWAP2 POP POP JUMP JUMPDEST PUSH1 0x0 DUP1 PUSH2 0x646 PUSH2 0x957 JUMP JUMPDEST SWAP1 POP PUSH2 0x653 DUP2 DUP6 DUP6 PUSH2 0xBB6 JUMP JUMPDEST PUSH1 0x1 SWAP2 POP POP SWAP3 SWAP2 POP POP JUMP JUMPDEST PUSH1 0x5 PUSH1 0x0 SWAP1 SLOAD SWAP1 PUSH2 0x100 EXP SWAP1 DIV PUSH20 0xFFFFFFFFFFFFFFFFFFFFFFFFFFFFFFFFFFFFFFFF AND DUP2 JUMP JUMPDEST CALLER PUSH20 0xFFFFFFFFFFFFFFFFFFFFFFFFFFFFFFFFFFFFFFFF AND PUSH1 0x5 PUSH1 0x0 SWAP1 SLOAD SWAP1 PUSH2 0x100 EXP SWAP1 DIV PUSH20 0xFFFFFFFFFFFFFFFFFFFFFFFFFFFFFFFFFFFFFFFF AND PUSH20 0xFFFFFFFFFFFFFFFFFFFFFFFFFFFFFFFFFFFFFFFF AND EQ PUSH2 0x714 JUMPI PUSH1 0x40 MLOAD PUSH32 0x8C379A000000000000000000000000000000000000000000000000000000000 DUP2 MSTORE PUSH1 0x4 ADD PUSH2 0x70B SWAP1 PUSH2 0x123D JUMP JUMPDEST PUSH1 0x40 MLOAD DUP1 SWAP2 SUB SWAP1 REVERT JUMPDEST PUSH1 0x2 SLOAD DUP2 PUSH1 0x2 SLOAD PUSH2 0x725 SWAP2 SWAP1 PUSH2 0x12CF JUMP JUMPDEST GT PUSH2 0x72F JUMPI PUSH1 0x0 DUP1 REVERT JUMPDEST PUSH1 0x0 DUP1 PUSH1 0x5 PUSH1 0x0 SWAP1 SLOAD SWAP1 PUSH2 0x100 EXP SWAP1 DIV PUSH20 0xFFFFFFFFFFFFFFFFFFFFFFFFFFFFFFFFFFFFFFFF AND PUSH20 0xFFFFFFFFFFFFFFFFFFFFFFFFFFFFFFFFFFFFFFFF AND PUSH20 0xFFFFFFFFFFFFFFFFFFFFFFFFFFFFFFFFFFFFFFFF AND DUP2 MSTORE PUSH1 0x20 ADD SWAP1 DUP2 MSTORE PUSH1 0x20 ADD PUSH1 0x0 KECCAK256 SLOAD DUP2 PUSH1 0x0 DUP1 PUSH1 0x5 PUSH1 0x0 SWAP1 SLOAD SWAP1 PUSH2 0x100 EXP SWAP1 DIV PUSH20 0xFFFFFFFFFFFFFFFFFFFFFFFFFFFFFFFFFFFFFFFF AND PUSH20 0xFFFFFFFFFFFFFFFFFFFFFFFFFFFFFFFFFFFFFFFF AND PUSH20 0xFFFFFFFFFFFFFFFFFFFFFFFFFFFFFFFFFFFFFFFF AND DUP2 MSTORE PUSH1 0x20 ADD SWAP1 DUP2 MSTORE PUSH1 0x20 ADD PUSH1 0x0 KECCAK256 SLOAD PUSH2 0x7FC SWAP2 SWAP1 PUSH2 0x12CF JUMP JUMPDEST GT PUSH2 0x806 JUMPI PUSH1 0x0 DUP1 REVERT JUMPDEST DUP1 PUSH1 0x0 DUP1 PUSH1 0x5 PUSH1 0x0 SWAP1 SLOAD SWAP1 PUSH2 0x100 EXP SWAP1 DIV PUSH20 0xFFFFFFFFFFFFFFFFFFFFFFFFFFFFFFFFFFFFFFFF AND PUSH20 0xFFFFFFFFFFFFFFFFFFFFFFFFFFFFFFFFFFFFFFFF AND PUSH20 0xFFFFFFFFFFFFFFFFFFFFFFFFFFFFFFFFFFFFFFFF AND DUP2 MSTORE PUSH1 0x20 ADD SWAP1 DUP2 MSTORE PUSH1 0x20 ADD PUSH1 0x0 KECCAK256 PUSH1 0x0 DUP3 DUP3 SLOAD PUSH2 0x876 SWAP2 SWAP1 PUSH2 0x12CF JUMP JUMPDEST SWAP3 POP POP DUP2 SWAP1 SSTORE POP DUP1 PUSH1 0x2 PUSH1 0x0 DUP3 DUP3 SLOAD PUSH2 0x88F SWAP2 SWAP1 PUSH2 0x12CF JUMP JUMPDEST SWAP3 POP POP DUP2 SWAP1 SSTORE POP PUSH32 0xCB8241ADB0C3FDB35B70C24CE35C5EB0C17AF7431C99F827D44A445CA624176A DUP2 PUSH1 0x40 MLOAD PUSH2 0x8C5 SWAP2 SWAP1 PUSH2 0x127D JUMP JUMPDEST PUSH1 0x40 MLOAD DUP1 SWAP2 SUB SWAP1 LOG1 POP JUMP JUMPDEST PUSH1 0x0 PUSH1 0x1 PUSH1 0x0 DUP5 PUSH20 0xFFFFFFFFFFFFFFFFFFFFFFFFFFFFFFFFFFFFFFFF AND PUSH20 0xFFFFFFFFFFFFFFFFFFFFFFFFFFFFFFFFFFFFFFFF AND DUP2 MSTORE PUSH1 0x20 ADD SWAP1 DUP2 MSTORE PUSH1 0x20 ADD PUSH1 0x0 KECCAK256 PUSH1 0x0 DUP4 PUSH20 0xFFFFFFFFFFFFFFFFFFFFFFFFFFFFFFFFFFFFFFFF AND PUSH20 0xFFFFFFFFFFFFFFFFFFFFFFFFFFFFFFFFFFFFFFFF AND DUP2 MSTORE PUSH1 0x20 ADD SWAP1 DUP2 MSTORE PUSH1 0x20 ADD PUSH1 0x0 KECCAK256 SLOAD SWAP1 POP SWAP3 SWAP2 POP POP JUMP JUMPDEST PUSH1 0x0 CALLER SWAP1 POP SWAP1 JUMP JUMPDEST PUSH1 0x0 PUSH20 0xFFFFFFFFFFFFFFFFFFFFFFFFFFFFFFFFFFFFFFFF AND DUP4 PUSH20 0xFFFFFFFFFFFFFFFFFFFFFFFFFFFFFFFFFFFFFFFF AND EQ ISZERO PUSH2 0x9CF JUMPI PUSH1 0x40 MLOAD PUSH32 0x8C379A000000000000000000000000000000000000000000000000000000000 DUP2 MSTORE PUSH1 0x4 ADD PUSH2 0x9C6 SWAP1 PUSH2 0x121D JUMP JUMPDEST PUSH1 0x40 MLOAD DUP1 SWAP2 SUB SWAP1 REVERT JUMPDEST PUSH1 0x0 PUSH20 0xFFFFFFFFFFFFFFFFFFFFFFFFFFFFFFFFFFFFFFFF AND DUP3 PUSH20 0xFFFFFFFFFFFFFFFFFFFFFFFFFFFFFFFFFFFFFFFF AND EQ ISZERO PUSH2 0xA3F JUMPI PUSH1 0x40 MLOAD PUSH32 0x8C379A000000000000000000000000000000000000000000000000000000000 DUP2 MSTORE PUSH1 0x4 ADD PUSH2 0xA36 SWAP1 PUSH2 0x119D JUMP JUMPDEST PUSH1 0x40 MLOAD DUP1 SWAP2 SUB SWAP1 REVERT JUMPDEST DUP1 PUSH1 0x1 PUSH1 0x0 DUP6 PUSH20 0xFFFFFFFFFFFFFFFFFFFFFFFFFFFFFFFFFFFFFFFF AND PUSH20 0xFFFFFFFFFFFFFFFFFFFFFFFFFFFFFFFFFFFFFFFF AND DUP2 MSTORE PUSH1 0x20 ADD SWAP1 DUP2 MSTORE PUSH1 0x20 ADD PUSH1 0x0 KECCAK256 PUSH1 0x0 DUP5 PUSH20 0xFFFFFFFFFFFFFFFFFFFFFFFFFFFFFFFFFFFFFFFF AND PUSH20 0xFFFFFFFFFFFFFFFFFFFFFFFFFFFFFFFFFFFFFFFF AND DUP2 MSTORE PUSH1 0x20 ADD SWAP1 DUP2 MSTORE PUSH1 0x20 ADD PUSH1 0x0 KECCAK256 DUP2 SWAP1 SSTORE POP DUP2 PUSH20 0xFFFFFFFFFFFFFFFFFFFFFFFFFFFFFFFFFFFFFFFF AND DUP4 PUSH20 0xFFFFFFFFFFFFFFFFFFFFFFFFFFFFFFFFFFFFFFFF AND PUSH32 0x8C5BE1E5EBEC7D5BD14F71427D1E84F3DD0314C0F7B2291E5B200AC8C7C3B925 DUP4 PUSH1 0x40 MLOAD PUSH2 0xB1D SWAP2 SWAP1 PUSH2 0x127D JUMP JUMPDEST PUSH1 0x40 MLOAD DUP1 SWAP2 SUB SWAP1 LOG3 POP POP POP JUMP JUMPDEST PUSH1 0x0 PUSH2 0xB36 DUP5 DUP5 PUSH2 0x8D0 JUMP JUMPDEST SWAP1 POP PUSH32 0xFFFFFFFFFFFFFFFFFFFFFFFFFFFFFFFFFFFFFFFFFFFFFFFFFFFFFFFFFFFFFFFF DUP2 EQ PUSH2 0xBB0 JUMPI DUP2 DUP2 LT ISZERO PUSH2 0xBA2 JUMPI PUSH1 0x40 MLOAD PUSH32 0x8C379A000000000000000000000000000000000000000000000000000000000 DUP2 MSTORE PUSH1 0x4 ADD PUSH2 0xB99 SWAP1 PUSH2 0x11BD JUMP JUMPDEST PUSH1 0x40 MLOAD DUP1 SWAP2 SUB SWAP1 REVERT JUMPDEST PUSH2 0xBAF DUP5 DUP5 DUP5 DUP5 SUB PUSH2 0x95F JUMP JUMPDEST JUMPDEST POP POP POP POP JUMP JUMPDEST PUSH1 0x0 PUSH20 0xFFFFFFFFFFFFFFFFFFFFFFFFFFFFFFFFFFFFFFFF AND DUP4 PUSH20 0xFFFFFFFFFFFFFFFFFFFFFFFFFFFFFFFFFFFFFFFF AND EQ ISZERO PUSH2 0xC26 JUMPI PUSH1 0x40 MLOAD PUSH32 0x8C379A000000000000000000000000000000000000000000000000000000000 DUP2 MSTORE PUSH1 0x4 ADD PUSH2 0xC1D SWAP1 PUSH2 0x11FD JUMP JUMPDEST PUSH1 0x40 MLOAD DUP1 SWAP2 SUB SWAP1 REVERT JUMPDEST PUSH1 0x0 PUSH20 0xFFFFFFFFFFFFFFFFFFFFFFFFFFFFFFFFFFFFFFFF AND DUP3 PUSH20 0xFFFFFFFFFFFFFFFFFFFFFFFFFFFFFFFFFFFFFFFF AND EQ ISZERO PUSH2 0xC96 JUMPI PUSH1 0x40 MLOAD PUSH32 0x8C379A000000000000000000000000000000000000000000000000000000000 DUP2 MSTORE PUSH1 0x4 ADD PUSH2 0xC8D SWAP1 PUSH2 0x117D JUMP JUMPDEST PUSH1 0x40 MLOAD DUP1 SWAP2 SUB SWAP1 REVERT JUMPDEST PUSH2 0xCA1 DUP4 DUP4 DUP4 PUSH2 0xE37 JUMP JUMPDEST PUSH1 0x0 DUP1 PUSH1 0x0 DUP6 PUSH20 0xFFFFFFFFFFFFFFFFFFFFFFFFFFFFFFFFFFFFFFFF AND PUSH20 0xFFFFFFFFFFFFFFFFFFFFFFFFFFFFFFFFFFFFFFFF AND DUP2 MSTORE PUSH1 0x20 ADD SWAP1 DUP2 MSTORE PUSH1 0x20 ADD PUSH1 0x0 KECCAK256 SLOAD SWAP1 POP DUP2 DUP2 LT ISZERO PUSH2 0xD27 JUMPI PUSH1 0x40 MLOAD PUSH32 0x8C379A000000000000000000000000000000000000000000000000000000000 DUP2 MSTORE PUSH1 0x4 ADD PUSH2 0xD1E SWAP1 PUSH2 0x11DD JUMP JUMPDEST PUSH1 0x40 MLOAD DUP1 SWAP2 SUB SWAP1 REVERT JUMPDEST DUP2 DUP2 SUB PUSH1 0x0 DUP1 DUP7 PUSH20 0xFFFFFFFFFFFFFFFFFFFFFFFFFFFFFFFFFFFFFFFF AND PUSH20 0xFFFFFFFFFFFFFFFFFFFFFFFFFFFFFFFFFFFFFFFF AND DUP2 MSTORE PUSH1 0x20 ADD SWAP1 DUP2 MSTORE PUSH1 0x20 ADD PUSH1 0x0 KECCAK256 DUP2 SWAP1 SSTORE POP DUP2 PUSH1 0x0 DUP1 DUP6 PUSH20 0xFFFFFFFFFFFFFFFFFFFFFFFFFFFFFFFFFFFFFFFF AND PUSH20 0xFFFFFFFFFFFFFFFFFFFFFFFFFFFFFFFFFFFFFFFF AND DUP2 MSTORE PUSH1 0x20 ADD SWAP1 DUP2 MSTORE PUSH1 0x20 ADD PUSH1 0x0 KECCAK256 PUSH1 0x0 DUP3 DUP3 SLOAD PUSH2 0xDBA SWAP2 SWAP1 PUSH2 0x12CF JUMP JUMPDEST SWAP3 POP POP DUP2 SWAP1 SSTORE POP DUP3 PUSH20 0xFFFFFFFFFFFFFFFFFFFFFFFFFFFFFFFFFFFFFFFF AND DUP5 PUSH20 0xFFFFFFFFFFFFFFFFFFFFFFFFFFFFFFFFFFFFFFFF AND PUSH32 0xDDF252AD1BE2C89B69C2B068FC378DAA952BA7F163C4A11628F55A4DF523B3EF DUP5 PUSH1 0x40 MLOAD PUSH2 0xE1E SWAP2 SWAP1 PUSH2 0x127D JUMP JUMPDEST PUSH1 0x40 MLOAD DUP1 SWAP2 SUB SWAP1 LOG3 PUSH2 0xE31 DUP5 DUP5 DUP5 PUSH2 0xE3C JUMP JUMPDEST POP POP POP POP JUMP JUMPDEST POP POP POP JUMP JUMPDEST POP POP POP JUMP JUMPDEST PUSH1 0x0 DUP2 CALLDATALOAD SWAP1 POP PUSH2 0xE50 DUP2 PUSH2 0x167F JUMP JUMPDEST SWAP3 SWAP2 POP POP JUMP JUMPDEST PUSH1 0x0 DUP2 CALLDATALOAD SWAP1 POP PUSH2 0xE65 DUP2 PUSH2 0x1696 JUMP JUMPDEST SWAP3 SWAP2 POP POP JUMP JUMPDEST PUSH1 0x0 PUSH1 0x20 DUP3 DUP5 SUB SLT ISZERO PUSH2 0xE81 JUMPI PUSH2 0xE80 PUSH2 0x143D JUMP JUMPDEST JUMPDEST PUSH1 0x0 PUSH2 0xE8F DUP5 DUP3 DUP6 ADD PUSH2 0xE41 JUMP JUMPDEST SWAP2 POP POP SWAP3 SWAP2 POP POP JUMP JUMPDEST PUSH1 0x0 DUP1 PUSH1 0x40 DUP4 DUP6 SUB SLT ISZERO PUSH2 0xEAF JUMPI PUSH2 0xEAE PUSH2 0x143D JUMP JUMPDEST JUMPDEST PUSH1 0x0 PUSH2 0xEBD DUP6 DUP3 DUP7 ADD PUSH2 0xE41 JUMP JUMPDEST SWAP3 POP POP PUSH1 0x20 PUSH2 0xECE DUP6 DUP3 DUP7 ADD PUSH2 0xE41 JUMP JUMPDEST SWAP2 POP POP SWAP3 POP SWAP3 SWAP1 POP JUMP JUMPDEST PUSH1 0x0 DUP1 PUSH1 0x0 PUSH1 0x60 DUP5 DUP7 SUB SLT ISZERO PUSH2 0xEF1 JUMPI PUSH2 0xEF0 PUSH2 0x143D JUMP JUMPDEST JUMPDEST PUSH1 0x0 PUSH2 0xEFF DUP7 DUP3 DUP8 ADD PUSH2 0xE41 JUMP JUMPDEST SWAP4 POP POP PUSH1 0x20 PUSH2 0xF10 DUP7 DUP3 DUP8 ADD PUSH2 0xE41 JUMP JUMPDEST SWAP3 POP POP PUSH1 0x40 PUSH2 0xF21 DUP7 DUP3 DUP8 ADD PUSH2 0xE56 JUMP JUMPDEST SWAP2 POP POP SWAP3 POP SWAP3 POP SWAP3 JUMP JUMPDEST PUSH1 0x0 DUP1 PUSH1 0x40 DUP4 DUP6 SUB SLT ISZERO PUSH2 0xF42 JUMPI PUSH2 0xF41 PUSH2 0x143D JUMP JUMPDEST JUMPDEST PUSH1 0x0 PUSH2 0xF50 DUP6 DUP3 DUP7 ADD PUSH2 0xE41 JUMP JUMPDEST SWAP3 POP POP PUSH1 0x20 PUSH2 0xF61 DUP6 DUP3 DUP7 ADD PUSH2 0xE56 JUMP JUMPDEST SWAP2 POP POP SWAP3 POP SWAP3 SWAP1 POP JUMP JUMPDEST PUSH1 0x0 PUSH1 0x20 DUP3 DUP5 SUB SLT ISZERO PUSH2 0xF81 JUMPI PUSH2 0xF80 PUSH2 0x143D JUMP JUMPDEST JUMPDEST PUSH1 0x0 PUSH2 0xF8F DUP5 DUP3 DUP6 ADD PUSH2 0xE56 JUMP JUMPDEST SWAP2 POP POP SWAP3 SWAP2 POP POP JUMP JUMPDEST PUSH2 0xFA1 DUP2 PUSH2 0x1325 JUMP JUMPDEST DUP3 MSTORE POP POP JUMP JUMPDEST PUSH2 0xFB0 DUP2 PUSH2 0x1337 JUMP JUMPDEST DUP3 MSTORE POP POP JUMP JUMPDEST PUSH1 0x0 PUSH2 0xFC1 DUP3 PUSH2 0x12B3 JUMP JUMPDEST PUSH2 0xFCB DUP2 DUP6 PUSH2 0x12BE JUMP JUMPDEST SWAP4 POP PUSH2 0xFDB DUP2 DUP6 PUSH1 0x20 DUP7 ADD PUSH2 0x137A JUMP JUMPDEST PUSH2 0xFE4 DUP2 PUSH2 0x1442 JUMP JUMPDEST DUP5 ADD SWAP2 POP POP SWAP3 SWAP2 POP POP JUMP JUMPDEST PUSH1 0x0 PUSH2 0xFFC PUSH1 0x23 DUP4 PUSH2 0x12BE JUMP JUMPDEST SWAP2 POP PUSH2 0x1007 DUP3 PUSH2 0x1453 JUMP JUMPDEST PUSH1 0x40 DUP3 ADD SWAP1 POP SWAP2 SWAP1 POP JUMP JUMPDEST PUSH1 0x0 PUSH2 0x101F PUSH1 0x22 DUP4 PUSH2 0x12BE JUMP JUMPDEST SWAP2 POP PUSH2 0x102A DUP3 PUSH2 0x14A2 JUMP JUMPDEST PUSH1 0x40 DUP3 ADD SWAP1 POP SWAP2 SWAP1 POP JUMP JUMPDEST PUSH1 0x0 PUSH2 0x1042 PUSH1 0x1D DUP4 PUSH2 0x12BE JUMP JUMPDEST SWAP2 POP PUSH2 0x104D DUP3 PUSH2 0x14F1 JUMP JUMPDEST PUSH1 0x20 DUP3 ADD SWAP1 POP SWAP2 SWAP1 POP JUMP JUMPDEST PUSH1 0x0 PUSH2 0x1065 PUSH1 0x26 DUP4 PUSH2 0x12BE JUMP JUMPDEST SWAP2 POP PUSH2 0x1070 DUP3 PUSH2 0x151A JUMP JUMPDEST PUSH1 0x40 DUP3 ADD SWAP1 POP SWAP2 SWAP1 POP JUMP JUMPDEST PUSH1 0x0 PUSH2 0x1088 PUSH1 0x25 DUP4 PUSH2 0x12BE JUMP JUMPDEST SWAP2 POP PUSH2 0x1093 DUP3 PUSH2 0x1569 JUMP JUMPDEST PUSH1 0x40 DUP3 ADD SWAP1 POP SWAP2 SWAP1 POP JUMP JUMPDEST PUSH1 0x0 PUSH2 0x10AB PUSH1 0x24 DUP4 PUSH2 0x12BE JUMP JUMPDEST SWAP2 POP PUSH2 0x10B6 DUP3 PUSH2 0x15B8 JUMP JUMPDEST PUSH1 0x40 DUP3 ADD SWAP1 POP SWAP2 SWAP1 POP JUMP JUMPDEST PUSH1 0x0 PUSH2 0x10CE PUSH1 0xA DUP4 PUSH2 0x12BE JUMP JUMPDEST SWAP2 POP PUSH2 0x10D9 DUP3 PUSH2 0x1607 JUMP JUMPDEST PUSH1 0x20 DUP3 ADD SWAP1 POP SWAP2 SWAP1 POP JUMP JUMPDEST PUSH1 0x0 PUSH2 0x10F1 PUSH1 0x25 DUP4 PUSH2 0x12BE JUMP JUMPDEST SWAP2 POP PUSH2 0x10FC DUP3 PUSH2 0x1630 JUMP JUMPDEST PUSH1 0x40 DUP3 ADD SWAP1 POP SWAP2 SWAP1 POP JUMP JUMPDEST PUSH2 0x1110 DUP2 PUSH2 0x1363 JUMP JUMPDEST DUP3 MSTORE POP POP JUMP JUMPDEST PUSH2 0x111F DUP2 PUSH2 0x136D JUMP JUMPDEST DUP3 MSTORE POP POP JUMP JUMPDEST PUSH1 0x0 PUSH1 0x20 DUP3 ADD SWAP1 POP PUSH2 0x113A PUSH1 0x0 DUP4 ADD DUP5 PUSH2 0xF98 JUMP JUMPDEST SWAP3 SWAP2 POP POP JUMP JUMPDEST PUSH1 0x0 PUSH1 0x20 DUP3 ADD SWAP1 POP PUSH2 0x1155 PUSH1 0x0 DUP4 ADD DUP5 PUSH2 0xFA7 JUMP JUMPDEST SWAP3 SWAP2 POP POP JUMP JUMPDEST PUSH1 0x0 PUSH1 0x20 DUP3 ADD SWAP1 POP DUP2 DUP2 SUB PUSH1 0x0 DUP4 ADD MSTORE PUSH2 0x1175 DUP2 DUP5 PUSH2 0xFB6 JUMP JUMPDEST SWAP1 POP SWAP3 SWAP2 POP POP JUMP JUMPDEST PUSH1 0x0 PUSH1 0x20 DUP3 ADD SWAP1 POP DUP2 DUP2 SUB PUSH1 0x0 DUP4 ADD MSTORE PUSH2 0x1196 DUP2 PUSH2 0xFEF JUMP JUMPDEST SWAP1 POP SWAP2 SWAP1 POP JUMP JUMPDEST PUSH1 0x0 PUSH1 0x20 DUP3 ADD SWAP1 POP DUP2 DUP2 SUB PUSH1 0x0 DUP4 ADD MSTORE PUSH2 0x11B6 DUP2 PUSH2 0x1012 JUMP JUMPDEST SWAP1 POP SWAP2 SWAP1 POP JUMP JUMPDEST PUSH1 0x0 PUSH1 0x20 DUP3 ADD SWAP1 POP DUP2 DUP2 SUB PUSH1 0x0 DUP4 ADD MSTORE PUSH2 0x11D6 DUP2 PUSH2 0x1035 JUMP JUMPDEST SWAP1 POP SWAP2 SWAP1 POP JUMP JUMPDEST PUSH1 0x0 PUSH1 0x20 DUP3 ADD SWAP1 POP DUP2 DUP2 SUB PUSH1 0x0 DUP4 ADD MSTORE PUSH2 0x11F6 DUP2 PUSH2 0x1058 JUMP JUMPDEST SWAP1 POP SWAP2 SWAP1 POP JUMP JUMPDEST PUSH1 0x0 PUSH1 0x20 DUP3 ADD SWAP1 POP DUP2 DUP2 SUB PUSH1 0x0 DUP4 ADD MSTORE PUSH2 0x1216 DUP2 PUSH2 0x107B JUMP JUMPDEST SWAP1 POP SWAP2 SWAP1 POP JUMP JUMPDEST PUSH1 0x0 PUSH1 0x20 DUP3 ADD SWAP1 POP DUP2 DUP2 SUB PUSH1 0x0 DUP4 ADD MSTORE PUSH2 0x1236 DUP2 PUSH2 0x109E JUMP JUMPDEST SWAP1 POP SWAP2 SWAP1 POP JUMP JUMPDEST PUSH1 0x0 PUSH1 0x20 DUP3 ADD SWAP1 POP DUP2 DUP2 SUB PUSH1 0x0 DUP4 ADD MSTORE PUSH2 0x1256 DUP2 PUSH2 0x10C1 JUMP JUMPDEST SWAP1 POP SWAP2 SWAP1 POP JUMP JUMPDEST PUSH1 0x0 PUSH1 0x20 DUP3 ADD SWAP1 POP DUP2 DUP2 SUB PUSH1 0x0 DUP4 ADD MSTORE PUSH2 0x1276 DUP2 PUSH2 0x10E4 JUMP JUMPDEST SWAP1 POP SWAP2 SWAP1 POP JUMP JUMPDEST PUSH1 0x0 PUSH1 0x20 DUP3 ADD SWAP1 POP PUSH2 0x1292 PUSH1 0x0 DUP4 ADD DUP5 PUSH2 0x1107 JUMP JUMPDEST SWAP3 SWAP2 POP POP JUMP JUMPDEST PUSH1 0x0 PUSH1 0x20 DUP3 ADD SWAP1 POP PUSH2 0x12AD PUSH1 0x0 DUP4 ADD DUP5 PUSH2 0x1116 JUMP JUMPDEST SWAP3 SWAP2 POP POP JUMP JUMPDEST PUSH1 0x0 DUP2 MLOAD SWAP1 POP SWAP2 SWAP1 POP JUMP JUMPDEST PUSH1 0x0 DUP3 DUP3 MSTORE PUSH1 0x20 DUP3 ADD SWAP1 POP SWAP3 SWAP2 POP POP JUMP JUMPDEST PUSH1 0x0 PUSH2 0x12DA DUP3 PUSH2 0x1363 JUMP JUMPDEST SWAP2 POP PUSH2 0x12E5 DUP4 PUSH2 0x1363 JUMP JUMPDEST SWAP3 POP DUP3 PUSH32 0xFFFFFFFFFFFFFFFFFFFFFFFFFFFFFFFFFFFFFFFFFFFFFFFFFFFFFFFFFFFFFFFF SUB DUP3 GT ISZERO PUSH2 0x131A JUMPI PUSH2 0x1319 PUSH2 0x13DF JUMP JUMPDEST JUMPDEST DUP3 DUP3 ADD SWAP1 POP SWAP3 SWAP2 POP POP JUMP JUMPDEST PUSH1 0x0 PUSH2 0x1330 DUP3 PUSH2 0x1343 JUMP JUMPDEST SWAP1 POP SWAP2 SWAP1 POP JUMP JUMPDEST PUSH1 0x0 DUP2 ISZERO ISZERO SWAP1 POP SWAP2 SWAP1 POP JUMP JUMPDEST PUSH1 0x0 PUSH20 0xFFFFFFFFFFFFFFFFFFFFFFFFFFFFFFFFFFFFFFFF DUP3 AND SWAP1 POP SWAP2 SWAP1 POP JUMP JUMPDEST PUSH1 0x0 DUP2 SWAP1 POP SWAP2 SWAP1 POP JUMP JUMPDEST PUSH1 0x0 PUSH1 0xFF DUP3 AND SWAP1 POP SWAP2 SWAP1 POP JUMP JUMPDEST PUSH1 0x0 JUMPDEST DUP4 DUP2 LT ISZERO PUSH2 0x1398 JUMPI DUP1 DUP3 ADD MLOAD DUP2 DUP5 ADD MSTORE PUSH1 0x20 DUP2 ADD SWAP1 POP PUSH2 0x137D JUMP JUMPDEST DUP4 DUP2 GT ISZERO PUSH2 0x13A7 JUMPI PUSH1 0x0 DUP5 DUP5 ADD MSTORE JUMPDEST POP POP POP POP JUMP JUMPDEST PUSH1 0x0 PUSH1 0x2 DUP3 DIV SWAP1 POP PUSH1 0x1 DUP3 AND DUP1 PUSH2 0x13C5 JUMPI PUSH1 0x7F DUP3 AND SWAP2 POP JUMPDEST PUSH1 0x20 DUP3 LT DUP2 EQ ISZERO PUSH2 0x13D9 JUMPI PUSH2 0x13D8 PUSH2 0x140E JUMP JUMPDEST JUMPDEST POP SWAP2 SWAP1 POP JUMP JUMPDEST PUSH32 0x4E487B7100000000000000000000000000000000000000000000000000000000 PUSH1 0x0 MSTORE PUSH1 0x11 PUSH1 0x4 MSTORE PUSH1 0x24 PUSH1 0x0 REVERT JUMPDEST PUSH32 0x4E487B7100000000000000000000000000000000000000000000000000000000 PUSH1 0x0 MSTORE PUSH1 0x22 PUSH1 0x4 MSTORE PUSH1 0x24 PUSH1 0x0 REVERT JUMPDEST PUSH1 0x0 DUP1 REVERT JUMPDEST PUSH1 0x0 PUSH1 0x1F NOT PUSH1 0x1F DUP4 ADD AND SWAP1 POP SWAP2 SWAP1 POP JUMP JUMPDEST PUSH32 0x45524332303A207472616E7366657220746F20746865207A65726F2061646472 PUSH1 0x0 DUP3 ADD MSTORE PUSH32 0x6573730000000000000000000000000000000000000000000000000000000000 PUSH1 0x20 DUP3 ADD MSTORE POP JUMP JUMPDEST PUSH32 0x45524332303A20617070726F766520746F20746865207A65726F206164647265 PUSH1 0x0 DUP3 ADD MSTORE PUSH32 0x7373000000000000000000000000000000000000000000000000000000000000 PUSH1 0x20 DUP3 ADD MSTORE POP JUMP JUMPDEST PUSH32 0x45524332303A20696E73756666696369656E7420616C6C6F77616E6365000000 PUSH1 0x0 DUP3 ADD MSTORE POP JUMP JUMPDEST PUSH32 0x45524332303A207472616E7366657220616D6F756E7420657863656564732062 PUSH1 0x0 DUP3 ADD MSTORE PUSH32 0x616C616E63650000000000000000000000000000000000000000000000000000 PUSH1 0x20 DUP3 ADD MSTORE POP JUMP JUMPDEST PUSH32 0x45524332303A207472616E736665722066726F6D20746865207A65726F206164 PUSH1 0x0 DUP3 ADD MSTORE PUSH32 0x6472657373000000000000000000000000000000000000000000000000000000 PUSH1 0x20 DUP3 ADD MSTORE POP JUMP JUMPDEST PUSH32 0x45524332303A20617070726F76652066726F6D20746865207A65726F20616464 PUSH1 0x0 DUP3 ADD MSTORE PUSH32 0x7265737300000000000000000000000000000000000000000000000000000000 PUSH1 0x20 DUP3 ADD MSTORE POP JUMP JUMPDEST PUSH32 0x6E656564206F776E657200000000000000000000000000000000000000000000 PUSH1 0x0 DUP3 ADD MSTORE POP JUMP JUMPDEST PUSH32 0x45524332303A2064656372656173656420616C6C6F77616E63652062656C6F77 PUSH1 0x0 DUP3 ADD MSTORE PUSH32 0x207A65726F000000000000000000000000000000000000000000000000000000 PUSH1 0x20 DUP3 ADD MSTORE POP JUMP JUMPDEST PUSH2 0x1688 DUP2 PUSH2 0x1325 JUMP JUMPDEST DUP2 EQ PUSH2 0x1693 JUMPI PUSH1 0x0 DUP1 REVERT JUMPDEST POP JUMP JUMPDEST PUSH2 0x169F DUP2 PUSH2 0x1363 JUMP JUMPDEST DUP2 EQ PUSH2 0x16AA JUMPI PUSH1 0x0 DUP1 REVERT JUMPDEST POP JUMP INVALID LOG2 PUSH5 0x6970667358 0x22 SLT KECCAK256 PUSH9 0x9F29D6803DF3919F4D PUSH29 0xC6F4E725DBAEBA98C5E551AB180F3BC99828F4266B64736F6C63430008 SMOD STOP CALLER "
				},
				"gasEstimates": {
					"creation": {
						"codeDepositCost": "1171800",
						"executionCost": "infinite",
						"totalCost": "infinite"
					},
					"external": {
						"_owner()": "2558",
						"allowance(address,address)": "infinite",
						"approve(address,uint256)": "infinite",
						"balanceOf(address)": "2864",
						"decimals()": "432",
						"decreaseAllowance(address,uint256)": "infinite",
						"increaseAllowance(address,uint256)": "infinite",
						"issue(uint256)": "infinite",
						"name()": "infinite",
						"symbol()": "infinite",
						"totalSupply()": "2482",
						"transfer(address,uint256)": "infinite",
						"transferFrom(address,address,uint256)": "infinite"
					},
					"internal": {
						"_afterTokenTransfer(address,address,uint256)": "15",
						"_approve(address,address,uint256)": "infinite",
						"_beforeTokenTransfer(address,address,uint256)": "15",
						"_burn(address,uint256)": "infinite",
						"_mint(address,uint256)": "infinite",
						"_spendAllowance(address,address,uint256)": "infinite",
						"_transfer(address,address,uint256)": "infinite"
					}
				},
				"methodIdentifiers": {
					"_owner()": "b2bdfa7b",
					"allowance(address,address)": "dd62ed3e",
					"approve(address,uint256)": "095ea7b3",
					"balanceOf(address)": "70a08231",
					"decimals()": "313ce567",
					"decreaseAllowance(address,uint256)": "a457c2d7",
					"increaseAllowance(address,uint256)": "39509351",
					"issue(uint256)": "cc872b66",
					"name()": "06fdde03",
					"symbol()": "95d89b41",
					"totalSupply()": "18160ddd",
					"transfer(address,uint256)": "a9059cbb",
					"transferFrom(address,address,uint256)": "23b872dd"
				}
			},
			"userdoc": {
				"kind": "user",
				"methods": {},
				"version": 1
			}
		}
	}
}