{
  "contractName": "Counter",
  "abi": [
    {
      "inputs": [],
      "payable": false,
      "stateMutability": "nonpayable",
      "type": "constructor"
    },
    {
      "constant": true,
      "inputs": [],
      "name": "counter",
      "outputs": [
        {
          "internalType": "uint256",
          "name": "",
          "type": "uint256"
        }
      ],
      "payable": false,
      "stateMutability": "view",
      "type": "function"
    },
    {
      "constant": false,
      "inputs": [],
      "name": "count",
      "outputs": [],
      "payable": false,
      "stateMutability": "nonpayable",
      "type": "function"
    },
    {
      "constant": false,
      "inputs": [
        {
          "internalType": "uint256",
          "name": "x",
          "type": "uint256"
        }
      ],
      "name": "set",
      "outputs": [],
      "payable": false,
      "stateMutability": "nonpayable",
      "type": "function"
    }
  ],
  "bytecode": "0x608060405234801561001057600080fd5b506000808190555060e7806100266000396000f3fe6080604052348015600f57600080fd5b5060043610603c5760003560e01c806306661abd14604157806360fe47b114604957806361bc221a146074575b600080fd5b60476090565b005b607260048036036020811015605d57600080fd5b8101908080359060200190929190505050609e565b005b607a60ac565b6040518082815260200191505060405180910390f35b600160005401600081905550565b806000540160008190555050565b6000548156fea265627a7a72315820af58d334e7b0f7ff732d4998df35fafdceeb869209058ce1ba187abd0ac3fd9f64736f6c63430005100032",
  "source": "// SPDX-License-Identifier: MIT\npragma solidity >=0.4.22 <0.9.0;\n\ncontract Counter {\n    uint public counter;\n    constructor() public {\n        counter = 0;\n    }\n\n    function count() public {\n        counter = counter + 1;\n    }\n\n    function set(uint x) public {\n        counter = counter + x;\n    }\n}",
  "sourcePath": "/Users/liyinghao/code/blockchain-edu/w1/contract/contracts/Counter.sol",
  "compiler": {
    "name": "solc",
    "version": "0.5.16+commit.9c3226ce.Emscripten.clang"
  },
  "schemaVersion": "3.4.3",
  "updatedAt": "2022-03-07T10:00:20.481Z",
  "devdoc": {
    "methods": {}
  },
  "userdoc": {
    "methods": {}
  }
}