{
	"data": {
		"bytecode": {
			"linkReferences": {},
			"object": "608060405234801561001057600080fd5b50610227806100206000396000f3fe608060405234801561001057600080fd5b506004361061002b5760003560e01c806335f6a69f14610030575b600080fd5b61004a600480360381019061004591906100e8565b61004c565b005b8273ffffffffffffffffffffffffffffffffffffffff1663ff1f8b7383836040518363ffffffff1660e01b8152600401610087929190610159565b600060405180830381600087803b1580156100a157600080fd5b505af11580156100b5573d6000803e3d6000fd5b50505050505050565b6000813590506100cd816101c3565b92915050565b6000813590506100e2816101da565b92915050565b600080600060608486031215610101576101006101be565b5b600061010f868287016100be565b9350506020610120868287016100be565b9250506040610131868287016100d3565b9150509250925092565b61014481610182565b82525050565b610153816101b4565b82525050565b600060408201905061016e600083018561013b565b61017b602083018461014a565b9392505050565b600061018d82610194565b9050919050565b600073ffffffffffffffffffffffffffffffffffffffff82169050919050565b6000819050919050565b600080fd5b6101cc81610182565b81146101d757600080fd5b50565b6101e3816101b4565b81146101ee57600080fd5b5056fea2646970667358221220c116722bce031e59fd406820a3cfe0b4fd433b678472024d7e87f720a74f64c764736f6c63430008060033",
			"opcodes": "PUSH1 0x80 PUSH1 0x40 MSTORE CALLVALUE DUP1 ISZERO PUSH2 0x10 JUMPI PUSH1 0x0 DUP1 REVERT JUMPDEST POP PUSH2 0x227 DUP1 PUSH2 0x20 PUSH1 0x0 CODECOPY PUSH1 0x0 RETURN INVALID PUSH1 0x80 PUSH1 0x40 MSTORE CALLVALUE DUP1 ISZERO PUSH2 0x10 JUMPI PUSH1 0x0 DUP1 REVERT JUMPDEST POP PUSH1 0x4 CALLDATASIZE LT PUSH2 0x2B JUMPI PUSH1 0x0 CALLDATALOAD PUSH1 0xE0 SHR DUP1 PUSH4 0x35F6A69F EQ PUSH2 0x30 JUMPI JUMPDEST PUSH1 0x0 DUP1 REVERT JUMPDEST PUSH2 0x4A PUSH1 0x4 DUP1 CALLDATASIZE SUB DUP2 ADD SWAP1 PUSH2 0x45 SWAP2 SWAP1 PUSH2 0xE8 JUMP JUMPDEST PUSH2 0x4C JUMP JUMPDEST STOP JUMPDEST DUP3 PUSH20 0xFFFFFFFFFFFFFFFFFFFFFFFFFFFFFFFFFFFFFFFF AND PUSH4 0xFF1F8B73 DUP4 DUP4 PUSH1 0x40 MLOAD DUP4 PUSH4 0xFFFFFFFF AND PUSH1 0xE0 SHL DUP2 MSTORE PUSH1 0x4 ADD PUSH2 0x87 SWAP3 SWAP2 SWAP1 PUSH2 0x159 JUMP JUMPDEST PUSH1 0x0 PUSH1 0x40 MLOAD DUP1 DUP4 SUB DUP2 PUSH1 0x0 DUP8 DUP1 EXTCODESIZE ISZERO DUP1 ISZERO PUSH2 0xA1 JUMPI PUSH1 0x0 DUP1 REVERT JUMPDEST POP GAS CALL ISZERO DUP1 ISZERO PUSH2 0xB5 JUMPI RETURNDATASIZE PUSH1 0x0 DUP1 RETURNDATACOPY RETURNDATASIZE PUSH1 0x0 REVERT JUMPDEST POP POP POP POP POP POP POP JUMP JUMPDEST PUSH1 0x0 DUP2 CALLDATALOAD SWAP1 POP PUSH2 0xCD DUP2 PUSH2 0x1C3 JUMP JUMPDEST SWAP3 SWAP2 POP POP JUMP JUMPDEST PUSH1 0x0 DUP2 CALLDATALOAD SWAP1 POP PUSH2 0xE2 DUP2 PUSH2 0x1DA JUMP JUMPDEST SWAP3 SWAP2 POP POP JUMP JUMPDEST PUSH1 0x0 DUP1 PUSH1 0x0 PUSH1 0x60 DUP5 DUP7 SUB SLT ISZERO PUSH2 0x101 JUMPI PUSH2 0x100 PUSH2 0x1BE JUMP JUMPDEST JUMPDEST PUSH1 0x0 PUSH2 0x10F DUP7 DUP3 DUP8 ADD PUSH2 0xBE JUMP JUMPDEST SWAP4 POP POP PUSH1 0x20 PUSH2 0x120 DUP7 DUP3 DUP8 ADD PUSH2 0xBE JUMP JUMPDEST SWAP3 POP POP PUSH1 0x40 PUSH2 0x131 DUP7 DUP3 DUP8 ADD PUSH2 0xD3 JUMP JUMPDEST SWAP2 POP POP SWAP3 POP SWAP3 POP SWAP3 JUMP JUMPDEST PUSH2 0x144 DUP2 PUSH2 0x182 JUMP JUMPDEST DUP3 MSTORE POP POP JUMP JUMPDEST PUSH2 0x153 DUP2 PUSH2 0x1B4 JUMP JUMPDEST DUP3 MSTORE POP POP JUMP JUMPDEST PUSH1 0x0 PUSH1 0x40 DUP3 ADD SWAP1 POP PUSH2 0x16E PUSH1 0x0 DUP4 ADD DUP6 PUSH2 0x13B JUMP JUMPDEST PUSH2 0x17B PUSH1 0x20 DUP4 ADD DUP5 PUSH2 0x14A JUMP JUMPDEST SWAP4 SWAP3 POP POP POP JUMP JUMPDEST PUSH1 0x0 PUSH2 0x18D DUP3 PUSH2 0x194 JUMP JUMPDEST SWAP1 POP SWAP2 SWAP1 POP JUMP JUMPDEST PUSH1 0x0 PUSH20 0xFFFFFFFFFFFFFFFFFFFFFFFFFFFFFFFFFFFFFFFF DUP3 AND SWAP1 POP SWAP2 SWAP1 POP JUMP JUMPDEST PUSH1 0x0 DUP2 SWAP1 POP SWAP2 SWAP1 POP JUMP JUMPDEST PUSH1 0x0 DUP1 REVERT JUMPDEST PUSH2 0x1CC DUP2 PUSH2 0x182 JUMP JUMPDEST DUP2 EQ PUSH2 0x1D7 JUMPI PUSH1 0x0 DUP1 REVERT JUMPDEST POP JUMP JUMPDEST PUSH2 0x1E3 DUP2 PUSH2 0x1B4 JUMP JUMPDEST DUP2 EQ PUSH2 0x1EE JUMPI PUSH1 0x0 DUP1 REVERT JUMPDEST POP JUMP INVALID LOG2 PUSH5 0x6970667358 0x22 SLT KECCAK256 0xC1 AND PUSH19 0x2BCE031E59FD406820A3CFE0B4FD433B678472 MUL 0x4D PUSH31 0x87F720A74F64C764736F6C6343000806003300000000000000000000000000 "
		},
		"gasEstimates": {
			"creation": {
				"codeDepositCost": "110200",
				"executionCost": "159",
				"totalCost": "110359"
			},
			"external": {
				"modifyStudentScore(address,address,uint256)": "infinite"
			}
		},
		"methodIdentifiers": {
			"modifyStudentScore(address,address,uint256)": "35f6a69f"
		}
	},
	"abi": [
		{
			"inputs": [
				{
					"internalType": "address",
					"name": "studentContractAddress",
					"type": "address"
				},
				{
					"internalType": "address",
					"name": "studentAddress",
					"type": "address"
				},
				{
					"internalType": "uint256",
					"name": "score",
					"type": "uint256"
				}
			],
			"name": "modifyStudentScore",
			"outputs": [],
			"stateMutability": "nonpayable",
			"type": "function"
		}
	]
}